:020000040040BA
:10000000303E0020BD214000852240008522400076
:10001000852240008522400085224000000000002B
:1000200000000000000000000000000085224000E9
:100030008522400000000000852240004528400045
:100040008522400085224000852240008522400014
:1000500085224000852240008522400000000000EB
:10006000852240008522400000000000BD0B4000BA
:10007000D50B400000000000852240008522400092
:1000800000000000000000008522400085224000A2
:1000900085224000852240008522400085224000C4
:1000A0008522400085224000000000000000000082
:1000B000000000008522400085224000852240008B
:1000C00085224000852240008522400010B5054C65
:1000D000237833B9044B13B10448AFF300800123F4
:1000E000237010BD5C080020000000000453400095
:1000F000084B10B51BB108490848AFF30080084809
:10010000036803B910BD074B002BFBD0BDE81040BE
:10011000184700BF000000006008002004534000A2
:10012000045340000000000080B485B000AF786048
:100130007B6893F865207B6893F864309A4209D90C
:100140007B6893F865301A467B6893F86430D31A5D
:10015000FB6014E07B6893F865207B6893F864305B
:100160009A420AD27B6893F86430C3F164037A68D8
:1001700092F865201344FB6001E00023FB60FB68FC
:1001800018461437BD4680BC704700BF80B485B0A8
:1001900000AF78607B6893F864305A1CD1B27A68FB
:1001A00082F864101A467B689B5CFB737B6893F84B
:1001B0006430632B03D97B68002283F86420FB7BC7
:1001C00018461437BD4680BC704700BF80B483B06A
:1001D00000AF78600B46FB707B6893F865305A1C63
:1001E000D1B27A6882F8651019467B68FA785A5459
:1001F0007B6893F86530632B03D97B68002283F812
:10020000652000BF0C37BD4680BC704780B483B00A
:1002100000AF78607B68072B25D801A252F823F045
:1002200041024000470240004D024000530240009E
:10023000570240005B0240005F0240006302400042
:100240004FF4FA4310E04FF400430DE04FF4004345
:100250000AE0084B08E0084B06E0084B04E0074BB7
:1002600002E0064B00E0002318460C37BD4680BC78
:10027000704700BF00093D0000127A00001BB70064
:1002800080B500AF0620044B9847024613469B00FA
:1002900013449B00184680BD0D02400080B500AF9E
:1002A000024B984703465B08184680BD8102400018
:1002B00080B582B000AF78607868034B984700BF84
:1002C0000837BD4680BD00BFA11F400080B58CB07F
:1002D00000AF78603960314B984703467B623B68DA
:1002E0001B68BB623B689B68FB623B681B68FB60EA
:1002F0003B685B683B613B689B687B613B68DB6894
:10030000BB610023FB617B68254A934208D108202A
:10031000244B984707F1240319467868224B9847E5
:100320007B68224A934208D109201E4B984707F167
:100330002403194678681C4B98477B681C4A9342F3
:1003400011D10E20174B9847144B9847024607F1DE
:100350000C0319467868174B98477868164B9847EE
:100360007868164B98477B68154A934211D10F2045
:100370000C4B9847094B9847024607F10C03194666
:1003800078680C4B984778680B4B984778680B4B0C
:10039000984700BF3037BD4680BD00BF9D0240007A
:1003A00000060E40B1024000090E400000080E4059
:1003B000004002401D104000A1104000E910400024
:1003C0000080024080B582B000AF78600B46FB70C1
:1003D0007B68204A93420AD100BFFB7819467868AF
:1003E0001D4B98470346002BF7D101232DE07B6876
:1003F0001A4A93420AD100BFFB7819467868164B17
:1004000098470346002BF7D101231EE07B68144A6E
:1004100093420AD100BFFB7819467868114B984780
:100420000346002BF7D101230FE07B680E4A93426D
:100430000AD100BFFB78194678680A4B98470346F3
:10044000002BF7D1012300E0002318460837BD46F2
:1004500080BD00BF00060E40990E400000080E400F
:10046000004002409D1140000080024080B584B0F1
:1004700000AF786039600023FB607B681F4A9342BD
:1004800007D100BF396878681D4B98470346002B99
:10049000F8D17B681B4A934207D100BF396878685E
:1004A000174B98470346002BF8D17B68164A9342B6
:1004B0000DD100BF07F10C0319467868134B98471C
:1004C0000346002BF6D1FB68DAB23B681A707B68F2
:1004D0000F4A93420DD100BF07F10C03194678680B
:1004E0000A4B98470346002BF6D1FB68DAB23B680B
:1004F0001A7000BF1037BD4680BD00BF00060E4019
:10050000C90E400000080E4000400240CD114000DE
:100510000080024080B582B000AF786039600F4A39
:100520007B6813600E4B0F4A1A600F4B0F4A1A601C
:10053000396878680E4B98470E4B1B689B68002102
:1005400018460D4B98470B4B1B685B6800211846FB
:10055000094B984700BF0837BD4680BD040B0020FB
:10056000000B0020C5034000FC0A00206D04400081
:10057000CD0240004804002029434000B0B58AB0B5
:1005800000AF364B07F110041D460FCD0FC495E8A0
:10059000030084E803000E20314B9847314B984705
:1005A000024607F1100319462F48304B98472E4852
:1005B0002F4B98472C482F4B98472B482E4B98474A
:1005C00002462E4B1A602D4B1B68012118462C4BFE
:1005D00098472C4A2C4B1A602B4BC8225A60274B49
:1005E0001B68294A28491846284B98473B46002251
:1005F0001A605A609A60DA604FF416533B604FF409
:100600000063BB600820164B98473B4619462048BC
:10061000204B98471E48204B98471D481F4B984732
:100620001B481F4B984702461E4B1A601D4B1B6808
:1006300001211846124B98471B4A134B1A60124B64
:10064000C8225A60174B1B680F4A0F4918460F4BB8
:10065000984700BF2837BD46B0BD00BFA05240003C
:10066000B10240009D024000004002401D104000C9
:10067000B9104000E910400001124000F80A0020C3
:100680004916400078080020EC0A002005164000BA
:1006900000060E4015054000810E4000690E400026
:1006A000F90E4000F40A00204009002080B500AF98
:1006B000284B1B681846284B98470346002B0CD143
:1006C000264A274B1A60264BC8225A60214B1B68CA
:1006D000234A00211846234B98471E4B1B68184697
:1006E000214B984703469BB2C3F1C8039AB21F4BF4
:1006F0001A801E4B1B88C72B02D91C4B00221A8064
:100700001B4B1B681846144B98470346002B0CD113
:10071000184A134B1A60124BC8225A60144B1B68BC
:100720000F4A002118460F4B9847114B1B6818467B
:100730000D4B984703469BB2C3F1C8039AB20E4BC8
:100740001A800D4B1B88C72B02D90B4B00221A8035
:1007500000BF80BDF80A0020811640007808002004
:10076000EC0A002005164000691640000C0A002023
:10077000F40A0020400900200E0A002080B485B051
:1007800000AF0346FB71FB79012B1FD1224B1A8866
:10079000224B1B889A4207D91F4B1B881A461F4BB6
:1007A0001B88D31AFB6030E01B4B1A881B4B1B883D
:1007B0009A4208D2194B1B88C3F1C803164A128803
:1007C0001344FB6021E00023FB601EE0144B1A88F9
:1007D000144B1B889A4207D9114B1B881A46114BA0
:1007E0001B88D31AFB6010E00D4B1A880D4B1B8839
:1007F0009A4208D20B4B1B88C3F1C803084A1288DF
:100800001344FB6001E00023FB60FB6818461437CB
:10081000BD4680BC704700BF0C0A0020080A0020BB
:100820000E0A00200A0A002080B485B000AF0346FB
:10083000FB71FB79012B11D1144B1B885A1C91B20F
:10084000124A11801A46124B9B5CFB730F4B1B889C
:10085000C72B14D90D4B00221A8010E00D4B1B88BA
:100860005A1C91B20B4A11801A460B4B9B5CFB73CE
:10087000084B1B88C72B02D9064B00221A80FB7B32
:1008800018461437BD4680BC704700BF080A0020D8
:10089000780800200A0A00204009002080B586B0B0
:1008A00000AFF860B9607A6000237B61FB68002BC1
:1008B00012D04FF0FF3313E00B4B1B680B4A12684A
:1008C000B96810469847BB680133BB607B69013348
:1008D0007B617B68013B7B607B68002BECDC7B6988
:1008E00018461837BD4680BDFC0A0020040B0020C6
:1008F00080B586B000AFF860B9607A6000237B6194
:10090000FB68012B1ED0FB68022B1BD0FB68032B5E
:1009100018D04FF0FF3319E00E4B1A680E4B1868D1
:10092000BB68591CB9601B78194690470346002BD9
:1009300002DA4FF0FF3309E07B6901337B617B68AA
:10094000013B7B607B68002BE6D17B69184618373A
:10095000BD4680BD000B0020040B002080B483B096
:1009600000AF0346FB71084997F907305B09FA7934
:1009700002F01F02012000FA02F241F8232000BF1A
:100980000C37BD4680BC704700E100E080B483B006
:1009900000AF0346FB71094997F907305B09FA7903
:1009A00002F01F02012000FA02F2203341F8232056
:1009B00000BF0C37BD4680BC704700BF00E100E0BF
:1009C00080B483B000AF0346FB71094997F9073043
:1009D0005B09FA7902F01F02012000FA02F260338B
:1009E00041F8232000BF0C37BD4680BC704700BFD4
:1009F00000E100E080B483B000AF03463960FB71D2
:100A000097F90730002B0BDA0D49FB7903F00F0340
:100A1000043B3A68D2B21201D2B20B441A7609E012
:100A2000084997F907303A68D2B21201D2B20B44A2
:100A300083F8002300BF0C37BD4680BC704700BF61
:100A400000ED00E000E100E080B584B000AF786028
:100A5000396078682C4B9847F86078682B4B98473A
:100A60000246FB681340FB60FB68002B3CD0002370
:100A7000BB6034E0264ABB681B0113441A683B681C
:100A80009A4226D1224ABB681B01134404331A68D8
:100A9000FB681340002B1CD01D4ABB681B0113448C
:100AA0000C331B681A49BA6812010A4410681849C5
:100AB000BA6812010A440432126811469847144A6F
:100AC000BB681B01134404331B68DB43FA68134003
:100AD000FB60BB680133BB60BB68062B03D8FB68B7
:100AE000002BC7D100E000BF0A4B1B68002B07D0CA
:100AF000094B1B68002B03D0074B1B68786898478D
:100B000000BF1037BD4680BD95194000AD194000AB
:100B1000100A0020080B0020840A002080B586B04F
:100B200000AFF860B9607A603B60214B1B68062B10
:100B300001D9012338E00023FB7511E0FB7D1B0187
:100B40001C4A13443B613B691A68BB689A4204D152
:100B50003B695A687B689A4208D0FB7D0133FB757C
:100B6000FA7D134B1B689A42E8D900E000BF3B694D
:100B7000BA681A603B697A685A603B693A689A6059
:100B80003B693A6ADA60FA7D094B1B6801339A4285
:100B900004D1074B1B680133054A13603A68796832
:100BA000F868054B9847002318461837BD4680BDA6
:100BB000800A0020100A0020F118400080B500AF24
:100BC0000B210248024B984700BF80BD000E0E402B
:100BD000490A400080B500AF0C210248024B9847FB
:100BE00000BF80BD00100E40490A400080B586B0AD
:100BF00000AFF8600B467A60FB7200237B61F868F7
:100C0000134B984778614FF0FF31F868114B9847C4
:100C1000F868114B984797F90B3018460F4B9847D7
:100C200097F90B3018460E4B984797F90B307968B7
:100C300018460C4B984797F90B3018460A4B9847C3
:100C40007969F868094B984700BF1837BD4680BDE1
:100C5000AD19400079194000951940008D094000F8
:100C6000C1094000F50940005D0940005D194000E0
:100C700080B483B000AF78607B6808221A607B681C
:100C800020221A607B6804221A6000BF0C37BD4620
:100C900080BC704780B584B000AF786039600023B5
:100CA000FB607B684FF0FF329A627B681B6A786852
:100CB0000E4B984778680E4B98473B6859683B68DD
:100CC0001B681A4678680B4B98470346012B01D1E5
:100CD0000123FB603B685B7A012B02D17B684022D9
:100CE0001A60FB6818461037BD4680BDED0D400008
:100CF000710C4000F90C400080B489B000AFF8607E
:100D0000B9607A600023FB61BB68344A934201D921
:100D100001235DE0BB68324A934237D97B68314A90
:100D2000A2FB03239B0B043B7B61BA682E4B13444D
:100D30009B007A68B2FBF3F3043B3B6105E0FB697F
:100D40000133FB617B695B087B617B69FF2B09D900
:100D5000FB69062BF3D905E0FB690133FB613B69B5
:100D60005B083B613B69FF2B02D9FB69062BF3D97A
:100D70007B69DAB23B691B029BB21A43FB691B0415
:100D800003F4E0231A43FB681A6120E0BB685B00B0
:100D90007A68B2FBF3F3043BBB6105E0FB69013306
:100DA000FB61BB695B08BB61BB69FF2B02D9FB69B7
:100DB000062BF3D9BB69DAB2BB691B029BB21A439B
:100DC000FB691B0403F4E0231A43FB681A61002348
:100DD00018462437BD4680BC704700BF801A060005
:100DE00000DC0500F11976050012FD3F80B483B0E8
:100DF00000AF78607B6880221A607B681B6B00BF45
:100E00000C37BD4680BC704780B485B000AF7860B9
:100E100039600023FB607B68AC221A603B681A686B
:100E20003B685B68B2FBF3F31B09FB60FB68002BBC
:100E300003D0FB68B3F5803F01D301230FE07B684B
:100E4000FA681A623B689A687B685A607B6840F26D
:100E50000222C3F820217B6850221A600023184622
:100E60001437BD4680BC704780B483B000AF786053
:100E70007B6880221A6000BF0C37BD4680BC70477B
:100E800080B483B000AF78607B6810221A6000BF26
:100E90000C37BD4680BC704780B483B000AF78602B
:100EA0000B46FB707B685B6903F00203002B01D1EA
:100EB000012303E0FA787B68DA61002318460C37D7
:100EC000BD4680BC704700BF80B483B000AF78607F
:100ED00039607B685B6903F00103002B01D10123BA
:100EE00005E07B689B69DAB23B681A7000231846FC
:100EF0000C37BD4680BC704780B485B000AF7860C9
:100F00007B68084A934201D1074BFB607B68074A24
:100F1000934201D1064BFB60FB6818461437BD466F
:100F200080BC704700060E4000070E4000080E40CF
:100F300000090E4080B489B000AFF860B9607A60F3
:100F4000BB681A017B689A4202D81023FB6101E05A
:100F50000823FB617B68DA00FB69B96801FB03F3D6
:100F60005B081A44FB69B96801FB03F3B2FBF3F3B6
:100F7000BB61BB69DB087B61BB6903F007033B61B5
:100F80007B69002B03D07B69B3F5803F01D301233C
:100F90000FE0FB69082B05D1FB685B6843F4002276
:100FA000FB685A603B691A047B691A43FB681A6242
:100FB000002318462437BD4680BC704780B582B0F8
:100FC00000AF786078680F4B98477B6800225A60C2
:100FD0007B6800225A627B6800229A6278680A4B1A
:100FE00098477868094B98477868094B984778681C
:100FF000084B98477868084B984700BF0837BD46AC
:1010000080BD00BF49124000D110400019114000BE
:1010100049114000811140006511400080B584B045
:1010200000AFF860B9607A60F8681A4B98471A4BBD
:1010300000221A60BB68002B09D0BB681B687A6865
:101040001946F868154B98470346002B01D0012339
:101050001BE0BB685A68BB689B681A43BB681B6986
:101060001A43BB68DB681A430B4B1B6813430A4ADD
:101070001360094B1B68084A1360FB685A68064BEB
:101080001B681A43FB685A60002318461037BD4698
:1010900080BD00BFBD0F4000880A0020350F400012
:1010A00080B483B000AF78607B6840221A6000BFD4
:1010B0000C37BD4680BC704780B483B000AF786009
:1010C0007B6880221A6000BF0C37BD4680BC704729
:1010D00080B483B000AF78607B6888221A6000BF5C
:1010E0000C37BD4680BC704780B483B000AF7860D9
:1010F0007B6810221A6000BF0C37BD4680BC704769
:1011000080B483B000AF78607B6820221A6000BF93
:101110000C37BD4680BC704780B483B000AF7860A8
:101120007B6824221A6000BF0C37BD4680BC704724
:1011300080B483B000AF78607B685B6918460C3779
:10114000BD4680BC704700BF80B483B000AF7860FC
:101150007B684FF480721A6000BF0C37BD4680BCBC
:10116000704700BF80B483B000AF78607B684FF4F5
:1011700000321A6000BF0C37BD4680BC704700BF0C
:1011800080B483B000AF78607B684FF400221A60AF
:1011900000BF0C37BD4680BC704700BF80B483B031
:1011A00000AF786039607B685B6903F00203002B55
:1011B00001D1012305E03B68C3F308027B68DA61D3
:1011C000002318460C37BD4680BC704780B483B0FE
:1011D00000AF786039607B685B6903F00103002B26
:1011E00001D1012306E07B689B69C3F308023B68D9
:1011F0001A60002318460C37BD4680BC704700BFFC
:1012000080B485B000AF78600023FB607B680A4A39
:10121000934203D1094BFB60FB6808E07B68084AF6
:10122000934203D1074BFB60FB6800E0FB68184664
:101230001437BD4680BC7047004002400041024068
:10124000008002400081024080B483B000AF78602B
:101250007B68044AC3F8E42000BF0C37BD4680BC5D
:10126000704700BF0041535580B582B000AF786031
:101270007B68072B31D801A252F823F0D912400025
:101280009D124000A5124000AD124000B512400072
:10129000BD124000C5124000CF1240000020114B8B
:1012A00098471AE001200F4B984716E000200E4B9C
:1012B000984712E010200C4B98470EE020200A4B74
:1012C00098470AE03E210020084B984705E03E2160
:1012D0000120064B984700E000BF00BF0837BD461D
:1012E00080BD00BFD51D4000411E4000B11E400022
:1012F00080B582B000AF78607B68072B26D801A24A
:1013000052F823F025134000291340002913400010
:101310003B1340003B1340003B1340003B13400095
:101320003B134000012312E00B4B98470346002B70
:1013300014BF01230023DBB209E0084B98470346A2
:10134000002B14BF01230023DBB200E0002318466A
:101350000837BD4680BD00BF0D1E4000291F40005C
:1013600080B483B000AF78607B68072B25D801A2DA
:1013700052F823F0951340009B134000A113400046
:10138000A7134000AB134000AF134000B31340005D
:10139000B71340004FF4FA4310E04FF400430DE060
:1013A0004FF400430AE0084B08E0084B06E0084B06
:1013B00004E0074B02E0064B00E0002318460C3720
:1013C000BD4680BC704700BF00093D0000127A0096
:1013D000001BB70080B582B000AF0346FB7100BFB1
:1013E000FB791846054B9847034683F00103DBB2AF
:1013F000002BF5D100BF0837BD4680BDF11240007B
:1014000080B586B000AFF8607A603B600B46FB7237
:10141000FB7A18460D4B984702467B68B2FBF3F304
:101420007B617B693A6802FB03F37B613B68013BAC
:101430001A04074B13407A68D2B2134343F47C5228
:10144000FB681A6000BF1837BD4680BD61134000BD
:101450000000FF0780B582B000AF786039603B685C
:10146000002B08D1094B9847094A7B681B6843F059
:101470000053936205E0074B9847054A7B681B6859
:10148000D36200BF0837BD4680BD00BF411F40008A
:1014900000040E40711F400080B582B000AF78603C
:1014A0007B68002B03D1054B9847034602E0044BB1
:1014B0009847034618460837BD4680BD591F40006F
:1014C000891F400080B582B000AF0346FB71FB79F5
:1014D000033B042B08D8FB791846064B9847FB7949
:1014E0001846054B984700E000BF00BF0837BD46CF
:1014F00080BD00BF69124000D513400080B582B0A6
:1015000000AF786000BF7868044B98470346002B13
:10151000F9D0002318460837BD4680BD9914400015
:1015200080B500AF0620044B9847024613469B0047
:1015300013449B00184680BD6113400080B500AF86
:10154000024B984703465B08184680BD21154000B2
:1015500090B583B000AF1148114B98470620114B4E
:101560009847381D1423012206210F4CA0473B1D2C
:10157000002118460D4B984700200D4B984710202E
:101580000C4B98470C4B98470C4B98470346184612
:10159000034B984700BF0C37BD4690BD000E270790
:1015A00029244000C5144000011440005514400097
:1015B000FD144000551D40008D2240003D154000A7
:1015C00080B485B000AFF860B9607A60BB68002B6A
:1015D00007D0BB681A68FB689A60BB685A68FB68EA
:1015E000DA607B68002B07D07B681A68FB689A6119
:1015F0007B685A68FB68DA6100BF1437BD4680BC5F
:10160000704700BF80B485B000AFF860B9607A6001
:10161000BB68002B07D0BB681A68FB681A60BB6800
:101620005A68FB685A607B68002B07D07B681A6891
:10163000FB681A617B685A68FB685A6100BF1437FF
:10164000BD4680BC704700BF80B483B000AF7860F7
:1016500039603A6840F2011313407A68136200BFA0
:101660000C37BD4680BC704780B483B000AF786053
:101670007B685B6818460C37BD4680BC704700BF6E
:1016800080B483B000AF78607B685B6918460C3724
:10169000BD4680BC704700BF80B485B000AFF86025
:1016A000B9607A607B68002B03D0FB68BA685A6621
:1016B00002E0FB68BA681A6600BF1437BD4680BCFA
:1016C000704700BF80B485B000AFF860B9607A6041
:1016D000FB68BA68C3F884207B685B004FF4004263
:1016E000B2FBF3F3013BC3F30D02FB68C3F88C209C
:1016F00000BF1437BD4680BC704700BF80B487B0C0
:1017000000AFF860B9607A60FB687A685A64BB68B9
:10171000B3F1C05F4AD0B3F1C05F08D8B3F1006F36
:1017200016D0B3F1805F2CD0002B69D064E0B3F108
:10173000205F65D0B3F1205F03D8B3F1005F4AD0DA
:101740005AE0B3F1405F5BD0B3F1605F58D053E033
:10175000FB681B6F7B61FB681A6F7B68D9437B69F1
:101760000B401A40FB681A67FB685B6F7B61FB6884
:101770005A6F7B68D9437B690B401A40FB685A67F4
:101780003AE0FB681B6F7B617A687B691A43FB68F0
:101790001A67FB685B6F7B61FB685A6F7B68D94394
:1017A0007B690B401A40FB685A6725E0FB681B6F9A
:1017B0007B61FB681A6F7B68D9437B690B401A40D9
:1017C000FB681A67FB685B6F7B617A687B691A4309
:1017D000FB685A6710E0FB681B6F7B617A687B6966
:1017E0001A43FB681A67FB685B6F7B617A687B69E9
:1017F0001A43FB685A6700BFFB687A685A6000E0CA
:1018000000BF1C37BD4680BC704700BF80B584B0A8
:1018100000AFF860B9607A60B968F868194B98470A
:101820007B6803F001031A46B968F868164B9847BD
:101830007B6803F00A03002B03D0FB68BA681A62C6
:1018400002E0FB68BA685A627B6803F00203002B6F
:1018500004D0FB68BA68C3F8802008E07B6803F016
:101860000803002B03D0FB68BA68C3F88420FB6828
:10187000BA685A61FB68BA681A6000BF1037BD4683
:1018800080BD00BF791940009916400080B584B032
:1018900000AFF860B9607A603B60B968F868124BD5
:1018A0009847BA69B968F868104B98473B68002BAD
:1018B00003D0FB68BA681A6502E0FB68BA685A652B
:1018C0007B68002B03D0FB68BA681A6302E0FB68F0
:1018D000BA685A63FB68BA681A61FB68BA681A602A
:1018E00000BF1037BD4680BD7919400099164000F1
:1018F00080B485B000AFF860B9607A607B6803F0AF
:101900001003002B20D0FB68BA68C3F8B0207B68B6
:1019100003F02003002B04D0FB68BA68C3F8D4207E
:1019200003E0FB68BA68C3F8D0207B6803F040038B
:10193000002B04D0FB68BA68C3F8C02008E0FB683D
:10194000BA68C3F8C42003E0FB68BA68C3F8B420DF
:1019500000BF1437BD4680BC704700BF80B483B061
:1019600000AF786039607B683A681A6400BF0C3752
:10197000BD4680BC704700BF80B483B000AF7860C4
:1019800039607B683A685A6400BF0C37BD4680BC3A
:10199000704700BF80B483B000AF78607B68DB6CB9
:1019A00018460C37BD4680BC704700BF80B483B07A
:1019B00000AF78607B689B6C18460C37BD4680BCD6
:1019C000704700BF80B584B000AF78607868084B7E
:1019D0009847F860FB68DA6B7B6803F01F0322FA14
:1019E00003F303F0010318461037BD4680BD00BF66
:1019F000311D400080B584B000AF78607868084B36
:101A00009847F8607B6803F01F03012202FA03F392
:101A10001A46FB681A6300BF1037BD4680BD00BF81
:101A2000311D400080B584B000AF78607868084B05
:101A30009847F8607B6803F01F03012202FA03F362
:101A40001A46FB685A6300BF1037BD4680BD00BF11
:101A5000311D400090B587B002AF7860396078687A
:101A6000634B9847F8603B6803F0F043B3F1005FC5
:101A700067D0B3F1005F09D8B3F1805F2BD0B3F129
:101A8000C05F43D0B3F1006F0AD0A9E0B3F1405F6B
:101A90007ED0B3F1605F7BD0B3F1205F6CD09FE06C
:101AA0007B6803F01F03012202FA03F31A464FF08A
:101AB0000061F8684F4B98477B6803F01F030122D1
:101AC00002FA03F319463B6803F001031A46F8686B
:101AD000494B984786E07B6803F01F03012202FA16
:101AE00003F31A464FF08051F868424B98477B68E1
:101AF00003F01F03012202FA03F319463B6803F0C7
:101B000001031A46F8683C4B98476BE07B6803F08A
:101B10001F03012202FA03F31A464FF0C051F8687E
:101B2000344B98477B6803F01F03012202FA03F34A
:101B300019463B6803F001031A46F8682E4B984794
:101B400050E07B6803F01F03012202FA03F31A46F8
:101B50004FF00051F868274B98477B6803F01F034C
:101B6000012202FA03F319463B6803F001031A4607
:101B7000F868214B984735E07B6803F01F0301228A
:101B800002FA03F33A681946F8681C4B984729E0B3
:101B90007B6803F01F03012202FA03F319463B6836
:101BA00003F06053B3F1605F0CBF01230023DBB28D
:101BB0001A463B6803F00403002B14BF01230023E3
:101BC000DBB218463B6803F00103002B14BF01236E
:101BD0000023DBB200930346F868094CA04701E0FC
:101BE000002300E0012318461437BD4690BD00BF16
:101BF000311D4000FD164000991640000D184000B0
:101C00008D18400090B587B002AFF860B9607A6077
:101C10007B6803F0F043B3F1005F43D0B3F1005FA2
:101C200009D8B3F1805F1FD0B3F1C05F2BD0B3F1FF
:101C3000006F0AD06DE0B3F1405F48D0B3F1605F50
:101C400045D0B3F1205F3CD063E0BA684FF000614B
:101C5000F868334B98477B6803F001031A46B9686C
:101C6000F868304B984756E0BA684FF08051F868F2
:101C70002B4B98477B6803F001031A46B968F86854
:101C8000284B984747E0BA684FF0C051F868244B9A
:101C900098477B6803F001031A46B968F868214B3E
:101CA000984738E0BA684FF00051F8681C4B9847E5
:101CB0007B6803F001031A46B968F868194B984726
:101CC00029E07A68B968F868174B984723E07B6881
:101CD00003F06053B3F1605F0CBF01230023DBB25C
:101CE0001A467B6803F00403002B14BF0123002372
:101CF000DBB219467B6803F00103002B14BF0123FC
:101D00000023DBB200930B46B968F868074CA04784
:101D100001E0002300E0012318461437BD4690BDC2
:101D2000FD164000991640000D1840008D18400027
:101D300080B485B000AF78607B685B0903F5001361
:101D400003F207735B02FB60FB6818461437BD465D
:101D500080BC704780B485B000AF78601C491C4BD4
:101D60001B6B23F070027B6813430B634FF400631B
:101D7000FB6007E0FB68002B01D1012323E0FB6837
:101D8000013BFB60124B9B6E03F00803002BF1D06C
:101D90000F4A0F4B1B6B23F0030343F00203136343
:101DA0004FF40063FB6007E0FB68002B01D10123C7
:101DB00009E0FB68013BFB60054B9B6E03F00803E9
:101DC000002BF1D0002318461437BD4680BC704765
:101DD00000040E4080B483B000AF78607B68012BB4
:101DE00007D1084A074B9B6843F0254343F480130F
:101DF0009360044B044A1A6000BF0C37BD4680BC98
:101E0000704700BF10140E40080000A580B400AF5A
:101E1000094B5B6903F08003002B07D0074B9B6ED7
:101E200003F08003002B01D0012300E000231846BB
:101E3000BD4680BC704700BF10140E4000040E4029
:101E400080B483B000AF7860184A184B1B6A43F423
:101E50005C1343F00803136200BF144B9B6E03F442
:101E60000033002BF9D01149104B1B6A23F45C138B
:101E700023F070037A68134343F45C130B6200BFD2
:101E80000A4B9B6E03F40033002BF9D0074A074B33
:101E90001B6A23F09B7323F4803343F45C131362B7
:101EA00000BF0C37BD4680BC704700BF00040E4029
:101EB00080B483B000AF786039607B68002B08D0B5
:101EC0001649164B1B6A164A1A40164B13430B62EF
:101ED0001EE01249114B1B6A23F45C1323F0030329
:101EE0003A68120292B2134343F45C1343F00103C5
:101EF0000B6200BF094B9B6E03F00103002BF9D06E
:101F0000064A064B1B6A43F09B7343F4803313620B
:101F100000BF0C37BD4680BC704700BF00040E40B8
:101F2000FCFFC8FE0200370180B400AF034B9B6E7C
:101F300003F480331846BD4680BC704700040E4051
:101F400080B400AF034B4FF000529A6200BFBD4611
:101F500080BC704700040E4080B400AF034B9B6E02
:101F600003F002031846BD4680BC704700040E40D3
:101F700080B400AF034B0022DA6200BFBD4680BCD4
:101F8000704700BF00040E4080B400AF034B9B6E4F
:101F900003F004031846BD4680BC704700040E40A1
:101FA00080B483B000AF78607B68222B01D9012315
:101FB0002FE07B681F2B13D8184B9A6901217B688F
:101FC00001FA03F31A4001217B6801FA03F39A42F4
:101FD0001ED0124A01217B6801FA03F3136117E056
:101FE0007B68203B7B600D4BD3F8082101217B6887
:101FF00001FA03F31A4001217B6801FA03F39A42C4
:1020000006D0064A01217B6801FA03F3C2F80031C9
:10201000002318460C37BD4680BC704700040E40B4
:1020200080B483B000AF0346FB71084997F90730CD
:102030005B09FA7902F01F02012000FA02F241F86E
:10204000232000BF0C37BD4680BC704700E100E094
:1020500080B582B000AF78607868034B984700BFC6
:102060000837BD4680BD00BFA11F400080B500AF4E
:102070000B20034B98470C20014B984700BF80BDB5
:102080005120400090B583B002AF3E4B4FF4004268
:102090005A603D4B98474FF000624FF4C0613B4897
:1020A0003B4B98474FF000620C213A48384B984719
:1020B0004FF0006260213548354B98474FF0006281
:1020C0004FF4C0013148324B98474FF0006218215D
:1020D0002E482F4B98470B202F4B98470C202E4B08
:1020E00098474FF040510D202C4B98474FF04051EE
:1020F0000E202A4B98474FF040511820274B984705
:102100004FF040511020254B984725492020234B64
:10211000984723492120214B9847214922201F4BD2
:1021200098471F4923201D4B98471D4913201B4BDF
:1021300098474FF020511420184B98470A2200214D
:102140001248184B98470A2200211248154B98470D
:10215000154B00931C234FF480120B210B48134C9A
:10216000A0470B20124B984700220B210748114B28
:1021700098474FF4801105480F4B984700BF04372C
:10218000BD4690BD50140E406D204000000E0E4024
:10219000051C400000100E40A11F4000551A4000D1
:1021A0000C000028C51640006D2840001D0B4000A3
:1021B00021204000ED0B40005D19400080B584B047
:1021C00000AF274BFB60274BBB60FA68BB689A42A5
:1021D0000DD907E0BB681A1DBA60FA68111DF960D5
:1021E00012681A60BB68204A9342F3D320E0FA6871
:1021F000BB689A421CD21C4A1A4BD31A7B60FA68FD
:102200007B681344043BFB60BA687B681344043B5F
:10221000BB600AE0BB681A1FBA60FA68111FF96058
:1022200012681A607B68043B7B607B68002BF1D1ED
:1022300000BF0E4BBB6004E0BB681A1DBA600022F1
:102240001A60BB680A4A9342F6D30A4BFB600A4AFB
:10225000FB689360094B9847094B9847FEE700BF1E
:1022600004534000000000205C0800205C080020AF
:10227000300E00200000400000ED00E03D42400034
:10228000D526400080B400AFFEE700BF80B400AFA9
:102290005D4B1B6B03F00303032B00F2968001A23E
:1022A00052F823F0B5224000D52240001F23400001
:1022B0001F234000554B5B6903F08003002B04D0C3
:1022C000534B4FF400421A6080E0514B4FF4FA42F6
:1022D0001A607BE04C4B1B6A03F08073002B03D029
:1022E0004B4B4C4A1A6071E0494B4B4A1A60464BC3
:1022F0001B6A03F07003102B08D0202B0AD0002B90
:1023000000D00BE0424B444A1A6007E0404B434A7E
:102310001A6003E03E4B3F4A1A6000BF56E03A4B5A
:102320001B6A03F08073002B03D0394B394A1A60C3
:1023300019E0374B384A1A60334B1B6A03F07003BD
:10234000102B08D0202B0AD0002B00D00BE0304BF4
:10235000314A1A6007E02E4B304A1A6003E02C4BDA
:102360002C4A1A6000BF284B1B6B03F00303022B9F
:1023700015D1254B9A6A2A4B13401B0C0133244A72
:10238000126802FB03F3224A13601F4B9B6ADBB205
:102390001F4A1268B2FBF3F31D4A136016E01A4B92
:1023A000DA6A1F4B13401B0C0133194A126802FBF7
:1023B00003F3174A1360144BDB6ADBB2144A12684A
:1023C000B2FBF3F3124A136000E000BF0E4B1B6B2D
:1023D00003F07003702B08D10D4B1B68114AA2FB50
:1023E00003235B080A4A13600AE0074B1B6B03F0E8
:1023F00070031B09064A126822FA03F3044A1360A9
:1024000000BFBD4680BC704700040E4010140E4053
:102410000C000020001BB70000093D0000127A00EC
:102420000000FF07ABAAAAAA80B483B000AF78600F
:102430007B68184A934204D8174B4FF080621A60A9
:1024400023E07B68154A934203D8134B144A1A6061
:102450001BE07B68134A934203D80F4B124A1A6061
:1024600013E07B68114A934203D80B4B104A1A6061
:102470000BE07B680F4A934204D8074B4FF00422CD
:102480001A6002E0044B0C4A1A6000BF0C37BD46CC
:1024900080BC7047FF2C3101000A0E40FF596202D8
:1024A00000010004FF86930300020004FFB3C4048C
:1024B00000030004FFE0F5050005000480B485B0CA
:1024C00000AF7860104BFB60104B1B68002B02D1F3
:1024D0000E4B0F4A1A600D4B1B68BB60BA687B68D5
:1024E0001A44FB689A4202DD4FF0FF3306E0074BC7
:1024F0001A687B681344054A1360BB681846143792
:10250000BD4680BC704700BFFC7F02208C0A0020C3
:10251000303E002080B483B000AF78604FF0FF33CE
:1025200018460C37BD4680BC704700BF80B483B0EE
:1025300000AF786039603B684FF400525A60002366
:1025400018460C37BD4680BC704700BF80B485B0CC
:1025500000AFF860B9607A60002318461437BD46B2
:1025600080BC704780B483B000AF03463960FB7114
:1025700097F90730002B0BDA0D49FB7903F00F03B5
:10258000043B3A68D2B21201D2B20B441A7609E087
:10259000084997F907303A68D2B21201D2B20B4417
:1025A00083F8002300BF0C37BD4680BC704700BFD6
:1025B00000ED00E000E100E080B582B000AF78609F
:1025C0007B68013BB3F1807F01D301230FE00A4A0E
:1025D0007B68013B53600F214FF0FF30074B98475A
:1025E000054B00229A60044B07221A60002318460C
:1025F0000837BD4680BD00BF10E000E06525400003
:1026000080B483B000AF78607B68072B25D801A227
:1026100052F823F0352640003B264000412640007A
:10262000472640004B2640004F26400053264000DE
:10263000572640004FF4FA4310E04FF400430DE0FA
:102640004FF400430AE0084B08E0084B06E0084B53
:1026500004E0074B02E0064B00E0002318460C376D
:10266000BD4680BC704700BF00093D0000127A00E3
:10267000001BB70080B500AF0620044B9847024608
:1026800013469B0013449B00184680BD0126400062
:1026900080B500AF024B984703465B08184680BDE3
:1026A0007526400080B500AF024B984703465B0893
:1026B000184680BD7526400080B582B000AF7860B6
:1026C0007868034B984700BF0837BD4680BD00BF00
:1026D000A11F40002DE9B04F84B000AF0023FB8163
:1026E0000023BB604FF000037B604FF000033B60B2
:1026F000404B9847404B98470320404B9847182041
:102700003F4B98473F4B9847034618464FF0000110
:1027100002460B464FEA830B4BEA927B4FEA820A52
:1027200052465B465D0145EAD2655401A41A65EB49
:102730000305241845EB01054FEA850949EA947918
:102740004FEA840844464D4621462A4643F2AF6389
:102750004FF0000411EB030842EB040940464946E0
:10276000294C43F2B0624FF00003A04703460C46E9
:102770001846264B9847264B9847CD2200212548DE
:10278000254B9847CD2200212448234B9847CA2245
:1027900000212348204B9847224B00221A70214BDE
:1027A00000225A701F4B00229A701F4B00221A7091
:1027B0001D4B00225A701C4B00229A701B4B9847ED
:1027C0001B4B984701201B4B98470346052B02D90A
:1027D0000120194B98470220164B98470346052BBA
:1027E00002D90220144B9847144B9847144B984732
:1027F000E4E700BF5115400085204000A12F4000B4
:10280000251A400091264000253F4000010000208D
:10281000A5284000DC0B00208D4240000C0B00205E
:10282000440D0020200E0020180E0020AD064000B0
:10283000F93A40007D074000D92940009D2E400014
:102840001130400080B400AF064B1B680133054ACD
:102850001360054B1B680133034A136000BFBD467C
:1028600080BC7047AC0A0020A40A002080B582B06A
:1028700000AF786039607B680B2B0AD13B68B3F5F9
:10288000801F06D10320054B98471820044B98471A
:10289000FEE700BF0837BD4680BD00BFA12F400046
:1028A000251A400080B500AF044B9847044B984769
:1028B000044B9847044B984700BF80BD5529400002
:1028C0007D054000CD2840001D29400080B584B022
:1028D00000AF0C4B984703467B600B4BBB6000235B
:1028E0003B7300237B731320084B98470848094B20
:1028F00098473B1D19460648074B984700BF1037BD
:10290000BD4680BDA5264000A0860100B926400036
:1029100000800140710C4000950C400080B582B0F1
:1029200000AF094B98470246084BA3FB02239B09C3
:102930001846074B984778607B68002B00D0FEE76D
:1029400000BF0837BD4680BD91264000D34D6210C0
:10295000B9254000B0B586B000AF154B3C461D46CA
:102960000FCD0FC495E8030084E803000F20114B3E
:102970009847114B984702463B4619460F48104B63
:1029800098470E480F4B98470C480F4B98470B48F9
:102990000E4B984702460E4B1A600D4B1B684FF4C6
:1029A000807118460B4B984700BF1837BD46B0BD25
:1029B000B8524000B9264000A526400000800240E1
:1029C0001D10400001114000A11040000112400004
:1029D000280E00204916400080B584B000AF0346A1
:1029E000FB710023FB7314E0FB7918460C4B9847EE
:1029F0000346002B0AD0FB7918460A4B984703463A
:102A00001A46FB7911461846074B9847FB7B013362
:102A1000FB73FB7B042BE7D900BF1037BD4680BD9D
:102A20007D074000290840002D2A400080B582B073
:102A300000AF03460A46FB711346BB71FB79012BBD
:102A400040F0E480A04B1B78052B00F29C8101A292
:102A500052F823F06D2A4000832A4000B32A400038
:102A6000D52A4000FF2A40006D2B4000BB79012B86
:102A700040F08281944B01221A70934B01225A70CC
:102A80007AE197F90630002B0FDABB7903F00103E6
:102A9000002B0AD08C4B02221A708B4B5A78BB79D0
:102AA0001344DAB2884B5A706DE1874B00221A70DA
:102AB00069E1854ABB791371834B03221A70824BFB
:102AC0005A78BB791344DAB27F4B5A707E4B03229B
:102AD000DA7058E1BB797E2B0DD87C4ABB79137034
:102AE000794B04221A70784B5A78BB791344DAB2C6
:102AF000754B5A7047E1744B00221A7043E1724BD8
:102B00005B78BA799A422DD16F4B1B791946704880
:102B1000704B9847704B1B78002B09D06A4B1B7980
:102B200018466E4B984700216D486A4B984712E053
:102B3000654B1B791846694B98470346002B06D016
:102B4000614B1B7919466648624B984703E00021A8
:102B50006348604B98475C4B05221A705A4B002221
:102B60009A7010E1584B00221A700CE1564B9B787A
:102B70000133DAB2544B9A70534B9A78524BDB784C
:102B80009A4229D1BB7919465148524B9847524B2A
:102B90001B78002B08D0BB791846504B9847002172
:102BA0004F484C4B984710E0BB7918464B4B984721
:102BB0000346002B05D0BB7919464948454B984739
:102BC00003E000214648434B98473F4BDB780533F1
:102BD000DAB23D4BDA70D1E03B4B9B78042B03D14A
:102BE0003A4ABB795370C9E0374B9B78092B03D124
:102BF000364ABB799370C1E0334B9B78782B40F019
:102C0000BD80314B00221A7000BFB7E0354B1B78F6
:102C1000052B00F2B88001A252F823F0352C4000B9
:102C20004B2C40007B2C40009D2C4000ED2C4000A4
:102C3000192D4000BB79012B40F0A280294B0122C5
:102C40001A70284B01225A709AE097F90630002B2F
:102C50000FDABB7903F00103002B0AD0214B0222CB
:102C60001A70204B5A78BB791344DAB21D4B5A7054
:102C700089E01C4B00221A7085E01A4ABB79137157
:102C8000184B03221A70174B5A78BB791344DAB2E7
:102C9000144B5A70134B0322DA7074E0BB797E2B0D
:102CA0000DD8114ABB7913700E4B04221A700D4BCC
:102CB0005A78BB791344DAB20A4B5A7063E0094B75
:102CC00000221A705FE000BF200E0020DC0B002005
:102CD000DF0B0020CD014000900A0020A12D400014
:102CE000440D0020180E00200C0B0020284B5B78B0
:102CF000BA799A420CD1264B1B7919462548264BA6
:102D00009847234B05221A70214B00229A703AE013
:102D10001F4B00221A7036E01D4B9B780133DAB24C
:102D20001B4B9A701A4B9A78194BDB789A420BD14D
:102D3000BB7919461748184B9847154BDB78053374
:102D4000DAB2134BDA701DE0114B9B78042B03D1E0
:102D5000124ABB79537015E00D4B9B78092B03D1B8
:102D60000E4ABB7993700DE0094B9B78782B09D103
:102D7000074B00221A7005E000BF04E000BF02E02C
:102D800000BF00E000BF00BF0837BD4680BD00BFE8
:102D9000180E00200F0B0020CD0140000C0B00206E
:102DA00080B485B000AF0346FB71354B1A78FB79D0
:102DB000D31ADBB2FB73334B1B78002B3CD097F953
:102DC0000F30002B34DD304B1B780133DAB22E4B41
:102DD0001A702D4B1B78012B47D92C4B1B78002BDD
:102DE00002D12A4B01221A70264B00221A70264B60
:102DF00000221A70264B1A68254B5B681A44244B34
:102E00009B681A44234B1B6813449B08224A136097
:102E10001F4B5B681E4A13601D4B9B681C4A536026
:102E20001C4B1B681A4A93601A4B00221A601CE064
:102E3000154B00221A7018E097F90F3013F1020FAA
:102E400010DA114B1B780133DAB20F4B1A700E4BAC
:102E50001B78012B09D90B4B01221A700A4B002257
:102E60001A7002E0084B00221A70054AFB791370B1
:102E7000064B1B7818461437BD4680BC704700BF10
:102E8000910A0020920A0020B40A0020900A002033
:102E9000940A0020A40A0020A00A002080B485B073
:102EA00000AF0023FB814FF00003BB60344B1B7865
:102EB000002B60D0334B1B78042B59D801A252F859
:102EC00023F000BFD92E40001D2F4000252F4000C9
:102ED000472F4000632F40002B4B1A682B4B1B6879
:102EE000D31A2B4A13602A4B1B6842F2107293428A
:102EF00006D9274B00221A60214B00221A703AE0B3
:102F0000244B00221A60214B1B68214A13601D4B81
:102F100002221A70204B01221A702CE0194B032256
:102F20001A7028E01B4B1A68194B1B689A4221D370
:102F3000194B1A78134B1A70164B00221A60144B57
:102F400000221A6016E0134B00221A60134B1B6814
:102F50000F4A13600B4B02221A700F4B04221A7097
:102F600009E0084B00221A70054B00221A7002E09B
:102F700000BF00E000BF00BF1437BD4680BC7047F3
:102F8000900A0020A80A0020A00A00201C000020AF
:102F9000B00A0020AC0A0020100000201800002019
:102FA00080B582B000AF0346FB71FB79032B27D8B5
:102FB00001A252F823F000BFC92F4000D72F4000D4
:102FC000E52F4000F32F40000D200F4B98470E20B7
:102FD0000D4B984714E00D200B4B98470E200B4BE0
:102FE00098470DE00D20094B98470E20064B984757
:102FF00006E00D20054B98470E20044B984700BF74
:1030000000BF0837BD4680BD251A4000F5194000B5
:1030100080B582B000AFA648A64B9847034603F0A0
:103020001003002B00F027850023FB71A248A34B5F
:1030300098470346192B01D90123FB71A0489F4BE8
:1030400098470346192B40F217859E489B4B98479B
:103050000346192B40F210859B4B24221A709A4B81
:1030600031225A709648994B984703461A46964B18
:103070009A709448954B984703461A46924BDA70DB
:10308000FB79002B07D08C48904B984703461A4693
:103090008D4B1A7102E08C4B00221A7105218A486F
:1030A0008B4B984703461A46874B5A71864B24220E
:1030B0009A71884B1A78844BDA718148834B984710
:1030C00003461A46804B1A727E48804B9847034647
:1030D0001A467D4B5A72FB79002B07D076487B4B02
:1030E000984703461A46784B9A7202E0764B0022C4
:1030F0009A7205217848764B984703461A46724BD8
:10310000DA72714B24221A73724B5A786E4B5A73CF
:103110006B486E4B984703461A466B4B9A73694847
:103120006A4B984703461A46674BDA73FB79002BC4
:1031300007D06148654B984703461A46624B1A749C
:1031400002E0614B00221A7405216448604B9847E5
:1031500003461A465C4B5A745B4B24229A745D4BAF
:103160009A78594BDA745648584B984703461A4692
:10317000554B1A755348554B984703461A46524BC0
:103180005A75FB79002B07D04B48504B98470346A4
:103190001A464D4B9A7502E04B4B00229A75052159
:1031A0004F484B4B984703461A46474BDA75464BF8
:1031B00024221A764B4B1A78434B5A764048434B9D
:1031C000984703461A46404B9A763E483F4B9847ED
:1031D00003461A463C4BDA76FB79002B07D036487B
:1031E0003A4B984703461A46374B1A7702E0364B5C
:1031F00000221A7705213C48354B984703461A466A
:10320000314B5A77304B24229A77364B5A782E4BD3
:10321000DA772B482D4B984703461A462A4B83F8FA
:1032200020202848294B984703461A46264B83F806
:103230002120FB79002B08D01F48244B98470346D8
:103240001A46214B83F8222003E01F4B002283F80B
:103250002220052125481E4B984703461A461A4B43
:1032600083F82320184B242283F824201D4B9A78BE
:10327000154B83F825201248144B984703461A46ED
:10328000114B83F826200F48104B984703461A46E7
:103290000D4B83F82720FB79002B29D006480B4BD8
:1032A000984703461A46084B83F8282024E000BFBD
:1032B00000800240311140000F0B00202901400026
:1032C000DF0B0020440D0020AC0C00208D014000DD
:1032D000B93A4000DC0B0020B20C0020B80C0020F2
:1032E000BE0C00200C0B0020C40C0020CA0C0020D7
:1032F000AB4B002283F828200521AA48AA4B984707
:1033000003461A46A64B83F82920A54B242283F8AE
:103310002A20A34B302283F82B20A448A44B9847A3
:1033200003461A469E4B83F82C20A248A04B984790
:1033300003461A469A4B83F82D20FB79002B08D0C0
:103340009D489B4B984703461A46954B83F82E2081
:1033500003E0934B002283F82E2005219748924BDF
:10336000984703461A468E4B83F82F208C4B242215
:1033700083F830208A4B302283F831208B488C4BE5
:10338000984703461A46864B83F832208948884B73
:10339000984703461A46824B83F83320FB79002B6B
:1033A00008D08548824B984703461A467C4B83F8E1
:1033B000342003E07A4B002283F834200521804832
:1033C000794B984703461A46754B83F83520744B62
:1033D000242283F83620724B302283F8372073483A
:1033E000734B984703461A466D4B83F83820714853
:1033F0006F4B984703461A46694B83F83920FB798F
:10340000002B08D06C486A4B984703461A46644B19
:1034100083F83A2003E0624B002283F83A2005212A
:103420006848614B984703461A465D4B83F83B203A
:103430005B4B242283F83C20594B302283F83D20FB
:103440005A485B4B984703461A46554B83F83E2033
:103450005848574B984703461A46514B83F83F202C
:10346000FB79002B08D05448514B984703461A4625
:103470004B4B83F8402003E0494B002283F8402067
:1034800005215148484B984703461A46444B83F858
:103490004120434B242283F84220414B302283F8C1
:1034A00043204248424B984703461A463C4B83F818
:1034B000442040483E4B984703461A46384B83F811
:1034C0004520FB79002B08D03B48394B98470346F1
:1034D0001A46334B83F8462003E0314B002283F831
:1034E000462005213948304B984703461A462C4B55
:1034F00083F847202A4B242283F84820284B302287
:1035000083F8492029482A4B984703461A46244BFA
:1035100083F84A202748264B984703461A46204BF3
:1035200083F84B20FB79002B08D02348204B984789
:1035300003461A461A4B83F84C2003E0184B00222E
:1035400083F84C2005212248174B984703461A461A
:10355000134B83F84D20124B242283F84E20104B3E
:10356000302283F84F201148114B984703461A46E2
:103570000B4B83F850200F480D4B984703461A46D3
:10358000074B83F85120FB79002B23D00A48084BC6
:10359000984703461A46024B83F852201EE000BFAC
:1035A000AC0C0020D00C0020B93A4000DF0B00200A
:1035B0008D014000440D00200F0B0020D60C002090
:1035C000DC0C0020E20C0020E80C0020EE0C0020B7
:1035D000F40C0020AB4B002283F852200521AA48AE
:1035E000AA4B984703461A46A64B83F85320A54B8F
:1035F000242283F85420A34B302283F85520A4487A
:10360000A44B984703461A469E4B83F85620A2487F
:10361000A04B984703461A469A4B83F85720FB79EC
:10362000002B08D09D489B4B984703461A46954B64
:1036300083F8582003E0934B002283F8582005219B
:103640009748924B984703461A468E4B83F8592069
:103650008C4B242283F85A208A4B302283F85B203B
:103660008B488C4B984703461A46864B83F85C2060
:103670008948884B984703461A46824B83F85D2059
:10368000FB79002B08D08548824B984703461A46A1
:103690007C4B83F85E2003E07A4B002283F85E20A7
:1036A00005218048794B984703461A46754B83F8A5
:1036B0005F20744B242283F86020724B302283F801
:1036C00061207348734B984703461A466D4B83F845
:1036D000622071486F4B984703461A46694B83F83E
:1036E0006320FB79002B08D06C486A4B984703464F
:1036F0001A46644B83F8642003E0624B002283F88F
:10370000642005216848614B984703461A465D4B83
:1037100083F865205B4B242283F86620594B3022C6
:1037200083F867205A485B4B984703461A46554B27
:1037300083F868205848574B984703461A46514B20
:1037400083F86920FB79002B08D05448514B9847E7
:1037500003461A464B4B83F86A2003E0494B00228C
:1037600083F86A2005215148484B984703461A467A
:10377000444B83F86B20434B242283F86C20414B4D
:10378000302283F86D204248424B984703461A4640
:103790003C4B83F86E2040483E4B984703461A4600
:1037A000384B83F86F20FB79002B08D03B48394B0E
:1037B000984703461A46334B83F8702003E0314B99
:1037C000002283F8702005213948304B9847034682
:1037D0001A462C4B83F871202A4B242283F872203E
:1037E000284B302283F8732029482A4B98470346F8
:1037F0001A46244B83F874202748264B98470346E3
:103800001A46204B83F87520FB79002B08D02348FB
:10381000204B984703461A461A4B83F8762003E05C
:10382000184B002283F8762005212248174B984731
:1038300003461A46134B83F87720124B242283F851
:103840007820104B302283F879201148114B98478B
:1038500003461A460B4B83F87A200F480D4B9847C6
:1038600003461A46074B83F87B20FB79002B23D0B5
:103870000A48084B984703461A46024B83F87C20B7
:103880001EE000BFAC0C0020FA0C0020B93A40004A
:10389000DF0B00208D014000440D00200F0B0020A5
:1038A000000D0020060D00200C0D0020120D002040
:1038B000180D00201E0D0020714B002283F87C2083
:1038C00005217048704B984703461A466C4B83F8A5
:1038D0007D206B4B242283F87E20694B302283F8B5
:1038E0007F206A486A4B984703461A46644B83F820
:1038F00080206848664B984703461A46604B83F819
:103900008120FB79002B08D06348614B9847034620
:103910001A465B4B83F8822003E0594B002283F860
:10392000822005215D48584B984703461A46544B60
:1039300083F88320524B242283F88420504B30227A
:1039400083F885205148524B984703461A464C4B02
:1039500083F886204F484E4B984703461A46484BFB
:1039600083F88720FB79002B08D04B48484B9847B9
:1039700003461A46424B83F8882003E0404B00225E
:1039800083F88820052146483F4B984703461A464E
:103990003B4B83F889203A4B242283F88A20384B0A
:1039A000302283F88B203948394B984703461A4612
:1039B000334B83F88C203748354B984703461A46DB
:1039C0002F4B83F88D20FB79002B08D03248304BE9
:1039D000984703461A462A4B83F88E2003E0284B6B
:1039E000002283F88E2005212E48274B9847034656
:1039F0001A46234B83F88F20214B242283F89020F2
:103A00001F4B302283F891202048214B98470346D2
:103A10001A461B4B83F892201E481D4B98470346BD
:103A20001A46174B83F89320FB79002B08D01A48CD
:103A3000174B984703461A46114B83F8942003E02E
:103A40000F4B002283F89420052117480E4B98470E
:103A500003461A460A4B83F89520094A134B1A600D
:103A6000124B96225A60124B1B6800220F491846CF
:103A7000104B984700E000BF0837BD4680BD00BF2F
:103A8000AC0C0020240D0020B93A4000DF0B0020D0
:103A90008D014000440D00200F0B00202A0D002056
:103AA000300D0020360D00203C0D0020100E0020AF
:103AB000280E0020C115400080B485B000AF7860AA
:103AC0000B46FB707B681B78FB730123BB7309E01B
:103AD000BB7B7A6813441A78FB7B1344FB73BB7B74
:103AE0000133BB73BA7BFB789A42F1D3FB7B184658
:103AF0001437BD4680BC704780B500AF20203D4BD9
:103B000098470346002B17D13B4B1A683B4B3C4967
:103B10001046984703461A46374B1A60364B1A68C8
:103B2000384B3949104698470346002B00D15FE0D7
:103B3000314B354A1A605BE021202E4B98470346F3
:103B4000002B19D12C4B1A68304B2D491046984741
:103B500003461A46284B1A60274B1A682C4B4FF025
:103B60007F51104698470346002B00D140E0224B7E
:103B70004FF07F521A603BE022201E4B98470346CD
:103B8000002B0ED1234B1B680533224A1360214BB7
:103B90001B68B3F57A7F2BD91E4B4FF47A721A60EB
:103BA00026E02320134B98470346002B0CD1194BDA
:103BB0001B68053B174A1360164B1B68002B17D078
:103BC000144B00221A6013E013200A4B9847034657
:103BD000002B0DD1104B1B6805330F4A13600E4BA1
:103BE0001B68B3F5FA6F03D90B4B4FF4FA621A60F6
:103BF00000BF80BDC519400014000020293C4000D2
:103C0000CDCCCC3D113F40000000C040253C4000E1
:103C1000D53E4000180000201C00002080F000402D
:103C200002E000BF81F0004142001FBF5FEA410394
:103C300092EA030F7FEA226C7FEA236C6AD04FEA94
:103C40001262D2EB1363C1BFD218414048404140D9
:103C5000B8BF5B42192B88BF704710F0004F40F48B
:103C6000000020F07F4018BF404211F0004F41F4A7
:103C7000000121F07F4118BF494292EA030F3FD073
:103C8000A2F1010241FA03FC10EB0C00C3F1200386
:103C900001FA03F100F0004302D5494260EB400015
:103CA000B0F5000F13D3B0F1807F06D340084FEA80
:103CB000310102F10102FE2A51D2B1F1004F40EB75
:103CC000C25008BF20F0010040EA030070474900DD
:103CD00040EB000010F4000FA2F10102EDD1B0FAA8
:103CE00080FCACF1080CB2EB0C0200FA0CF0AABF9D
:103CF00000EBC25052421843BCBFD040184370473B
:103D000092F0000F81F4000106BF80F40000013240
:103D1000013BB5E74FEA41037FEA226C18BF7FEA17
:103D2000236C21D092EA030F04D092F0000F08BF59
:103D30000846704790EA010F1CBF0020704712F040
:103D40007F4F04D1400028BF40F00040704712F17F
:103D500000723CBF00F50000704700F0004343F0E4
:103D6000FE4040F4000070477FEA226216BF08461A
:103D70007FEA23630146420206BF5FEA412390EADD
:103D8000010F40F4800070474FF0000304E000BFD3
:103D900010F0004348BF40425FEA000C08BF704784
:103DA00043F0964301464FF000001CE050EA010248
:103DB00008BF70474FF000030AE000BF50EA01025D
:103DC00008BF704711F0004302D5404261EB41014A
:103DD0005FEA010C02BF84460146002043F0B6436F
:103DE00008BFA3F18053A3F50003BCFA8CF2083A94
:103DF000A3EBC25310DB01FA02FC634400FA02FC9D
:103E0000C2F12002BCF1004F20FA02F243EB0200A3
:103E100008BF20F00100704702F1200201FA02FC05
:103E2000C2F1200250EA4C0021FA02F243EB0200F8
:103E300008BF20EADC7070474FF0FF3C06E000BF8F
:103E40004FF0010C02E000BF4FF0010C4DF804CD23
:103E50004FEA40024FEA41037FEA226C18BF7FEA33
:103E6000236C11D001B052EA530C18BF90EA010F35
:103E700058BFB2EB030088BFC81738BF6FEAE170C4
:103E800018BF40F0010070477FEA226C02D15FEA60
:103E9000402C05D17FEA236CE4D15FEA412CE1D0CC
:103EA0005DF8040B704700BF844608466146FFE793
:103EB0000FB5FFF7C9FF002848BF10F1000F0FBD75
:103EC0004DF808EDFFF7F4FF0CBF012000205DF86E
:103ED00008FB00BF4DF808EDFFF7EAFF34BF0120F3
:103EE00000205DF808FB00BF4DF808EDFFF7E0FF8C
:103EF00094BF012000205DF808FB00BF4DF808EDDD
:103F0000FFF7D2FF94BF012000205DF808FB00BF3F
:103F10004DF808EDFFF7C8FF34BF012000205DF821
:103F200008FB00BF53B94AB9002908BF00281CBFCD
:103F30004FF0FF314FF0FF3000F07EB9ADF1080CCB
:103F40006DE904CE00F006F8DDF804E0DDE90223B7
:103F500004B070472DE9F0478C460E460446089D94
:103F6000002B50D18A4217466CD9B2FA82FEBEF1BC
:103F7000000F0BD0CEF1200420FA04F401FA0EF663
:103F800044EA060C02FA0EF700FA0EF44FEA17495B
:103F9000220CBCFBF9F01FFA87F809FB10C642EAB5
:103FA000064600FB08F3B34209D9F61900F1FF32C7
:103FB00080F02281B34240F21F8102383E44F61A5B
:103FC000A2B2B6FBF9F309FB136642EA064403FB0F
:103FD00008F8A04509D9E41903F1FF3280F00A81FD
:103FE000A04540F20781023B3C44C8EB040443EA8D
:103FF00000400021002D62D024FA0EF400232C6032
:104000006B60BDE8F0878B4207D9002D55D00021A9
:1040100085E841000846BDE8F087B3FA83F100293E
:1040200040F09080B34202D3824200F2F880841ABA
:1040300066EB03060120B446002D40D085E8101041
:10404000BDE8F08712B90127B7FBF2F7B7FA87FE90
:10405000BEF1000F35D1F31B4FEA17481FFA87FC5A
:104060000121B3FBF8F0220C08FB103642EA0646A9
:104070000CFB00F3B34207D9F61900F1FF3202D26C
:10408000B34200F2CE801046F61AA2B2B6FBF8F3A5
:1040900008FB136642EA06440CFB03FCA44507D95F
:1040A000E41903F1FF3202D2A44500F2B5801346B1
:1040B000CCEB040443EA00409CE729462846BDE8CF
:1040C000F087CEF1200106FA0EF307FA0EF720FA78
:1040D00001F94FEA1748CE4049EA0309B6FBF8FA5E
:1040E0004FEA194408FB1A661FFA87FC44EA0643A4
:1040F0000AFB0CF29A4200FA0EF40AD9DB190AF113
:10410000FF3180F087809A4240F28480AAF1020A4F
:104110003B449B1A1FFA89F9B3FBF8F108FB1133F2
:1041200049EA034301FB0CF69E4207D9DB1901F172
:10413000FF326BD29E4269D902393B449B1B41EA54
:104140000A418EE7C1F1200E22FA0EF48B40234380
:1041500020FA0EF706FA01F44FEA134C26FA0EF68F
:104160003C43B6FBFCF9270C0CFB19661FFA83F8DD
:1041700047EA064609FB08F7B74202FA01F200FADD
:1041800001FA08D9F61809F1FF3041D2B7423FD9F8
:10419000A9F102091E44F61BA0B2B6FBFCF40CFB0D
:1041A000146640EA064704FB08F8B84507D9FF182B
:1041B00004F1FF3028D2B84526D9023C1F4444EA16
:1041C0000940C8EB0707A0FB02894F4544464E460D
:1041D00014D329D065B3BAEB040367EB060707FADB
:1041E0000EFECB40CF404EEA030385E88800002155
:1041F000BDE8F0871346F8E61046E0E6B8EB0204A7
:1042000069EB03060138E5E70446D8E7114695E770
:104210008146C0E78A467CE7023B3C4448E70846C3
:104220000AE702383E442FE7C245E7D33E46D1E7CE
:104230002946BDE8F08700BF704700BF70B50F4E3C
:104240000F4D761BB61018BF002405D0013455F869
:10425000043B9847A642F9D10A4E0B4D761B01F05C
:104260003BF8B61018BF002406D0013455F8043BC3
:104270009847A642F9D170BD70BD00BFE45240001E
:10428000E4524000EC524000E452400070B4840715
:1042900046D0541E002A41D0CDB2034602E0621E31
:1042A000E4B3144603F8015B9A07F8D1032C2ED926
:1042B000CDB245EA05250F2C45EA054519D903F18C
:1042C00010022646103E0F2E42F8105C42F80C5C9D
:1042D00042F8085C42F8045C02F11002F2D8A4F142
:1042E000100222F00F0204F00F041032032C1344CA
:1042F0000DD91E462246043A032A46F8045BFAD832
:10430000221F22F003020432134404F003042CB1F0
:10431000C9B21C4403F8011BA342FBD170BC704717
:1043200014460346C2E700BF00290CBF0222002248
:104330004FF4806300F000B82DE9F043514C25683C
:1043400083B004460F4690461E4615B1AB6B002B5A
:1043500079D0B8F1020F04D0B8F1010F7FD8002E48
:104360007DDB2146284600F043F9216B41B104F181
:104370004003994202D0284600F03AFA0023236312
:10438000B4F90C300022A26162601A0654D423F4FE
:104390004A6323F00303B8F1020FA38139D001ABC4
:1043A0006A462146284600F035FBA3891843A081C0
:1043B00026B327B3AB6B002B4DD0009BB4F90C0098
:1043C00027609E421CBF40F40060A081B8F1010F3D
:1043D00008BF40F0010083B208BFA08103F00800CD
:1043E00080B22761666118B313F001002FD000205E
:1043F0007642A661A06003B0BDE8F083009E30461F
:1044000000F038FB074668B3A38943F08003A3811B
:10441000D0E7002004F1430243F00203002501210C
:10442000A381A56022602261616103B0BDE8F083D1
:10443000A06003B0BDE8F0832169284600F0D8F9F8
:10444000B4F90C30A3E7284600F066F981E7A660CE
:1044500003B0BDE8F083284600F05EF9ADE74FF009
:10446000FF30E2E7DDF80090B14506D0484600F0A5
:1044700001FB074608B14E46C6E7B4F90C304FF0D1
:10448000FF30C7E748040020024B13B1024800F098
:1044900005B87047000000002D474000002301468A
:1044A0001A46184600F016BEB1F90C309AB22DE942
:1044B000F0410D46110780463CD46A6843F400631E
:1044C000002AAB8173DDAC6A002C4BD09BB203F4A5
:1044D0008052002192B2D8F80060C8F80010002A7B
:1044E00069D02A6D5F0705D569682B6B521A0BB12D
:1044F000EB6BD21A0023E9694046A047441C3CD02C
:10450000B5F90C302A692A6023F400630022AB81DC
:10451000DB046A6049D4296BC8F8006011B305F167
:104520004003994202D0404600F062F9002028631F
:10453000BDE8F0812E69AEB12C682E6090070CBFEB
:104540006B690023A41BAB600AE0234632466F6A06
:10455000E9694046B8470028A4EB0004064404DD9E
:10456000002CF2DC0020BDE8F081AB8943F0400371
:10457000AB814FF0FF30BDE8F081D8F800201D2A54
:10458000F3D81A4BD34003F0010383F00104002B4E
:10459000EBD0B5F90C302969296023F40063D90404
:1045A0006C60AB81B7D5002AB5D12865B3E7EA6B5B
:1045B000002A88DCD6E70123E9694046A047431C6E
:1045C000024602D0AB89AC6A8CE7D8F80030002BE9
:1045D000F8D01D2B01D0162B02D1C8F80060C1E71E
:1045E000AB8943F04003AB81BDE8F081010040207E
:1045F00010B5044682B008B1836B53B1B1F90C0019
:1046000008B902B010BD204602B0BDE81040FFF767
:104610004BBF019100F080F80199EFE7014900F0EC
:10462000CFB900BF9D5140002DE9F04F354B456893
:10463000C3630024074600F53B7204230321C0F83E
:10464000E412C0F8E822C0F8E04283B02C606C604D
:10465000AC606C66EC812C616C61AC61AB81214615
:1046600005F15C000822FFF711FEBE68DFF898B084
:10467000DFF898A0DFF89890DFF89880C5F820B0B0
:1046800001230922C5F824A0C5F82890C5F82C807C
:10469000ED612146F381B28106F15C003460746003
:1046A000B460746634617461B46108220193FFF7E9
:1046B000EDFDFD68F66112200222C6F820B0C6F8B2
:1046C00024A0C6F82890C6F82C802146A881EA814B
:1046D0002C606C60AC606C662C616C61AC6105F147
:1046E0005C000822FFF7D2FD019BED61C5F820B008
:1046F000C5F824A0C5F82890C5F82C80BB6303B08A
:10470000BDE8F08F1D46400021504000455040005C
:1047100081504000A1504000836B03B17047FFF708
:1047200083BF00BF704700BF704700BF38B5074D5B
:10473000074C2C1BA41005D0013C55F8043D9847AC
:10474000002CF9D1BDE8384000F0D0BDFC5240004B
:10475000F8524000F8B5234F0C46064600F04AFCDC
:10476000BB685D6825F00305291B01F6EF7121F494
:104770007F6121F00F01A1F58054B4F5805F07DB64
:104780000021304600F03AFCBB682B44984204D02C
:10479000304600F031FC0020F8BD6142304600F0A8
:1047A0002DFC01300DD0104BBA6819682D1B45F057
:1047B00001053046091B5560196000F01DFC012001
:1047C000F8BD0021304600F019FCBA68831A0F2B9F
:1047D000DEDD064C0449246843F00103001B5360EE
:1047E0000860D5E74C040020C40A002058080020C7
:1047F000002945D02DE9F0410D46804600F0FAFB36
:1048000055F8047C6A4927F00103A5F10804E21871
:104810008E685068B24220F0030062D0FE075060FC
:104820000BD455F8087CE41B01F1080EA56875450A
:104830003B446FD0E768EF60BD6015186D68ED0709
:1048400042D543F001026260E350B3F5007F18D215
:10485000DB085A1C4D6851F83270A76001209B108C
:1048600000FA03F301EBC2001D430838E0604D601D
:1048700041F83240FC604046BDE8F04100F0BCBB6E
:1048800070475A0A042A53D89A0902F139077F005F
:1048900002F1380501EB870051F827204449083818
:1048A00090424DD0516821F003018B4202D29268B0
:1048B0009042F7D1D068E060A2608460D460404646
:1048C000BDE8F04100F098BB95683A4FBD42034403
:1048D0003FD0D068E86043F0010285606260E35039
:1048E000B3E7FF07034407D455F8082CA41A134470
:1048F000A068E268C26090602F4A126843F001002D
:10490000934260608C60B6D32C4B40461968FFF729
:1049100021FFB0E711184968C90744D49168D268EB
:10492000CA60034443F0010091606060E350A2E775
:10493000142A17D802F15C077F0002F15B05A9E792
:10494000AA104B68012505FA02F213434B60024698
:10495000B1E743F001024C610C61E560A560626063
:10496000E35088E7542A06D81A0B02F16F077F003C
:1049700002F16E058EE7B2F5AA7F06D8DA0B02F1D6
:1049800078077F0002F1770584E740F254508242B5
:1049900006D89A0C02F17D077F0002F17C0579E7C9
:1049A000FE277E2576E743F001026260E35062E76E
:1049B0004C0400205404002054080020C00A0020A9
:1049C0002DE9F84310F538771FD0884606464FF09A
:1049D00000097D68BC68013D11D4A389012B05F154
:1049E000FF3508D9B4F90E3001332146304602D0E4
:1049F000C04749EA00096B1C04F16804EDD13F6827
:104A0000002FE6D14846BDE8F883B9464846BDE8E0
:104A1000F88300BF70B50D46B1F90E10002990B0B3
:104A200014461E4614DB01AA00F0FAFB00280FDB37
:104A3000029A02F47042A2F50052B2FA82F25209CE
:104A40004FF480634FF400603260236010B070BD9B
:104A5000A88900F0800082B2002030601AB14023A3
:104A6000236010B070BD4FF480631046236010B017
:104A700070BD00BF024B0146186800F003B800BFCC
:104A8000480400202DE9F04F01F10B05162D83B0ED
:104A9000064640F29F8035F0070500F1BF80A9422D
:104AA00000F2BC8000F0A6FAB5F5FC7FC0F09C8255
:104AB0006B0A00F0BA80042B00F28381A80900F190
:104AC000390E4FEA4E033830C44F07EB8303A3F18E
:104AD00008015C68A14207D1ACE0002A80F2AC80FA
:104AE000E468A14200F0A680636823F003035A1B28
:104AF0000F2AF2DDB9493C6901F1080E744500F056
:104B0000B381636823F003035A1B0F2A00F39981D2
:104B1000002AC1F814E0C1F810E080F29E80B3F5DD
:104B2000007F80F06781DB0803F1010C01229B10FC
:104B300002FA03F34A6851F83C80C4F8088001EB9C
:104B4000CC091A43A9F10803E3604A6041F83C40EC
:104B5000C8F80C40831001249C40944200F28A80E3
:104B6000144206D120F003006400144200F1040056
:104B7000FAD007EBC009CC468046DCF80C108C4517
:104B800007D173E1002A80F28181C9688C4500F069
:104B90006D814B6823F003035A1B0F2AF2DD0C468C
:104BA000D1F80CC054F8088F4B1945F001054D6041
:104BB00042F00101C8F80CC03046CCF808807B6197
:104BC0003B61C3F80CE0C3F808E059609A5000F06C
:104BD00013FA1FE0102921D800F00CFA1025062343
:104BE00002207E4F07EB8303A3F108025C68944226
:104BF00000F045816368E168A56823F0030323445E
:104C000030465A68E96042F001028D605A6000F057
:104C1000F3F90834204603B0BDE8F08F00240C23DC
:104C20002046336003B0BDE8F08F80234FF0400E84
:104C30003F2049E770465DE72344E1685A68A5686C
:104C400042F00102E96030468D605A6000F0D4F90C
:104C50000834204603B0BDE8F08F234430465A683C
:104C600042F001025A6000F0C7F90834204603B050
:104C7000BDE8F08FBC68636823F00308A84504D33F
:104C8000C5EB08030F2B00F38C80554BDFF86091C8
:104C90001A68D9F8003001332A4404EB080A00F0FE
:104CA000608102F580520F3222F47F6222F00F02FF
:104CB00011463046019200F0A1F9B0F1FF3F834662
:104CC000019A00F05881824500F2FC80454B19683A
:104CD000DA451144196000F05381D9F80000DFF87B
:104CE00010E101301BBFCAEB0B0A5144CEF800B0F3
:104CF00019601BF0070100F01781C1F10800C1F530
:104D00008051834408315A44C2F30B02C2EB0109BB
:104D100049463046019300F071F9431C019B00F0B5
:104D20003F81CBEB00024A4442F001021968C7F808
:104D300008B04944BC42CBF804201960DFF8A490C5
:104D400016D0B8F10F0F40F2FD806268A8F10C0395
:104D500023F00703E01802F001024FF0050E1A439A
:104D60000F2B6260C0F804E0C0F808E000F21C817C
:104D70001D4BBC681A68914288BF19601B4B1A68AA
:104D80009142626888BF196022F003029542A2EB4B
:104D9000050301D80F2B04DC304600F02DF9002468
:104DA00038E7621943F0010345F0010565603046BC
:104DB000BA60536000F020F90834204603B0BDE823
:104DC000F08F142B71D9542B00F2A480280B00F122
:104DD0006F0E4FEA4E036E3076E600BF4C040020A3
:104DE000C00A0020C40A0020BC0A0020B80A002023
:104DF000580800205A0A042A5ED9142A00F2B38007
:104E000002F15C0149005B3207EB810C57F821107D
:104E1000DFF8DC81ACF1080C8C4500F088804A6832
:104E200022F00302934202D289688C45F7D1D1F86F
:104E30000CC07A68C4F80CC0A160CCF80840CC6003
:104E400088E6631942F0010745F0010565603046C8
:104E50004B610B61C3F80CE0C3F808E05F609A5047
:104E6000083400F0C9F8D5E64A6873E608F101088D
:104E700018F0030F0CF1080C7FF47FAE30E0DC6813
:104E8000A34208BF02303FF435AEB3E60B440C46F4
:104E90005A68C96854F8085F42F001025A60304607
:104EA000E9608D6000F0A8F8B4E603F15C0E03F150
:104EB0005B004FEA4E0307E69A0902F13901490007
:104EC0003832A1E7BC424A4B3FF400AF9C686268AD
:104ED00022F003025AE759F80839994540F08280D8
:104EE00010F0030F00F1FF30F5D17B6823EA0403D3
:104EF0007B6064009C423FF6BDAE002C3FF4BAAE2E
:104F00001C4240467FF435AE64001C4200F10400B0
:104F1000FAD02EE6B3F5AA7F18D8E80B00F1780E88
:104F20004FEA4E037730CFE54FF48051EBE6012195
:104F3000D8F80430921001FA02F21A43C8F804209B
:104F4000614677E70123CBF8043025E740F254525D
:104F5000934220D8A80C00F17D0E4FEA4E037C301E
:104F6000B2E51032A4E6542A26D81A0B02F16F01DA
:104F700049006E3248E7BC68626822F0030205E728
:104F8000CAF30B0000287FF4A8AE4244BB6842F08D
:104F900001025A60ECE6FE234FF07F0E7E2093E57F
:104FA00001224FF00009C1E604F108013046FFF785
:104FB0001FFCD9F80010DBE6B2F5AA7F05D8DA0BA2
:104FC00002F17801490077321EE740F254518A42DB
:104FD00005D89A0C02F17D0149007C3214E7FE21CC
:104FE0007E2211E77B6884E7E808431C5B00F8E554
:104FF0004C040020704700BF704700BF38B5074C15
:105000000023054608462360FDF758FA431C00D0EC
:1050100038BD2368002BFBD02B6038BD2C0E002040
:1050200010B50C46B1F90E1000F024F9002803DB8E
:10503000236D0344236510BDA38923F48053A3810A
:1050400010BD00BF2DE9F0411646B1F90C201F46F6
:10505000D3050C46054607D500220223B1F90E10F0
:1050600000F0F2F8B4F90C20B4F90E1022F48052DA
:10507000A2813B4632462846BDE8F04100F014B814
:1050800010B50C46B1F90E1000F0DEF8A389421CF1
:105090000EBF23F4805343F480532065A38110BDD9
:1050A000B1F90E1000F068B870B50D46084C114605
:1050B00006461A46284600232360FBF719FC431CCA
:1050C00000D070BD2368002BFBD0336070BD00BFE3
:1050D0002C0E00202DE9F047254C2568D5F84841D5
:1050E0000646884692469946C4B360681F2817DC76
:1050F000431C76B104EB80050122C5F888A0D4F8E2
:10510000881182401143022EC4F88811C5F8089115
:105110001ED00230636044F820800020BDE8F08794
:10512000144B03B34FF4C870FFF7A4FC0446D0B18E
:10513000D5F84831002780E88800C5F8484138464E
:105140000123C4F88871C4F88C71002EE1D0D1E736
:10515000D4F88C110A43C4F88C21DAE705F5A6745B
:10516000C5F84841C1E74FF0FF30BDE8F08700BF08
:10517000D4524000754A400038B5074C002305461C
:1051800008462360FDF7C6F9431C00D038BD2368EC
:10519000002BFBD02B6038BD2C0E002000293DD009
:1051A00070B505460C4608B1836B7BB3B4F90C307F
:1051B0000BB9002070BD21462846FFF775F9E36A58
:1051C000064633B1E169284698470028B8BF4FF03A
:1051D000FF36A3891B061CD4216B41B104F14003A7
:1051E000994202D02846FFF703FB00232363616C3A
:1051F00021B12846FFF7FCFA00236364FFF792FA17
:105200000023A381FFF790FA304670BDFFF784FAC0
:10521000CCE721692846FFF7EBFADDE7002070476D
:1052200038B50B46074C0546114618460023236047
:10523000FDF77CF9431C00D038BD2368002BFBD060
:105240002B6038BD2C0E002070B50D46084C114661
:1052500006461A46284600232360FDF777F9431CCB
:1052600000D070BD2368002BFBD0336070BD00BF41
:105270002C0E002070B50D46084C114606461A4605
:10528000284600232360FBF709FB431C00D070BDB8
:105290002368002BFBD0336070BD00BF2C0E0020B4
:1052A00080250000C0000000000800000000000091
:1052B000000000000000000000100E00C000000010
:1052C00000080000000000000000000000000000D6
:1052D0004300000020000020F8B500BFF8BC08BC67
:1052E0009E46704789444000F1004000F8B500BF79
:0C52F000F8BC08BC9E467047CD00400092
:0852FC0058ECFF7F01000000E7
:10530400BFF35F8F0138FBD1704700BF00093D0038
:10531400020000000000A04064000000C80000007B
:10532400000000000C03002074030020DC030020B4
:105334000000000000000000000000000000000069
:105344000000000000000000000000000000000059
:1053540000000000D05240000000000000000000E7
:105364000000000000000000000000000000000039
:105374000000000000000000000000000000000029
:105384000000000000000000000000000000000019
:105394000000000000000000000000000000000009
:1053A40000000000000000000000000000000000F9
:1053B40000000000000000000000000000000000E9
:1053C40000000000000000000100000000000000D8
:1053D4000E33CDAB34126DE6ECDE05000B0000009D
:1053E40000000000000000000000000000000000B9
:1053F40000000000000000000000000000000000A9
:105404000000000000000000000000000000000098
:105414000000000000000000000000000000000088
:105744000000000000000000200000200000000015
:10575400000000004C0400204C04002054040020ED
:10576400540400205C0400205C0400206404002035
:10577400640400206C0400206C04002074040020E5
:10578400740400207C0400207C0400208404002095
:10579400840400208C0400208C0400209404002045
:1057A400940400209C0400209C040020A4040020F5
:1057B400A4040020AC040020AC040020B4040020A5
:1057C400B4040020BC040020BC040020C404002055
:1057D400C4040020CC040020CC040020D404002005
:1057E400D4040020DC040020DC040020E4040020B5
:1057F400E4040020EC040020EC040020F404002065
:10580400F4040020FC040020FC0400200405002013
:10581400040500200C0500200C05002014050020C0
:10582400140500201C0500201C0500202405002070
:10583400240500202C0500202C0500203405002020
:10584400340500203C0500203C05002044050020D0
:10585400440500204C0500204C0500205405002080
:10586400540500205C0500205C0500206405002030
:10587400640500206C0500206C05002074050020E0
:10588400740500207C0500207C0500208405002090
:10589400840500208C0500208C0500209405002040
:1058A400940500209C0500209C050020A4050020F0
:1058B400A4050020AC050020AC050020B4050020A0
:1058C400B4050020BC050020BC050020C405002050
:1058D400C4050020CC050020CC050020D405002000
:1058E400D4050020DC050020DC050020E4050020B0
:1058F400E4050020EC050020EC050020F405002060
:10590400F4050020FC050020FC050020040600200E
:10591400040600200C0600200C06002014060020BB
:10592400140600201C0600201C060020240600206B
:10593400240600202C0600202C060020340600201B
:10594400340600203C0600203C06002044060020CB
:10595400440600204C0600204C060020540600207B
:10596400540600205C0600205C060020640600202B
:10597400640600206C0600206C06002074060020DB
:10598400740600207C0600207C060020840600208B
:10599400840600208C0600208C060020940600203B
:1059A400940600209C0600209C060020A4060020EB
:1059B400A4060020AC060020AC060020B40600209B
:1059C400B4060020BC060020BC060020C40600204B
:1059D400C4060020CC060020CC060020D4060020FB
:1059E400D4060020DC060020DC060020E4060020AB
:1059F400E4060020EC060020EC060020F40600205B
:105A0400F4060020FC060020FC0600200407002009
:105A1400040700200C0700200C07002014070020B6
:105A2400140700201C0700201C0700202407002066
:105A3400240700202C0700202C0700203407002016
:105A4400340700203C0700203C07002044070020C6
:105A5400440700204C0700204C0700205407002076
:105A6400540700205C0700205C0700206407002026
:105A7400640700206C0700206C07002074070020D6
:105A8400740700207C0700207C0700208407002086
:105A9400840700208C0700208C0700209407002036
:105AA400940700209C0700209C070020A4070020E6
:105AB400A4070020AC070020AC070020B407002096
:105AC400B4070020BC070020BC070020C407002046
:105AD400C4070020CC070020CC070020D4070020F6
:105AE400D4070020DC070020DC070020E4070020A6
:105AF400E4070020EC070020EC070020F407002056
:105B0400F4070020FC070020FC0700200408002004
:105B1400040800200C0800200C08002014080020B1
:105B2400140800201C0800201C0800202408002061
:105B3400240800202C0800202C0800203408002011
:105B4400340800203C0800203C08002044080020C1
:0C5B54004408002000000200FFFFFFFFDB
:04000005004021BDD9
:00000001FF
