:020000040040BA
:10000000583900206D124000351340003513400070
:100010003513400035134000351340000000000048
:100020000000000000000000000000003513400048
:100030003513400000000000351340003513400028
:100040003513400035134000351340003513400090
:100050003513400035134000351340003513400080
:10006000351340003513400000000000BD02400081
:10007000D5024000ED02400035134000351340002A
:100080000000000000000000351340003513400060
:100090003513400035134000351340003513400040
:1000A0003513400035134000351340003513400030
:1000B0003513400035134000351340003513400020
:1000C00035134000351340003513400010B5054C82
:1000D000237833B9044B13B10448AFF300800123F4
:1000E000237010BD7408002000000000A04B4000E9
:1000F000084B10B51BB108490848AFF30080084809
:10010000036803B910BD074B002BFBD0BDE81040BE
:10011000184700BF0000000078080020A04B4000F6
:10012000A04B40000000000080B586B000AFF86032
:10013000B9607A6000237B61FB68002B12D04FF01E
:10014000FF3313E00B4B1B680B4A1268B96810466B
:100150009847BB680133BB607B6901337B617B6877
:10016000013B7B607B68002BECDC7B691846183711
:10017000BD4680BD400900204809002080B586B0FA
:1001800000AFF860B9607A6000237B61FB68012BE7
:100190001ED0FB68022B1BD0FB68032B18D04FF03E
:1001A000FF3319E00E4B1A680E4B1868BB68591CD8
:1001B000B9601B78194690470346002B02DA4FF0CE
:1001C000FF3309E07B6901337B617B68013B7B6026
:1001D0007B68002BE6D17B6918461837BD4680BD89
:1001E000440900204809002080B584B000AF786041
:1001F000396078682C4B9847F86078682B4B9847A3
:100200000246FB681340FB60FB68002B3CD00023D8
:10021000BB6034E0264ABB681B0113441A683B6884
:100220009A4226D1224ABB681B01134404331A6840
:10023000FB681340002B1CD01D4ABB681B011344F4
:100240000C331B681A49BA6812010A44106818492D
:10025000BA6812010A440432126811469847144AD7
:10026000BB681B01134404331B68DB43FA6813406B
:10027000FB60BB680133BB60BB68062B03D8FB681F
:10028000002BC7D100E000BF0A4B1B68002B07D032
:10029000094B1B68002B03D0074B1B6878689847F5
:1002A00000BF1037BD4680BDFD0B4000150C40005F
:1002B000900800204C0900200009002080B500AF04
:1002C0000B210248024B984700BF80BD000E0E4034
:1002D000E901400080B500AF0C210248024B98476D
:1002E00000BF80BD00100E40E901400080B500AFA6
:1002F0000D210248024B984700BF80BD00120E40FE
:10030000E901400080B485B000AF78603960002317
:10031000FB607B68AC221A603B681A683B685B68CC
:10032000B2FBF3F31B09FB60FB68002B03D0FB68F7
:10033000B3F5803F01D301230FE07B68FA681A62AE
:100340003B689A687B685A607B6840F20222C3F877
:1003500020217B6850221A60002318461437BD46BE
:1003600080BC704780B483B000AF78600B46FB70F0
:100370007B685B6903F00203002B01D1012303E0DA
:10038000FA787B68DA61002318460C37BD4680BCDA
:10039000704700BF80B483B000AF786039607B687D
:1003A0005B6903F00103002B01D1012305E07B68A9
:1003B0009B69DAB23B681A70002318460C37BD46B9
:1003C00080BC704780B489B000AFF860B9607A60D3
:1003D000BB681A017B689A4202D81023FB6101E0D6
:1003E0000823FB617B68DA00FB69B96801FB03F352
:1003F0005B081A44FB69B96801FB03F3B2FBF3F332
:10040000BB61BB69DB087B61BB6903F007033B6130
:100410007B69002B03D07B69B3F5803F01D30123B7
:100420000FE0FB69082B05D1FB685B6843F40022F1
:10043000FB685A603B691A047B691A43FB681A62BD
:10044000002318462437BD4680BC704780B582B073
:1004500000AF786078680F4B98477B6800225A603D
:100460007B6800225A627B6800229A6278680A4B95
:1004700098477868094B98477868094B9847786897
:10048000084B98477868084B984700BF0837BD4627
:1004900080BD00BF49064000490540007905400085
:1004A00091054000C9054000AD05400080B584B00D
:1004B00000AFF860B9607A60F8681A4B98471A4B39
:1004C00000221A60BB68002B09D0BB681B687A68E1
:1004D0001946F868154B98470346002B01D00123B5
:1004E0001BE0BB685A68BB689B681A43BB681B6902
:1004F0001A43BB68DB681A430B4B1B6813430A4A59
:100500001360094B1B68084A1360FB685A68064B66
:100510001B681A43FB685A60002318461037BD4613
:1005200080BD00BF4D04400004090020C503400009
:1005300080B483B000AF78607B6840221A6000BF4F
:100540000C37BD4680BC704780B483B000AF786084
:100550007B6888221A6000BF0C37BD4680BC70479C
:1005600080B483B000AF78607B6810221A6000BF4F
:100570000C37BD4680BC704780B483B000AF786054
:100580007B6824221A6000BF0C37BD4680BC7047D0
:1005900080B483B000AF78607B684FF480721A60DB
:1005A00000BF0C37BD4680BC704700BF80B483B02D
:1005B00000AF78607B684FF400321A6000BF0C37E0
:1005C000BD4680BC704700BF80B483B000AF786088
:1005D0007B684FF400221A6000BF0C37BD4680BC18
:1005E000704700BF80B483B000AF786039607B682B
:1005F0005B6903F00203002B01D1012305E03B6896
:10060000C3F308027B68DA61002318460C37BD4645
:1006100080BC704780B483B000AF786039607B687D
:100620005B6903F00103002B01D1012306E07B6825
:100630009B69C3F308023B681A60002318460C3715
:10064000BD4680BC704700BF80B483B000AF786007
:100650007B68044AC3F8E42000BF0C37BD4680BC69
:10066000704700BF0041535580B582B000AF78603D
:100670007B68072B31D801A252F823F0D90640003D
:100680009D064000A5064000AD064000B5064000AE
:10069000BD064000C5064000CF0640000020114BBB
:1006A00098471AE001200F4B984716E000200E4BA8
:1006B000984712E010200C4B98470EE020200A4B80
:1006C00098470AE03E210020084B984705E03E216C
:1006D0000120064B984700E000BF00BF0837BD4629
:1006E00080BD00BFAD0F40001910400089104000D0
:1006F00080B582B000AF78607B68072B26D801A256
:1007000052F823F025074000290740002907400040
:100710003B0740003B0740003B0740003B074000D1
:100720003B074000012312E00B4B98470346002B88
:1007300014BF01230023DBB209E0084B98470346AE
:10074000002B14BF01230023DBB200E00023184676
:100750000837BD4680BD00BFE50F400001114000D5
:1007600080B483B000AF78607B68072B25D801A2E6
:1007700052F823F0950740009B074000A107400076
:10078000A7074000AB074000AF074000B307400099
:10079000B70740004FF4FA4310E04FF400430DE078
:1007A0004FF400430AE0084B08E0084B06E0084B12
:1007B00004E0074B02E0064B00E0002318460C372C
:1007C000BD4680BC704700BF00093D0000127A00A2
:1007D000001BB70080B582B000AF0346FB7100BFBD
:1007E000FB791846054B9847034683F00103DBB2BB
:1007F000002BF5D100BF0837BD4680BDF106400093
:1008000080B586B000AFF8607A603B600B46FB7243
:10081000FB7A18460D4B984702467B68B2FBF3F310
:100820007B617B693A6802FB03F37B613B68013BB8
:100830001A04074B13407A68D2B2134343F47C5234
:10084000FB681A6000BF1837BD4680BD61074000D5
:100850000000FF0780B582B000AF786039603B6868
:10086000002B08D1094B9847094A7B681B6843F065
:100870000053936205E0074B9847054A7B681B6865
:10088000D36200BF0837BD4680BD00BF19114000CC
:1008900000040E404911400080B582B000AF78607E
:1008A0007B68002B03D1054B9847034602E0044BBD
:1008B0009847034618460837BD4680BD31114000B1
:1008C0006111400080B582B000AF0346FB71FB7937
:1008D000033B042B08D8FB791846064B9847FB7955
:1008E0001846054B984700E000BF00BF0837BD46DB
:1008F00080BD00BF69064000D507400080B582B0CA
:1009000000AF786000BF7868044B98470346002B1F
:10091000F9D0002318460837BD4680BD990840002D
:1009200080B500AF0620044B9847024613469B0053
:1009300013449B00184680BD6107400080B500AF9E
:10094000024B984703465B08184680BD21094000CA
:1009500090B583B000AF1148114B98470620114B5A
:100960009847381D1423012206210F4CA0473B1D38
:10097000002118460D4B984700200D4B984710203A
:100980000C4B98470C4B98470C4B9847034618461E
:10099000034B984700BF0C37BD4690BD000E27079C
:1009A000D9144000C5084000010840005508400027
:1009B000FD0840002D0F40003D1340003D09400060
:1009C00080B485B000AFF860B9607A607B68002BB6
:1009D00003D0FB68BA685A6602E0FB68BA681A6618
:1009E00000BF1437BD4680BC704700BF80B487B0DD
:1009F00000AFF860B9607A60FB687A685A64BB68D7
:100A0000B3F1C05F4AD0B3F1C05F08D8B3F1006F53
:100A100016D0B3F1805F2CD0002B69D064E0B3F125
:100A2000205F65D0B3F1205F03D8B3F1005F4AD0F7
:100A30005AE0B3F1405F5BD0B3F1605F58D053E050
:100A4000FB681B6F7B61FB681A6F7B68D9437B690E
:100A50000B401A40FB681A67FB685B6F7B61FB68A1
:100A60005A6F7B68D9437B690B401A40FB685A6711
:100A70003AE0FB681B6F7B617A687B691A43FB680D
:100A80001A67FB685B6F7B61FB685A6F7B68D943B1
:100A90007B690B401A40FB685A6725E0FB681B6FB7
:100AA0007B61FB681A6F7B68D9437B690B401A40F6
:100AB000FB681A67FB685B6F7B617A687B691A4326
:100AC000FB685A6710E0FB681B6F7B617A687B6983
:100AD0001A43FB681A67FB685B6F7B617A687B6906
:100AE0001A43FB685A6700BFFB687A685A6000E0E7
:100AF00000BF1C37BD4680BC704700BF80B584B0C6
:100B000000AFF860B9607A60B968F868194B984727
:100B10007B6803F001031A46B968F868164B9847DA
:100B20007B6803F00A03002B03D0FB68BA681A62E3
:100B300002E0FB68BA685A627B6803F00203002B8C
:100B400004D0FB68BA68C3F8802008E07B6803F033
:100B50000803002B03D0FB68BA68C3F88420FB6845
:100B6000BA685A61FB68BA681A6000BF1037BD46A0
:100B700080BD00BFE10B4000C109400080B584B0DA
:100B800000AFF860B9607A603B60B968F868124BF2
:100B90009847BA69B968F868104B98473B68002BCA
:100BA00003D0FB68BA681A6502E0FB68BA685A6548
:100BB0007B68002B03D0FB68BA681A6302E0FB680D
:100BC000BA685A63FB68BA681A61FB68BA681A6047
:100BD00000BF1037BD4680BDE10B4000C109400099
:100BE00080B483B000AF786039607B683A685A643B
:100BF00000BF0C37BD4680BC704700BF80B483B0D7
:100C000000AF78607B68DB6C18460C37BD4680BC53
:100C1000704700BF80B483B000AF78607B689B6C86
:100C200018460C37BD4680BC704700BF90B587B0F2
:100C300002AF786039607868634B9847F8603B682A
:100C400003F0F043B3F1005F67D0B3F1005F09D860
:100C5000B3F1805F2BD0B3F1C05F43D0B3F1006F2D
:100C60000AD0A9E0B3F1405F7ED0B3F1605F7BD0E2
:100C7000B3F1205F6CD09FE07B6803F01F0301227B
:100C800002FA03F31A464FF00061F8684F4B984799
:100C90007B6803F01F03012202FA03F319463B6845
:100CA00003F001031A46F868494B984786E07B68D1
:100CB00003F01F03012202FA03F31A464FF080519A
:100CC000F868424B98477B6803F01F03012202FA41
:100CD00003F319463B6803F001031A46F8683C4BDE
:100CE00098476BE07B6803F01F03012202FA03F3CD
:100CF0001A464FF0C051F868344B98477B6803F0B0
:100D00001F03012202FA03F319463B6803F00103B3
:100D10001A46F8682E4B984750E07B6803F01F0393
:100D2000012202FA03F31A464FF00051F868274BEC
:100D300098477B6803F01F03012202FA03F3194668
:100D40003B6803F001031A46F868214B984735E0E9
:100D50007B6803F01F03012202FA03F33A68194685
:100D6000F8681C4B984729E07B6803F01F030122B9
:100D700002FA03F319463B6803F06053B3F1605F76
:100D80000CBF01230023DBB21A463B6803F00403C7
:100D9000002B14BF01230023DBB218463B6803F08D
:100DA0000103002B14BF01230023DBB20093034691
:100DB000F868094CA04701E0002300E00123184631
:100DC0001437BD4690BD00BF090F4000ED0940003B
:100DD000C1094000FD0A40007D0B400090B587B07E
:100DE00002AFF860B9607A607B6803F0F043B3F15A
:100DF000005F43D0B3F1005F09D8B3F1805F1FD02B
:100E0000B3F1C05F2BD0B3F1006F0AD06DE0B3F146
:100E1000405F48D0B3F1605F45D0B3F1205F3CD074
:100E200063E0BA684FF00061F868334B98477B681D
:100E300003F001031A46B968F868304B984756E04A
:100E4000BA684FF08051F8682B4B98477B6803F0E5
:100E500001031A46B968F868284B984747E0BA6812
:100E60004FF0C051F868244B98477B6803F00103AA
:100E70001A46B968F868214B984738E0BA684FF0CD
:100E80000051F8681C4B98477B6803F001031A4631
:100E9000B968F868194B984729E07A68B968F86822
:100EA000174B984723E07B6803F06053B3F1605F12
:100EB0000CBF01230023DBB21A467B6803F0040356
:100EC000002B14BF01230023DBB219467B6803F01B
:100ED0000103002B14BF01230023DBB200930B4658
:100EE000B968F868074CA04701E0002300E001233F
:100EF00018461437BD4690BDED094000C1094000B9
:100F0000FD0A40007D0B400080B485B000AF7860E2
:100F10007B685B0903F5001303F207735B02FB6058
:100F2000FB6818461437BD4680BC704780B485B056
:100F300000AF78601C491C4B1B6B23F070027B6870
:100F400013430B634FF40063FB6007E0FB68002B67
:100F500001D1012323E0FB68013BFB60124B9B6E38
:100F600003F00803002BF1D00F4A0F4B1B6B23F04B
:100F7000030343F0020313634FF40063FB6007E0D5
:100F8000FB68002B01D1012309E0FB68013BFB60FA
:100F9000054B9B6E03F00803002BF1D0002318468D
:100FA0001437BD4680BC704700040E4080B483B047
:100FB00000AF78607B68012B07D1084A074B9B681C
:100FC00043F0254343F480139360044B044A1A60B2
:100FD00000BF0C37BD4680BC704700BF10140E40E8
:100FE000080000A580B400AF094B5B6903F08003E3
:100FF000002B07D0074B9B6E03F08003002B01D022
:10100000012300E000231846BD4680BC704700BFA6
:1010100010140E4000040E4080B483B000AF78601E
:10102000184A184B1B6A43F45C1343F0080313621D
:1010300000BF144B9B6E03F40033002BF9D0114911
:10104000104B1B6A23F45C1323F070037A6813437C
:1010500043F45C130B6200BF0A4B9B6E03F4003336
:10106000002BF9D0074A074B1B6A23F09B7323F42C
:10107000803343F45C13136200BF0C37BD4680BC61
:10108000704700BF00040E4080B483B000AF7860AA
:1010900039607B68002B08D01649164B1B6A164A2C
:1010A0001A40164B13430B621EE01249114B1B6A88
:1010B00023F45C1323F003033A68120292B2134341
:1010C00043F45C1343F001030B6200BF094B9B6EBA
:1010D00003F00103002BF9D0064A064B1B6A43F0CC
:1010E0009B7343F48033136200BF0C37BD4680BC52
:1010F000704700BF00040E40FCFFC8FE020037012D
:1011000080B400AF034B9B6E03F480331846BD469A
:1011100080BC704700040E4080B400AF034B4FF01A
:1011200000529A6200BFBD4680BC704700040E406A
:1011300080B400AF034B9B6E03F002031846BD461C
:1011400080BC704700040E4080B400AF034B002207
:10115000DA6200BFBD4680BC704700BF00040E408D
:1011600080B400AF034B9B6E03F004031846BD46EA
:1011700080BC704700040E4080B483B000AF78603C
:101180007B68222B01D901232FE07B681F2B13D80A
:10119000184B9A6901217B6801FA03F31A40012177
:1011A0007B6801FA03F39A421ED0124A01217B6840
:1011B00001FA03F3136117E07B68203B7B600D4B62
:1011C000D3F8082101217B6801FA03F31A400121B9
:1011D0007B6801FA03F39A4206D0064A01217B6834
:1011E00001FA03F3C2F80031002318460C37BD465C
:1011F00080BC704700040E4080B582B000AF7860BC
:101200007868034B984700BF0837BD4680BD00BFD4
:101210007911400080B500AF0B20054B98470C209A
:10122000034B98470D20024B984700BF80BD00BF7D
:10123000F911400080B500AF084B98474FF00062AD
:101240000C210748074B98474FF000624FF4C0014C
:101250000548044B984700BF80BD00BF15124000F1
:1012600000100E40DD0D4000000E0E4080B584B031
:1012700000AF274BFB60274BBB60FA68BB689A4204
:101280000DD907E0BB681A1DBA60FA68111DF96034
:1012900012681A60BB68204A9342F3D320E0FA68D0
:1012A000BB689A421CD21C4A1A4BD31A7B60FA685C
:1012B0007B681344043BFB60BA687B681344043BBF
:1012C000BB600AE0BB681A1FBA60FA68111FF960B8
:1012D00012681A607B68043B7B607B68002BF1D14D
:1012E00000BF0E4BBB6004E0BB681A1DBA60002251
:1012F0001A60BB680A4A9342F6D30A4BFB600A4A5B
:10130000FB689360094B9847094B9847FEE700BF7D
:10131000A04B40000000002074080020740800204A
:10132000540900200000400000ED00E0ED1D4000E9
:10133000D919400080B400AFFEE700BF80B400AF11
:101340005D4B1B6B03F00303032B00F2968001A29D
:1013500052F823F06513400085134000CF1340007E
:10136000CF134000554B5B6903F08003002B04D082
:10137000534B4FF400421A6080E0514B4FF4FA4255
:101380001A607BE04C4B1B6A03F08073002B03D088
:101390004B4B4C4A1A6071E0494B4B4A1A60464B22
:1013A0001B6A03F07003102B08D0202B0AD0002BEF
:1013B00000D00BE0424B444A1A6007E0404B434ADE
:1013C0001A6003E03E4B3F4A1A6000BF56E03A4BBA
:1013D0001B6A03F08073002B03D0394B394A1A6023
:1013E00019E0374B384A1A60334B1B6A03F070031D
:1013F000102B08D0202B0AD0002B00D00BE0304B54
:10140000314A1A6007E02E4B304A1A6003E02C4B39
:101410002C4A1A6000BF284B1B6B03F00303022BFE
:1014200015D1254B9A6A2A4B13401B0C0133244AD1
:10143000126802FB03F3224A13601F4B9B6ADBB264
:101440001F4A1268B2FBF3F31D4A136016E01A4BF1
:10145000DA6A1F4B13401B0C0133194A126802FB56
:1014600003F3174A1360144BDB6ADBB2144A1268A9
:10147000B2FBF3F3124A136000E000BF0E4B1B6B8C
:1014800003F07003702B08D10D4B1B68114AA2FBAF
:1014900003235B080A4A13600AE0074B1B6B03F047
:1014A00070031B09064A126822FA03F3044A136008
:1014B00000BFBD4680BC704700040E4010140E40B3
:1014C0000C000020001BB70000093D0000127A004C
:1014D0000000FF07ABAAAAAA80B483B000AF78606F
:1014E0007B68224A934208D8214B4FF080621A60F1
:1014F000204B4FF080621A6033E07B681E4A9342B3
:1015000006D81B4B1D4A1A601A4B1C4A1A6028E069
:101510007B681B4A934206D8154B1A4A1A60154B32
:10152000184A1A601DE07B68174A934206D8104B90
:10153000164A1A600F4B154A1A6012E07B68144A6B
:10154000934208D80A4B4FF004221A60094B4FF01F
:1015500004221A6005E0064B0E4A1A60054B0D4A3C
:101560001A6000BF0C37BD4680BC7047FF2C3101AC
:10157000000A0E40000C0E40FF59620200010004F8
:10158000FF86930300020004FFB3C40400030004B9
:10159000FFE0F5050005000480B485B000AF786079
:1015A000104BFB60104B1B68002B02D10E4B0F4AF7
:1015B0001A600D4B1B68BB60BA687B681A44FB68F5
:1015C0009A4202DD4FF0FF3306E0074B1A687B6852
:1015D0001344054A1360BB6818461437BD4680BCE7
:1015E000704700BFFC7F0220080900205839002006
:1015F00080B483B000AF78604FF0FF3318460C37EB
:10160000BD4680BC704700BF80B483B000AF786037
:1016100039603B684FF400525A60002318460C377B
:10162000BD4680BC704700BF80B483B000AF786017
:10163000012318460C37BD4680BC704780B485B086
:1016400000AFF860B9607A60002318461437BD46D1
:1016500080BC704780B483B000AF78607B68072B94
:1016600025D801A252F823F0891640008F164000B9
:10167000951640009B1640009F164000A3164000A0
:10168000A7164000AB1640004FF4FA4310E04FF4A9
:1016900000430DE04FF400430AE0084B08E0084B1C
:1016A00006E0084B04E0074B02E0064B00E0002395
:1016B00018460C37BD4680BC704700BF00093D008E
:1016C00000127A00001BB70080B500AF0620044B63
:1016D0009847024613469B0013449B00184680BD62
:1016E0005516400080B500AF024B984703465B0893
:1016F000184680BDC916400080B500AF024B984720
:1017000003465B08184680BDC916400080B582B00C
:1017100000AF78607868034B984700BF0837BD4634
:1017200080BD00BF7911400080B58CB000AF7860FB
:101730003960314B984703467B623B681B68BB624C
:101740003B689B68FB623B681B68FB603B685B68AF
:101750003B613B689B687B613B68DB68BB61002346
:10176000FB617B68254A934208D10820244B9847A7
:1017700007F1240319467868224B98477B68224A70
:10178000934208D109201E4B984707F124031946BC
:1017900078681C4B98477B681C4A934211D10E20F5
:1017A000174B9847144B9847024607F10C0319460C
:1017B0007868174B98477868164B98477868164BA7
:1017C00098477B68154A934211D10F200C4B9847DC
:1017D000094B9847024607F10C03194678680C4BF1
:1017E000984778680B4B984778680B4B984700BF31
:1017F0003037BD4680BD00BFF916400000060E40E0
:101800000D1740000503400000080E400040024054
:10181000AD044000310540006105400000800240F9
:1018200080B582B000AF78600B46FB707B68204AC1
:1018300093420AD100BFFB78194678681D4B984740
:101840000346002BF7D101232DE07B681A4A93420F
:101850000AD100BFFB7819467868164B98470346B3
:10186000002BF7D101231EE07B68144A93420AD172
:1018700000BFFB7819467868114B98470346002B48
:10188000F7D101230FE07B680E4A93420AD100BFD3
:10189000FB78194678680A4B98470346002BF7D126
:1018A000012300E0002318460837BD4680BD00BF75
:1018B00000060E406503400000080E400040024054
:1018C000E50540000080024080B584B000AF78603C
:1018D00039600023FB607B681F4A934207D100BF39
:1018E000396878681D4B98470346002BF8D17B6810
:1018F0001B4A934207D100BF39687868174B984755
:101900000346002BF8D17B68164A93420DD100BFE5
:1019100007F10C0319467868134B98470346002BD0
:10192000F6D1FB68DAB23B681A707B680F4A9342C3
:101930000DD100BF07F10C03194678680A4B984790
:101940000346002BF6D1FB68DAB23B681A7000BF81
:101950001037BD4680BD00BF00060E409503400015
:1019600000080E4000400240150640000080024082
:1019700080B582B000AF786039600F4A7B68136031
:101980000E4B0F4A1A600F4B0F4A1A60396878687D
:101990000E4B98470E4B1B689B68002118460D4B59
:1019A00098470B4B1B685B6800211846094B98470A
:1019B00000BF0837BD4680BD48090020440900200B
:1019C0002118400040090020C91840002917400094
:1019D00038040020011F40002DE9F84F00AF234BD1
:1019E0009847234B98474FF060515720214B984719
:1019F000214B98475A212148214B9847214B984722
:101A0000034618464FF0000102460B464FEA830B8F
:101A10004BEA927B4FEA820A52465B465D0145EAF9
:101A2000D2655401A41A65EB0305241845EB0105A2
:101A30004FEAC50949EA54794FEAC40844464D467D
:101A40002046294643F2AF624FF00003801841EB75
:101A500003010D4E43F2B0624FF00003B04702465F
:101A60000B4613461846094B9847C3E751094000F7
:101A7000351240002D0C4000911A4000144B4000DC
:101A80003D1E4000E5164000D51A40000100002030
:101A900080B584B000AF3B4600221A605A609A605D
:101AA000DA604FF4E1333B604FF40063BB60092020
:101AB000054B98473B4619460448054B984700BFDD
:101AC0001037BD4680BD00BF0D17400000080E4016
:101AD0007119400053B94AB9002908BF00281CBF3A
:101AE0004FF0FF314FF0FF3000F07EB9ADF1080C40
:101AF0006DE904CE00F006F8DDF804E0DDE902232C
:101B000004B070472DE9F0478C460E460446089D08
:101B1000002B50D18A4217466CD9B2FA82FEBEF130
:101B2000000F0BD0CEF1200420FA04F401FA0EF6D7
:101B300044EA060C02FA0EF700FA0EF44FEA1749CF
:101B4000220CBCFBF9F01FFA87F809FB10C642EA29
:101B5000064600FB08F3B34209D9F61900F1FF323B
:101B600080F02281B34240F21F8102383E44F61ACF
:101B7000A2B2B6FBF9F309FB136642EA064403FB83
:101B800008F8A04509D9E41903F1FF3280F00A8171
:101B9000A04540F20781023B3C44C8EB040443EA01
:101BA00000400021002D62D024FA0EF400232C60A6
:101BB0006B60BDE8F0878B4207D9002D55D000211E
:101BC00085E841000846BDE8F087B3FA83F10029B3
:101BD00040F09080B34202D3824200F2F880841A2F
:101BE00066EB03060120B446002D40D085E81010B6
:101BF000BDE8F08712B90127B7FBF2F7B7FA87FE05
:101C0000BEF1000F35D1F31B4FEA17481FFA87FCCE
:101C10000121B3FBF8F0220C08FB103642EA06461D
:101C20000CFB00F3B34207D9F61900F1FF3202D2E0
:101C3000B34200F2CE801046F61AA2B2B6FBF8F319
:101C400008FB136642EA06440CFB03FCA44507D9D3
:101C5000E41903F1FF3202D2A44500F2B580134625
:101C6000CCEB040443EA00409CE729462846BDE843
:101C7000F087CEF1200106FA0EF307FA0EF720FAEC
:101C800001F94FEA1748CE4049EA0309B6FBF8FAD2
:101C90004FEA194408FB1A661FFA87FC44EA064318
:101CA0000AFB0CF29A4200FA0EF40AD9DB190AF187
:101CB000FF3180F087809A4240F28480AAF1020AC4
:101CC0003B449B1A1FFA89F9B3FBF8F108FB113367
:101CD00049EA034301FB0CF69E4207D9DB1901F1E7
:101CE000FF326BD29E4269D902393B449B1B41EAC9
:101CF0000A418EE7C1F1200E22FA0EF48B402343F5
:101D000020FA0EF706FA01F44FEA134C26FA0EF603
:101D10003C43B6FBFCF9270C0CFB19661FFA83F851
:101D200047EA064609FB08F7B74202FA01F200FA51
:101D300001FA08D9F61809F1FF3041D2B7423FD96C
:101D4000A9F102091E44F61BA0B2B6FBFCF40CFB81
:101D5000146640EA064704FB08F8B84507D9FF189F
:101D600004F1FF3028D2B84526D9023C1F4444EA8A
:101D70000940C8EB0707A0FB02894F4544464E4681
:101D800014D329D065B3BAEB040367EB060707FA4F
:101D90000EFECB40CF404EEA030385E888000021C9
:101DA000BDE8F0871346F8E61046E0E6B8EB02041B
:101DB00069EB03060138E5E70446D8E7114695E7E5
:101DC0008146C0E78A467CE7023B3C4448E7084638
:101DD0000AE702383E442FE7C245E7D33E46D1E743
:101DE0002946BDE8F08700BF704700BF70B50F4EB1
:101DF0000F4D761BB61018BF002405D0013455F8DE
:101E0000043B9847A642F9D10A4E0B4D761B02F0CF
:101E1000B1FEB61018BF002406D0013455F8043BBB
:101E20009847A642F9D170BD70BD00BF804B4000FD
:101E3000804B4000884B4000804B40000FB400B501
:101E4000074983B004AB086853F8042B81680193F9
:101E500000F042F903B05DF804EB04B0704700BF36
:101E60003804002070B4840746D0541E002A41D0A4
:101E7000CDB2034602E0621EE4B3144603F8015BF0
:101E80009A07F8D1032C2ED9CDB245EA05250F2C9F
:101E900045EA054519D903F110022646103E0F2EDA
:101EA00042F8105C42F80C5C42F8085C42F8045CB2
:101EB00002F11002F2D8A4F1100222F00F0204F095
:101EC0000F041032032C13440DD91E462246043A47
:101ED000032A46F8045BFAD8221F22F003020432D8
:101EE000134404F003042CB1C9B21C4403F8011BD1
:101EF000A342FBD170BC704714460346C2E700BF43
:101F000000290CBF022200224FF4806300F000B8C9
:101F10002DE9F043514C256883B004460F469046A6
:101F20001E4615B1AB6B002B79D0B8F1020F04D06F
:101F3000B8F1010F7FD8002E7DDB2146284601F045
:101F400017F9216B41B104F14003994202D02846B0
:101F500001F06CFA00232363B4F90C300022A26173
:101F600062601A0654D423F44A6323F00303B8F1E1
:101F7000020FA38139D001AB6A462146284601F001
:101F8000F3FCA3891843A08126B327B3AB6B002BC6
:101F90004DD0009BB4F90C0027609E421CBF40F45A
:101FA0000060A081B8F1010F08BF40F0010083B2CA
:101FB00008BFA08103F0080080B22761666118B3F2
:101FC00013F001002FD000207642A661A06003B07C
:101FD000BDE8F083009E304601F03AFD074668B345
:101FE000A38943F08003A381D0E7002004F14302DA
:101FF00043F0020300250121A381A5602260226134
:10200000616103B0BDE8F083A06003B0BDE8F08378
:102010002169284601F00AFAB4F90C30A3E72846F2
:1020200001F03AF981E7A66003B0BDE8F0832846E5
:1020300001F032F9ADE74FF0FF30E2E7DDF8009054
:10204000B14506D0484601F003FD074608B14E46AB
:10205000C6E7B4F90C304FF0FF30C7E73804002072
:102060004B6E2DE9F0479C0492462CD5936812687C
:102070003BB30F46804602F1080919E96000B60833
:1020800017D0043D002401E0A64210D03A4655F88E
:10209000041F404601F06AF9431C04F10104F3D126
:1020A0000023CAF80830CAF80430BDE8F087DAF82F
:1020B0000830A3EB8603CAF8083009F10809002BA1
:1020C000DBD10020ECE701F099FA0023CAF80830D0
:1020D000CAF80430BDE8F0872DE9F04FABB01C46DC
:1020E000009190460493059018B1836B002B00F08B
:1020F000DE800098B0F90C108AB2950407D4436EC4
:1021000041F4005223F400538281436692B21107D6
:1021100040F1B180009B1B69002B00F0AC8002F005
:102120001A020A2A00F0B58000230DF1680B029311
:102130000F930E93CDF834B0DA4698F80030444649
:10214000FBB1252B02D11CE0252B03D014F8013F55
:10215000002BF9D1C8EB04059DB10E9B0F9ACAF86C
:10216000008001332A44072BCAF804500F920E93C3
:102170007BDD002A40F02885029B0E922B44DA4634
:1021800002932378002B00F03E8400214FF00003DF
:102190004FF0FF328DF82F3004F10108637801927F
:1021A00008460E460C4608F10108A3F12002582A01
:1021B00000F29383DFE812F04603910391034E038C
:1021C00091039103910391039103910389026702A3
:1021D000910380006C029103C60159025902590211
:1021E00059025902590259025902590291039103A5
:1021F000910391039103910391039103910391033F
:10220000CB019103910391039103910391039103F6
:10221000910391039103140291039103910391039C
:102220009103EE0291039103110391039103910332
:10223000910391039103910391039103910334035B
:102240008A0391039103910367038A039103910326
:102250006C039103790395028500E90291039B02C7
:102260009103BA029103910353030AF1080A029BF6
:102270002B44029385E70099059800F061FE002841
:1022800040F05885009B9A8902F01A020A2A7FF4CE
:102290004BAF0099B1F90E30002BFFF645AF234646
:1022A0004246059800F016FE2BB0BDE8F08F00F016
:1022B000F3FF1EE76442049346F0040698F80030EA
:1022C00071E7302104988DF83010019906944FF091
:1022D000000378228DF82F30002903468DF8312035
:1022E000046803F104034FF0000546F00202C0F257
:1022F000258526F0800654EA050246F0020604937E
:1023000040F0BF84B348019B002B40F01C849946E9
:102310000023019303935F46019B039A9342B8BF46
:1023200013461D46B9F1000F00D0013516F0020327
:10233000079318BF023516F08403089340F0F1822A
:10234000069B5C1B002C40F3EC82102C40F356855E
:10235000DFF88492DDF838E00F9AD4461023C246A5
:102360007046A8464D46DDF8149007E000F1020ED5
:102370000CF1080C0846103C102C13DD411C1032E7
:1023800007290F92CCF80050CCF804300E91EDDD07
:10239000002A40F0B782103C102C10464FF0010E7E
:1023A000DC46EBDCA94670464546D046E246224470
:1023B00007280F92CAF80090CAF804400E9000F364
:1023C00075839DF82F300AF1080A00F1010E002BE9
:1023D00040F0B082079B002B00F0C38202320CA9B0
:1023E0000223BEF1070F0F92CDF838E08AE80A0009
:1023F00040F37883002A40F00A84089B802B4FF03A
:10240000010E1046DA4640F0B082069B5C1B002CA1
:1024100040F3AB82102CDFF8C49140F30B85D64615
:102420001023C246A8464D46DDF8149007E000F19F
:10243000020C0EF1080E0846103C102C13DD411C56
:10244000103207290F92CEF80050CEF804300E91CA
:10245000EDDD002A40F01583103C102C4FF0010CEC
:102460001046DE46EBDCA9464546D046F2462244FD
:10247000BCF1070F0F92CAF80090CAF80440CDF8DB
:1024800038C000F3D283019B03995C1A002C0AF137
:10249000080A0CF1010E604600F36D820399CAF838
:1024A00000700A44BEF1070F0F92CAF80410CDF86D
:1024B00038E040F3CE82002A40F03A8370070E9253
:1024C00038D5069B5C1B002C34DDDA46102C40F31B
:1024D000AB84DFF804910E994F461026DDF8149076
:1024E00006E0881C0AF1080A1946103C102C13DD7E
:1024F0004B1C1032072B0F92CAF80070CAF8046008
:102500000E93EEDD002A40F08E82103C102C4FF02E
:1025100001001146DA46EBDCB946224407280F9247
:10252000CAF80090CAF804400E9040F39B82002A3B
:1025300040F02584029B069AAA42ACBF9B185B1907
:10254000029399E246F0800698F800302BE6069454
:10255000002940F0AF8446F01006B30640F1128324
:102560000499073121F00701D1E9002308310491D2
:1025700014461D46002A73F10003C0F28683019BB6
:102580009DF82F90002BC0F21A8354EA050326F021
:10259000800600F0ED80002D08BF0A2CC0F0ED8011
:1025A0005F46204629460A220023FFF793FA30327D
:1025B00007F8012D2046294600230A22FFF78AFA50
:1025C00004460D4654EA0503EBD1C7EB0B03039316
:1025D000A2E600BF484B4000644B4000244B400043
:1025E0000694002940F0628446F0100616F020039D
:1025F00000F0AE82049B073323F007034FF0000284
:102600008DF82F20D3E9004503F10802019B0492C5
:10261000002BC0F2748154EA050326F0800640F0D6
:102620006E81019B002B00F030844FF000090024E4
:1026300000255F46E20842EA4572E90804F0070314
:102640000D461446303354EA050207F8013DF1D136
:10265000F407BAD5302BB8D030227B1E07F8012CF6
:10266000C3EB0B0203921F4656E6A3F1300200248F
:1026700018F8013B04EB840402EB4404A3F130029C
:10268000092AF5D991E598F8003001212B208AE537
:1026900098F800302A2B08F1010500F0DD83A3F142
:1026A0003002092AA84698BF002500F2CE8318F808
:1026B000013B05EB850502EB4505A3F13002092A34
:1026C000F5D945EAE57201926FE5049A146813465C
:1026D000002C03F10403FFF6EDAD049398F80030ED
:1026E00061E50694002981D08DF82F007EE7049AD9
:1026F000069417684FF000038DF82F30141D019BCE
:10270000002F00F08683002BC0F25F831A46002161
:10271000384601F05DFC002800F08F83C31B039353
:10272000002304949DF82F900193F5E50694002969
:1027300040F0B98316F0200935D116F0100303D10B
:1027400016F0400940F02A83049A13461468019A4F
:102750008DF82F90002A03F104034FF00005C0F21A
:10276000328354EA050226F0800604937FF413AF07
:10277000019B002B3FF4CCAD00242AAF303407F886
:10278000414DC7EB0B030393C6E546F0200698F8CE
:10279000003008E50694002940F06E8346F01006EC
:1027A00016F02009C9D0049B073323F007034FF02C
:1027B00000028DF82F20D3E9004503F10802019BA8
:1027C0000492002BC0F2F98154EA050326F080063A
:1027D0004FF000097FF4DFAECAE70694002940F00D
:1027E0005183B206AE4841D5049A073222F007025F
:1027F000D2E9004502F10801049116F0010900F048
:10280000778154EA050240F026824FF000038DF8EC
:102810002F30019B002BC0F2968126F0800672E5D6
:10282000049A069413688DF8403013464FF0000167
:10283000012504338DF82F100493039510AF002366
:10284000019373E598F8003000287FF4ACAC0121C7
:102850002020A8E446F0010698F80030A3E406948E
:10286000002940F00C83B2068E48BDD40499F706C7
:102870000A4600F19D81750640F19A8104320C8868
:1028800004920025B9E746F0400698F800308AE443
:1028900098F800306C2B03BF98F8013046F0200602
:1028A00008F1010846F010067DE4002940F0098394
:1028B000B40640F11C82049A02991368CD170846A9
:1028C000043229460492C3E9000136E40694002943
:1028D0003FF443AE8DF82F003FE60694002940F008
:1028E000ED82002B00F08F8001258DF840304FF0F5
:1028F00000038DF82F30039510AFA0E704934FF03D
:10290000000996E60DAA009909934846FFF7A8FB2F
:1029100000287FD10E980F9A099B00F1010EDC462A
:1029200029E50E980F9A00F1010E9DF82F30002B2B
:102930003FF450AD01320DF12F010123BEF1070F1D
:102940000F92CDF838E08AE80A0040F3BF80002AF1
:1029500040F04E810799002940F0BE809E46104607
:10296000DA46089B802B3FF450AD019B03995C1A1B
:10297000002C7FF793AD102CDFF82C9125DDD44689
:102980001023C246A8464D46DDF8149007E000F13A
:10299000020E0CF1080C0846103C102C11DD411CF5
:1029A000103207290F92CCF80050CCF804300E9169
:1029B000EDDDD2B9103C102C4FF0010E1046DC4674
:1029C000EDDCA9464546D046E2462244BEF1070F5B
:1029D0000F92CAF80090CAF80440CDF838E02EDC17
:1029E0000AF1080A0EF1010E58E50DAA00990193AB
:1029F0004846FFF735FB68B90E980F9A019B00F126
:102A0000010EDC46C8E70F9B23B1059800990DAA7B
:102A1000FFF726FB009B9B895A0600F18B810298E9
:102A20002BB0BDE8F08F0DAA00994846FFF718FBC0
:102A30000028EFD10E990F9A481CDA4655E5002A76
:102A400040F0FB80039A1B9201230F921A970E937A
:102A5000DA460AF1080A710704D5069B5C1B002CB4
:102A60003FF734AD029B0699A942ACBF5B185B19D6
:102A70000293002A40F0B38000230E93DA46FFF75A
:102A80005CBB0DAA009907934846FFF7E9FA0028B6
:102A9000C0D10E980F9A079B00F1010CDE46CBE4E3
:102AA000344B4000484B4000244B4000002A40F08B
:102AB00033819DF82F30002B00F0F58001230DF1BC
:102AC0002F011A461B939E461A91DA4670460AF168
:102AD000080A0EF1010E7DE40CA902229E461A910D
:102AE0001B92DA4670460AF1080A0EF1010E38E729
:102AF000019B8DF82F90002BC0F22A8154EA050328
:102B000026F080063FF4FFAB5F46230904F00F0177
:102B100043EA05732A091C461546435C07F8013D44
:102B200054EA0503F1D1C7EB0B030393FFF7F4BBA2
:102B30000DAA00990598FFF793FA00287FF46AAF71
:102B40000F9ADA4687E74FF0000900240025DBE7FB
:102B500016F0100200F0B28004998DF82F300A466A
:102B60000C680199002902F104024FF00005C0F23F
:102B7000598154EA050126F0800604923FF451ADD4
:102B8000994656E5F7060AD4750608D50499B1F9B1
:102B900000400431E51722462B460491EAE4049AEA
:102BA000146813460433E517049322462B46E1E4E8
:102BB00014680432049200251FE64FF0000954EA1D
:102BC00005037FF4E8ACD8E50DAA00990598FFF756
:102BD00047FA00287FF41EAFDA46FFF748BB0DAA7C
:102BE00000990598FFF73CFA00283FF445AF11E73C
:102BF0000DAA00990598FFF733FA00287FF40AAF71
:102C00000E980F9A00F1010EDA46FFF7E3BB0DAA0A
:102C100000990598FFF724FA00287FF4FBAE0E9880
:102C20000F9A00F1010EDA469BE6002A40F0D880A8
:102C30004FF0010E1046DA4697E60DAA0099059866
:102C4000FFF70EFA00287FF4E5AE0E9B0F9A03F112
:102C5000010EDA4622E430228DF83020019A8DF8F8
:102C60003130002A4FF000038DF82F3046F0020378
:102C7000C0F2CB8026F0800646F002064FF0000935
:102C800042E74FF0000990483EE7019B64424FF055
:102C90002D0965EB4505002B8DF82F90FFF67BACD9
:102CA00026F0800677E4079B002B72D00CAB022243
:102CB0001A931B924FF0010EDA4613E716F0400903
:102CC00048D004998DF82F200B460C8801990029D3
:102CD00003F104034FF00005FFF610AE54EA0501BE
:102CE00026F0800604933FF49CAC9146A1E4F006E4
:102CF0000AD4710608D5049A136804320492BDF808
:102D000008201A80FFF719BA049A13680432049253
:102D1000029A1A60FFF711BA0DAA00990598FFF7F9
:102D20009FF900287FF476AE0E980F9A00F1010EFD
:102D3000DA46FAE54FF0FF30FFF7B6BA62481646BA
:102D400054EA050204934FF000097FF4DDAEFCE67F
:102D5000049BF5E7049A8DF82F9013461468019AA6
:102D6000002A03F104034FF00005FFF6C7AD54EA53
:102D7000050226F0800604937FF45BAC51E40DAAB3
:102D800000990598FFF76CF900287FF443AE0F9A7D
:102D900068E610464FF0010EDA46E6E504998DF834
:102DA0002F300A460C880199002902F104024FF0E5
:102DB00000054EDB54EA050126F080060492994690
:102DC0007FF4E9ABD4E40493F9E63846049401F0C7
:102DD00097FC002303909DF82F900193FFF79CBA76
:102DE0000DAA00990598FFF73BF900287FF412AE71
:102DF0000E980F9A00F1010EDA46B6E50E980F9A7A
:102E0000DFF8CC900130FFF7D2BA1E464FF0000930
:102E10007AE6062B28BF06230393049423EAE3757E
:102E20002A4F0CE504926AE50E98DFF8A490013071
:102E3000FFF773BBF446FFF71ABB019B9DF82F9079
:102E4000039304940190FFF767BA00220192FFF701
:102E5000ACB904929946B2E6049A1368019304321D
:102E6000002B049298F80130A846BFF69CA94FF0B9
:102E7000FF320192FFF797B98DF82F008EE48DF89D
:102E80002F00F0E48DF82F00ABE49946F30705D549
:102E90002AAF302307F8413DFFF797BB019B03930F
:102EA0005F46FFF739BA8DF82F0043E48DF82F0005
:102EB000FFF79ABB8DF82F00FFF74DBB8DF82F0061
:102EC0000FE58DF82F00F3E4484B40005C4B4000C9
:102ED000644B4000F0B50C46ADF26C4D8989666ECE
:102EE000E589199621F00201666AADF80E500025B9
:102EF000E769ADF80C10099606951AAE4FF4806597
:102F00006946009604960295059507970646FFF7D1
:102F1000E3F8051E07DB3046694600F029F9002872
:102F200018BF4FF0FF35BDF80C305B0603D5A38901
:102F300043F04003A38128460DF26C4DF0BD00BF65
:102F400038B5304B1B6805460C4613B19A6B002A06
:102F500038D0B4F90C2093B218070CD52069A8B169
:102F600013F001021ED0636900225B42A361A260DC
:102F7000F0B1002038BDD9063CD5580726D42069C9
:102F800042F00803A3819BB20028E9D103F4207228
:102F9000B2F5007FE4D02846214600F015FDA38954
:102FA0002069DDE7990758BF6269A2600028E0D177
:102FB000B4F90C301A06DDD543F04003A3814FF07D
:102FC000FF3038BD184600F067F9C2E7216B51B1F8
:102FD00004F14003994204D0284600F027FAB4F9DE
:102FE0000C200023236300232069636022F0240265
:102FF0002060C5E742F0400209232B604FF0FF300C
:10300000A28138BD38040020024B13B1024800F001
:1030100005B8704700000000AD32400000230146B3
:103020001A46184601F07EBCB1F90C309AB22DE96F
:10303000F0410D46110780463CD46A6843F40063B2
:10304000002AAB8173DDAC6A002C4BD09BB203F439
:103050008052002192B2D8F80060C8F80010002A0F
:1030600069D02A6D5F0705D569682B6B521A0BB1C1
:10307000EB6BD21A0023E9694046A047441C3CD0C0
:10308000B5F90C302A692A6023F400630022AB8171
:10309000DB046A6049D4296BC8F8006011B305F1FC
:1030A0004003994202D0404600F0C0F90020286356
:1030B000BDE8F0812E69AEB12C682E6090070CBF80
:1030C0006B690023A41BAB600AE0234632466F6A9B
:1030D000E9694046B8470028A4EB0004064404DD33
:1030E000002CF2DC0020BDE8F081AB8943F0400306
:1030F000AB814FF0FF30BDE8F081D8F800201D2AE9
:10310000F3D81A4BD34003F0010383F00104002BE2
:10311000EBD0B5F90C302969296023F40063D90498
:103120006C60AB81B7D5002AB5D12865B3E7EA6BEF
:10313000002A88DCD6E70123E9694046A047431C02
:10314000024602D0AB89AC6A8CE7D8F80030002B7D
:10315000F8D01D2B01D0162B02D1C8F80060C1E7B2
:10316000AB8943F04003AB81BDE8F0810100402012
:1031700010B5044682B008B1836B53B1B1F90C00AD
:1031800008B902B010BD204602B0BDE81040FFF7FC
:103190004BBF019100F080F80199EFE7014900F081
:1031A000AFBB00BFED4940002DE9F04F354B4568FE
:1031B000C3630024074600F53B7204230321C0F8D3
:1031C000E412C0F8E822C0F8E04283B02C606C60E2
:1031D000AC606C66EC812C616C61AC61AB812146AA
:1031E00005F15C000822FEF73DFEBE68DFF898B0EE
:1031F000DFF898A0DFF89890DFF89880C5F820B045
:1032000001230922C5F824A0C5F82890C5F82C8010
:10321000ED612146F381B28106F15C003460746097
:10322000B460746634617461B46108220193FEF77E
:1032300019FEFD68F66112200222C6F820B0C6F819
:1032400024A0C6F82890C6F82C802146A881EA81DF
:103250002C606C60AC606C662C616C61AC6105F1DB
:103260005C000822FEF7FEFD019BED61C5F820B071
:10327000C5F824A0C5F82890C5F82C80BB6303B01E
:10328000BDE8F08F9D314000794640009D464000EA
:10329000D9464000F9464000836B03B17047FFF701
:1032A00083BF00BF704700BF704700BF38B5074DF0
:1032B000074C2C1BA41005D0013C55F8043D984741
:1032C000002CF9D1BDE8384001F05EBC984B4000BD
:1032D000944B40002DE9F04782B080468946144661
:1032E00000F03CFB012833D004F15C034A4601A9FD
:1032F000404601F0C9FAB0F1FF3F824621D088B3C1
:103300009DF80460002508E023685A1C22601E70A6
:103310000135554526D201AB5E5DA368013B002B0C
:10332000A360F1DAA769BB4231462246404601DB81
:103330000A2EE9D101F052FA431CE9D102B0BDE8EE
:10334000F087A38943F04003A38102B0BDE8F08772
:1033500009F1FF33FE2BC7D85FFA89F682468DF854
:103360000460CFE7484602B0BDE8F087B2F90C3000
:1033700013F4005F0AD110B4546E43F4005344F4C4
:1033800000545466938110BCFFF7A4BFFFF7A2BF9F
:10339000F8B5234F0C46064600F068FFBB685D6831
:1033A00025F00305291B01F6EF7121F47F6121F05F
:1033B0000F01A1F58054B4F5805F07DB0021304692
:1033C00001F048F9BB682B44984204D0304600F025
:1033D0004FFF0020F8BD6142304601F03BF901305B
:1033E0000DD0104BBA6819682D1B45F00105304609
:1033F000091B5560196000F03BFF0120F8BD00215A
:10340000304601F027F9BA68831A0F2BDEDD064C2F
:103410000449246843F00103001B53600860D5E7AA
:1034200060040020180900206C080020002945D005
:103430002DE9F0410D46804600F018FF55F8047C58
:103440006A4927F00103A5F10804E2188E68506864
:10345000B24220F0030062D0FE0750600BD455F852
:10346000087CE41B01F1080EA56875453B446FD04C
:10347000E768EF60BD6015186D68ED0742D543F051
:1034800001026260E350B3F5007F18D2DB085A1CDA
:103490004D6851F83270A76001209B1000FA03F3C9
:1034A00001EBC2001D430838E0604D6041F8324036
:1034B000FC604046BDE8F04100F0DABE70475A0AB1
:1034C000042A53D89A0902F139077F0002F138051E
:1034D00001EB870051F827204449083890424DD02D
:1034E000516821F003018B4202D292689042F7D1D9
:1034F000D068E060A2608460D4604046BDE8F041DE
:1035000000F0B6BE95683A4FBD4203443FD0D06844
:10351000E86043F0010285606260E350B3E7FF07B3
:10352000034407D455F8082CA41A1344A068E26891
:10353000C26090602F4A126843F0010093426060BD
:103540008C60B6D32C4B40461968FFF721FFB0E7DB
:1035500011184968C90744D49168D268CA60034405
:1035600043F0010091606060E350A2E7142A17D88D
:1035700002F15C077F0002F15B05A9E7AA104B6826
:10358000012505FA02F213434B600246B1E743F00E
:1035900001024C610C61E560A5606260E35088E760
:1035A000542A06D81A0B02F16F077F0002F16E054C
:1035B0008EE7B2F5AA7F06D8DA0B02F178077F0012
:1035C00002F1770584E740F25450824206D89A0C03
:1035D00002F17D077F0002F17C0579E7FE277E2559
:1035E00076E743F001026260E35062E76004002086
:1035F0006804002068080020140900209368002B4C
:1036000076D02DE9F04F8B8985B00C4619070190D3
:10361000164629D522693AB303F002081FFA88F04A
:10362000356800282FD04FF00009B44FC846B24685
:10363000B84543464A4628BF3B460198B8F1000FBB
:1036400050D0E169666AB047002871DDDAF80830C9
:103650001B1A8144C0EB0808CAF80830002BE7D1D8
:10366000002005B0BDE8F08F21460198FFF768FC07
:10367000002840F03A81A389356803F002081FFA58
:1036800088F00028CFD113F001095BD14F46029694
:103690001FB39A05D4F808802CD54745C246C0F020
:1036A000A48013F4906F40F0B180206852464946E0
:1036B00000F078FDA0682368C8EB00005344A060C8
:1036C00023603846029A93681B1A81443F1A93601C
:1036D000002BC5D0A389002FDBD1D5F800906F68EF
:1036E0000835D5E7D5F80090D5F8048008359FE770
:1036F0000020704720682369984203D861698F428F
:1037000080F0B780B84528BFB8464246494600F029
:1037100049FDA3682268C8EB03034244A36022600A
:10372000002B49D121460198FFF722FD002843D004
:10373000B4F90C3043F040034FF0FF30A38105B0E3
:10374000BDE8F08F8046029082468146B9F1000FB5
:103750002AD0029B002B4CD0206823696269C8459F
:10376000C34628BFCB4698425F4604D9A36813449A
:103770009B4500F39080934520DB1346676AE1691F
:1037800001985246B847071ED2DDB8EB070823D090
:10379000B368DB1BBA44C7EB0909B360002B3FF4E5
:1037A0005FAFB9F1000FD4D10023D5F800A0D5F850
:1037B000049002930835C9E7404683E75A465146CC
:1037C00000F0F0FCA2682368CBEB02025B44B8EB8C
:1037D0000708A2602360DBD121460198FFF7C8FCEF
:1037E0000028A5D1CDF80880D2E72068B846BA46AF
:1037F0005CE74A460A21504600F0EAFB00286FD0F9
:1038000001300123CAEB00080293A5E76269206832
:10381000216902EB4208C1EB000A08EBD8780AF1F3
:1038200001004FEA680838444045424684BF80465C
:1038300042465B0542D51146019800F011F98346D6
:10384000002855D05246216900F012FCA38923F4C8
:10385000906343F08003A381CAEB08030BEB0A00DB
:10386000C4F81480C4F810B02060A360B846BA460B
:103870001CE76FF00043BB4228BF3B464A4693FB20
:10388000F1F30198666A01FB03F3E169B047002890
:103890003FF718AF4CE71A465146039300F082FCFD
:1038A0002268039B01981A4422602146FFF760FCBE
:1038B000039B00287FF43CAF1F4666E7019800F0A9
:1038C000D9FC83460028C7D1019D21692846FFF70E
:1038D000ADFDB4F90C300C2223F080032A6029E7F7
:1038E000012309F10108029336E74FF0FF30B8E6F3
:1038F000019A0C231360B4F90C301BE700FCFF7F26
:103900002DE9F84310F538771FD0884606464FF06A
:1039100000097D68BC68013D11D4A389012B05F124
:10392000FF3508D9B4F90E3001332146304602D0B4
:10393000C04749EA00096B1C04F16804EDD13F68F7
:10394000002FE6D14846BDE8F883B9464846BDE8B1
:10395000F88300BF004870473C040020014B186802
:10396000704700BF5C04002070B50D46B1F90E1021
:10397000002990B014461E4614DB01AA01F078F825
:1039800000280FDB029A02F47042A2F50052B2FA4C
:1039900082F252094FF480634FF40060326023607A
:1039A00010B070BDA88900F0800082B200203060A5
:1039B0001AB14023236010B070BD4FF480631046ED
:1039C000236010B070BD00BF8A8992070B4606D5F0
:1039D00001F1430201211A601A6159617047F0B583
:1039E00083B001AB6A460C460546FFF7BDFF009960
:1039F0000646284600F034F8B4F90C30D0B1019AEC
:103A0000124F0099EF6343F08003A381206020618F
:103A100061611AB93343A38103B0F0BD2846B4F9FC
:103A20000E1001F039F8B4F90C300028F2D043F050
:103A30000103EFE79A05EFD404F1430243F00203D8
:103A40000121A381226022616161E5E79D3140008F
:103A5000024B0146186800F003B800BF380400208C
:103A60002DE9F04F01F10B05162D83B0064640F20B
:103A70009F8035F0070500F1BF80A94200F2BC80AD
:103A800000F0F4FBB5F5FC7FC0F09C826B0A00F0FF
:103A9000BA80042B00F28381A80900F1390E4FEAA5
:103AA0004E033830C44F07EB8303A3F108015C6871
:103AB000A14207D1ACE0002A80F2AC80E468A142C8
:103AC00000F0A680636823F003035A1B0F2AF2DD7F
:103AD000B9493C6901F1080E744500F0B38163688F
:103AE00023F003035A1B0F2A00F39981002AC1F81F
:103AF00014E0C1F810E080F29E80B3F5007F80F002
:103B00006781DB0803F1010C01229B1002FA03F329
:103B10004A6851F83C80C4F8088001EBCC091A438C
:103B2000A9F10803E3604A6041F83C40C8F80C4042
:103B3000831001249C40944200F28A80144206D1F2
:103B400020F003006400144200F10400FAD007EBF7
:103B5000C009CC468046DCF80C108C4507D173E1D7
:103B6000002A80F28181C9688C4500F06D814B6824
:103B700023F003035A1B0F2AF2DD0C46D1F80CC0C8
:103B800054F8088F4B1945F001054D6042F00101D2
:103B9000C8F80CC03046CCF808807B613B61C3F8A4
:103BA0000CE0C3F808E059609A5000F061FB1FE098
:103BB000102921D800F05AFB1025062302207E4F41
:103BC00007EB8303A3F108025C68944200F045818F
:103BD0006368E168A56823F00303234430465A680C
:103BE000E96042F001028D605A6000F041FB083448
:103BF000204603B0BDE8F08F00240C23204633603C
:103C000003B0BDE8F08F80234FF0400E3F2049E71E
:103C100070465DE72344E1685A68A56842F00102F6
:103C2000E96030468D605A6000F022FB083420467F
:103C300003B0BDE8F08F234430465A6842F00102D9
:103C40005A6000F015FB0834204603B0BDE8F08F41
:103C5000BC68636823F00308A84504D3C5EB0803D8
:103C60000F2B00F38C80554BDFF860911A68D9F860
:103C7000003001332A4404EB080A00F0608102F5A9
:103C800080520F3222F47F6222F00F02114630463A
:103C9000019200F0DFFCB0F1FF3F8346019A00F093
:103CA0005881824500F2FC80454B1968DA45114481
:103CB000196000F05381D9F80000DFF810E10130FD
:103CC0001BBFCAEB0B0A5144CEF800B019601BF0C1
:103CD000070100F01781C1F10800C1F5805183444C
:103CE00008315A44C2F30B02C2EB0109494630467F
:103CF000019300F0AFFC431C019B00F03F81CBEB34
:103D000000024A4442F001021968C7F808B0494469
:103D1000BC42CBF804201960DFF8A49016D0B8F1AB
:103D20000F0F40F2FD806268A8F10C0323F0070337
:103D3000E01802F001024FF0050E1A430F2B6260EB
:103D4000C0F804E0C0F808E000F21C811D4BBC681C
:103D50001A68914288BF19601B4B1A6891426268C9
:103D600088BF196022F003029542A2EB050301D837
:103D70000F2B04DC304600F07BFA002438E7621990
:103D800043F0010345F0010565603046BA605360B9
:103D900000F06EFA0834204603B0BDE8F08F142B13
:103DA00071D9542B00F2A480280B00F16F0E4FEA5A
:103DB0004E036E3076E600BF600400201409002038
:103DC00018090020100900200C0900206C080020B0
:103DD0005A0A042A5ED9142A00F2B38002F15C0167
:103DE00049005B3207EB810C57F82110DFF8DC81CA
:103DF000ACF1080C8C4500F088804A6822F0030280
:103E0000934202D289688C45F7D1D1F80CC07A6808
:103E1000C4F80CC0A160CCF80840CC6088E66319F7
:103E200042F0010745F00105656030464B610B61CA
:103E3000C3F80CE0C3F808E05F609A50083400F063
:103E400017FAD5E64A6873E608F1010818F0030F7F
:103E50000CF1080C7FF47FAE30E0DC68A34208BFB1
:103E600002303FF435AEB3E60B440C465A68C968DD
:103E700054F8085F42F001025A603046E9608D60F4
:103E800000F0F6F9B4E603F15C0E03F15B004FEAD3
:103E90004E0307E69A0902F1390149003832A1E7D9
:103EA000BC424A4B3FF400AF9C68626822F00302B8
:103EB0005AE759F80839994540F0828010F0030F0D
:103EC00000F1FF30F5D17B6823EA04037B606400D6
:103ED0009C423FF6BDAE002C3FF4BAAE1C424046B9
:103EE0007FF435AE64001C4200F10400FAD02EE6E7
:103EF000B3F5AA7F18D8E80B00F1780E4FEA4E030D
:103F00007730CFE54FF48051EBE60121D8F804304B
:103F1000921001FA02F21A43C8F80420614677E7CA
:103F20000123CBF8043025E740F25452934220D8C5
:103F3000A80C00F17D0E4FEA4E037C30B2E5103242
:103F4000A4E6542A26D81A0B02F16F0149006E32FA
:103F500048E7BC68626822F0030205E7CAF30B0079
:103F600000287FF4A8AE4244BB6842F001025A60C8
:103F7000ECE6FE234FF07F0E7E2093E501224FF00A
:103F80000009C1E604F108013046FFF74FFAD9F8FD
:103F90000010DBE6B2F5AA7F05D8DA0B02F1780152
:103FA000490077321EE740F254518A4205D89A0CF4
:103FB00002F17D0149007C3214E7FE217E2211E7E7
:103FC0007B6884E7E808431C5B00F8E56004002098
:103FD00001F0FF01102A2BDB10F0070F08D010F8BA
:103FE000013B013A8B422DD010F0070F42B3F6D1BE
:103FF000F0B441EA012141EA014122F007047FF0D7
:1040000000070023F0E80256083C85EA010586EA2D
:10401000010685FA47F5A3FA87F586FA47F6A5FA69
:1040200087F68EB9EED1F0BC01F0FF0102F0070275
:1040300032B110F8013B013A83EA010313B1F8D120
:104040000020704701387047002D06BF3546033801
:10405000073815F0010F07D1013015F4807F02BF3A
:10406000013015F4C03F0130F0BC0138704700BF8B
:10407000844641EA000313F003036DD1403A41D373
:1040800051F8043B40F8043B51F8043B40F8043B32
:1040900051F8043B40F8043B51F8043B40F8043B22
:1040A00051F8043B40F8043B51F8043B40F8043B12
:1040B00051F8043B40F8043B51F8043B40F8043B02
:1040C00051F8043B40F8043B51F8043B40F8043BF2
:1040D00051F8043B40F8043B51F8043B40F8043BE2
:1040E00051F8043B40F8043B51F8043B40F8043BD2
:1040F00051F8043B40F8043B51F8043B40F8043BC2
:10410000403ABDD2303211D351F8043B40F8043B61
:1041100051F8043B40F8043B51F8043B40F8043BA1
:1041200051F8043B40F8043B103AEDD20C3205D371
:1041300051F8043B40F8043B043AF9D2043208D069
:10414000D2071CBF11F8013B00F8013B01D30B88DB
:1041500003806046704700BF082A13D38B078DD0B9
:1041600010F003038AD0C3F10403D21ADB071CBF8B
:1041700011F8013B00F8013B80D331F8023B20F8F5
:10418000023B7BE7043AD9D3013A11F8013B00F82E
:10419000013BF9D20B7803704B7843708B788370B6
:1041A000604670478842F0B50DD98B1898420AD204
:1041B0008118002A51D09A1A13F8014D01F8014DC7
:1041C0009342F9D1F0BD0F2A48D941EA00039B0779
:1041D00046D100F1100401F11003154653F8106C9C
:1041E00044F8106C53F80C6C44F80C6C53F8086CE1
:1041F00044F8086C103D53F8046C44F8046C0F2D1F
:1042000003F1100304F11004E8D8A2F1100323F025
:104210000F0302F00F0E1033BEF1030F19440344D5
:1042200021D91E1F0D467446043C55F8047B46F800
:10423000047F032CF8D8AEF1040424F00304043402
:104240002344214402F0030262B1013B0A4411F805
:10425000014B03F8014F8A42F9D1F0BD0346F3E761
:104260000346F2E7F0BD7246EEE700BF704700BFBD
:10427000704700BF2DE9F04F174683B0002900F0CA
:10428000C1800E46814607F10B05FFF7EFFF56F898
:1042900004EC162D2EF00304A6F1080840D81022D5
:1042A0001546AF4241D8944275DAC94B996808EB7C
:1042B00004008842416800F0D98021F001030344E2
:1042C0005B68DB077DD51EF0010F35D039464846C7
:1042D000FFF7C6FB0746E0B156F8043C23F00103A4
:1042E0004344A0F108029A4200F04481221F242A8C
:1042F00000F23181132A00F204810346324611682C
:1043000019605168596092689A6031464846FFF7D3
:104310008DF84846FFF7ACFF384603B0BDE8F08F94
:1043200025F00705002D2A46BBDA0C230020C9F82A
:10433000003003B0BDE8F08F56F8083CC3EB080A24
:10434000DAF8043023F0030C04EB0C039342BDDBDA
:104350005746DAF80C1057F8080F221F242AC160BC
:10436000886000F21781132A40F212813168CAF87E
:1043700008107168CAF80C101B2A00F22B8108364D
:104380000AF110023168116071685160B168916082
:104390003E461C46D046631B0F2B1DD8D8F8043070
:1043A00003F0010323434444C8F80430636843F036
:1043B000010363604846FFF75BFF304603B0BDE88A
:1043C000F08F21F003012144914221DBC368826810
:1043D0000C46D3609A60DEE7D8F8042008EB0501AC
:1043E00002F00102154343F001020B44C8F80450E7
:1043F0004A605A6842F0010208315A604846FFF7A5
:1044000015F8D7E7114603B0BDE8F04FFFF728BB1A
:104410001EF0010F7FF45AAF56F8083CC3EB080AB0
:10442000DAF8043023F0030C01EB0C0E96458BDB1D
:10443000C36882685746D3609A6057F8081FDAF855
:104440000C30CB60221F242A996000F29980132A35
:1044500062D93368CAF808307368CAF80C301B2A6E
:1044600000F2A08008360AF1100356E021F0030B99
:10447000A34405F11000834559DA1EF0010F7FF4C3
:1044800025AF56F8081CC1EB080ADAF8041021F031
:10449000030CE34458453FF757AF5746DAF80C1082
:1044A00057F8080F221F242AC160886000F2B480E8
:1044B000132A40F2A5803168CAF808107168CAF85A
:1044C0000C101B2A00F2AF8008360AF11002316886
:1044D000116071685160B16891600AEB0501C5EB2C
:1044E0000B0242F0010299604A60DAF8043003F0EE
:1044F00001031D434846CAF80450FFF7B9FE384689
:104500005CE733680360736843601B2A27D800F1B7
:10451000080306F10802F2E63B4632681A60726848
:104520005A60B2689A603E467446D04633E708EB5C
:104530000501C5EB0B0B4BF0010299604A6056F880
:10454000043C03F001031D43484646F8045CFFF7B2
:104550008FFE304632E73146FFF724FED5E6B368DA
:104560008360F368C360242A28D000F1100306F1A9
:104570001002C4E650F8043C23F003031C440AE78D
:10458000314638467446D046FFF70CFE3E4602E7F9
:104590003A46F7E6314638461C46D046FFF702FE5B
:1045A0003E46F8E6B368CAF81030F368CAF814302B
:1045B000242A1BD010360AF11803AEE733690361D1
:1045C0007369436106F1180200F1180397E600BF12
:1045D00060040020B168CAF81010F168CAF814101D
:1045E000242A0FD010360AF11802CBE63369CAF834
:1045F00018307369CAF81C3018360AF120038CE7AA
:104600003A4664E73269CAF818207269CAF81C2071
:1046100018360AF12002B5E6314638460193FFF715
:10462000C1FD019B59E7B168CAF81010F168CAF8DA
:104630001410242A03D010360AF1180247E7326911
:10464000CAF818207269CAF81C2018360AF120022C
:104650003DE700BF38B5074C0023054608462360F8
:10466000FCF79AFF431C00D038BD2368002BFBD019
:104670002B6038BD5009002010B50C46B1F90E1062
:1046800000F032FA002803DB236D0344236510BDDC
:10469000A38923F48053A38110BD00BF2DE9F0410D
:1046A0001646B1F90C201F46D3050C46054607D522
:1046B00000220223B1F90E1000F000FAB4F90C2028
:1046C000B4F90E1022F48052A2813B4632462846AD
:1046D000BDE8F04100F010B910B50C46B1F90E106C
:1046E00000F0ECF9A389421C0EBF23F4805343F47D
:1046F00080532065A38110BDB1F90E1000F064B99C
:1047000090F800F06DE9024520F007016FF0000C11
:1047100010F0070491F820F040F049804FF00004B9
:104720006FF00700D1E9002391F840F000F1080094
:1047300082FA4CF2A4FA8CF283FA4CF3A2FA8CF3CC
:104740004BBBD1E9022382FA4CF200F10800A4FA33
:104750008CF283FA4CF3A2FA8CF3E3B9D1E9042387
:1047600082FA4CF200F10800A4FA8CF283FA4CF3BE
:10477000A2FA8CF37BB9D1E9062301F1200182FA78
:104780004CF200F10800A4FA8CF283FA4CF3A2FA7E
:104790008CF3002BC6D0002A04BF04301A4612BA8C
:1047A000B2FA82F2FDE8024500EBD2007047D1E98F
:1047B000002304F00305C4F100004FEAC50514F01E
:1047C000040F91F840F00CFA05F562EA05021CBFEF
:1047D00063EA050362464FF00004A9E7F8B50E4608
:1047E0001446074610B1836B002B4AD0B4F90C2055
:1047F000A369A36091B2080738D52369002B35D08F
:104800008904F5B215D522686169D31A8B421CDA86
:104810000133A168501C0139A160206016706269E3
:104820009A421AD0A389DB0701D50A2D15D0284654
:10483000F8BD616E42F4005221F40051A281226859
:1048400061666169D31A8B42E2DB21463846FEF786
:104850008FFC40B922680123DBE721463846FEF78A
:1048600087FC0028E3D04FF0FF30F8BD21463846E2
:10487000FEF766FB0028F6D1B4F90C20236991B24B
:10488000BEE7FEF709FDB1E72DE9F041054686B028
:104890001E460C46A1B1104B1746D3F80080FFF717
:1048A00059F8009603463A4621462846C047431C1D
:1048B00003D100228A2332602B6006B0BDE8F0816C
:1048C000054B1F68FFF746F800960346224603A9EA
:1048D0002846B847EBE700BF7008002021B1FF2A47
:1048E00004D80A7001207047084670478A23036085
:1048F0004FF0FF30704700BF70B50D46084C1146B1
:1049000006461A46284600232360FBF737FC431C63
:1049100000D070BD2368002BFBD0336070BD00BF9A
:10492000500900202DE9F047254C2568D5F848416D
:104930000646884692469946C4B360681F2817DC2D
:10494000431C76B104EB80050122C5F888A0D4F899
:10495000881182401143022EC4F88811C5F80891CD
:104960001ED00230636044F820800020BDE8F0874C
:10497000144B03B34FF4C870FFF76AF80446D0B184
:10498000D5F84831002780E88800C5F84841384606
:104990000123C4F88871C4F88C71002EE1D0D1E7EE
:1049A000D4F88C110A43C4F88C21DAE705F5A67413
:1049B000C5F84841C1E74FF0FF30BDE8F08700BFC0
:1049C000204B4000513A400038B5074C00230546C3
:1049D00008462360FCF70CFE431C00D038BD23685A
:1049E000002BFBD02B6038BD5009002000293DD0A2
:1049F00070B505460C4608B1836B7BB3B4F90C3037
:104A00000BB9002070BD21462846FEF70DFBE36A76
:104A1000064633B1E169284698470028B8BF4FF0F1
:104A2000FF36A3891B061CD4216B41B104F140035E
:104A3000994202D02846FEF7F9FC00232363616CFB
:104A400021B12846FEF7F2FC00236364FEF72AFC3E
:104A50000023A381FEF728FC304670BDFEF71CFC46
:104A6000CCE721692846FEF7E1FCDDE7002070472E
:104A700038B50B46074C05461146184600232360FF
:104A8000FCF7C2FD431C00D038BD2368002BFBD0CF
:104A90002B6038BD5009002038B5074C002305466F
:104AA00008462360FCF7C0FD431C00D038BD2368D6
:104AB000002BFBD02B6038BD5009002070B50D468F
:104AC000084C114606461A46284600232360FCF788
:104AD000B5FD431C00D070BD2368002BFBD03360B4
:104AE00070BD00BF5009002070B50D46084C11463E
:104AF00006461A46284600232360FBF715FB431C95
:104B000000D070BD2368002BFBD0336070BD00BFA8
:104B10005009002025640D0A000000004300000039
:104B20001000002030303030303030303030303015
:104B30003030303030313233343536373839414225
:104B400043444546000000003031323334353637B7
:104B5000383961626364656600000000286E756C18
:104B60006C29000020202020202020202020202030
:104B700020202020F8B500BFF8BC08BC9E46704736
:104B800009304000F1004000F8B500BFF8BC08BC97
:084B90009E467047CD00400075
:084B98006CCFFF7F010000005B
:104BA000BFF35F8F0138FBD1704700BF00093D00A4
:104BB00000000000FC02002064030020CC03002061
:104BC00000000000000000000000000000000000E5
:104BD00000000000000000000000000000000000D5
:104BE000000000001C4B400000000000000000001E
:104BF00000000000000000000000000000000000B5
:104C000000000000000000000000000000000000A4
:104C10000000000000000000000000000000000094
:104C20000000000000000000000000000000000084
:104C30000000000000000000000000000000000074
:104C40000000000000000000000000000000000064
:104C50000000000000000000010000000000000053
:104C60000E33CDAB34126DE6ECDE05000B00000018
:104C70000000000000000000000000000000000034
:104C80000000000000000000000000000000000024
:104C90000000000000000000000000000000000014
:104CA0000000000000000000000000000000000004
:104FD0000000000000000000100000204153434981
:104FE0004900000000000000000000000000000078
:104FF00000000000000000000000000001000000B0
:105000000000000000000000600400206004002098
:105010006804002068040020700400207004002050
:105020007804002078040020800400208004002000
:1050300088040020880400209004002090040020B0
:105040009804002098040020A0040020A004002060
:10505000A8040020A8040020B0040020B004002010
:10506000B8040020B8040020C0040020C0040020C0
:10507000C8040020C8040020D0040020D004002070
:10508000D8040020D8040020E0040020E004002020
:10509000E8040020E8040020F0040020F0040020D0
:1050A000F8040020F804002000050020000500207E
:1050B000080500200805002010050020100500202C
:1050C00018050020180500202005002020050020DC
:1050D000280500202805002030050020300500208C
:1050E000380500203805002040050020400500203C
:1050F00048050020480500205005002050050020EC
:10510000580500205805002060050020600500209B
:10511000680500206805002070050020700500204B
:1051200078050020780500208005002080050020FB
:1051300088050020880500209005002090050020AB
:105140009805002098050020A0050020A00500205B
:10515000A8050020A8050020B0050020B00500200B
:10516000B8050020B8050020C0050020C0050020BB
:10517000C8050020C8050020D0050020D00500206B
:10518000D8050020D8050020E0050020E00500201B
:10519000E8050020E8050020F0050020F0050020CB
:1051A000F8050020F8050020000600200006002079
:1051B0000806002008060020100600201006002027
:1051C00018060020180600202006002020060020D7
:1051D0002806002028060020300600203006002087
:1051E0003806002038060020400600204006002037
:1051F00048060020480600205006002050060020E7
:105200005806002058060020600600206006002096
:105210006806002068060020700600207006002046
:1052200078060020780600208006002080060020F6
:1052300088060020880600209006002090060020A6
:105240009806002098060020A0060020A006002056
:10525000A8060020A8060020B0060020B006002006
:10526000B8060020B8060020C0060020C0060020B6
:10527000C8060020C8060020D0060020D006002066
:10528000D8060020D8060020E0060020E006002016
:10529000E8060020E8060020F0060020F0060020C6
:1052A000F8060020F8060020000700200007002074
:1052B0000807002008070020100700201007002022
:1052C00018070020180700202007002020070020D2
:1052D0002807002028070020300700203007002082
:1052E0003807002038070020400700204007002032
:1052F00048070020480700205007002050070020E2
:105300005807002058070020600700206007002091
:105310006807002068070020700700207007002041
:1053200078070020780700208007002080070020F1
:1053300088070020880700209007002090070020A1
:105340009807002098070020A0070020A007002051
:10535000A8070020A8070020B0070020B007002001
:10536000B8070020B8070020C0070020C0070020B1
:10537000C8070020C8070020D0070020D007002061
:10538000D8070020D8070020E0070020E007002011
:10539000E8070020E8070020F0070020F0070020C1
:1053A000F8070020F807002000080020000800206F
:1053B000080800200808002010080020100800201D
:1053C00018080020180800202008002020080020CD
:1053D000280800202808002030080020300800207D
:1053E000380800203808002040080020400800202D
:1053F00048080020480800205008002050080020DD
:10540000580800205808002000000200FFFFFFFF9E
:04541000DD48400033
:040000050040126D38
:00000001FF
