S015000053414D47454C4845414C4552532E7372656352
S214400000403D0020C92240009123400091234000FB
S21440001091234000912340009123400000000000BF
S2144000200000000000000000000000009123400097
S21440003091234000000000009123400051294000D9
S214400040912340009123400091234000912340009B
S214400050912340009123400091234000000000007F
S214400060912340009123400000000000610B4000B7
S214400070790B40000000000091234000912340008F
S2144000800000000000000000912340009123400043
S214400090912340009123400091234000912340004B
S2144000A09123400091234000000000000000000023
S2144000B0000000009123400091234000912340001F
S2144000C091234000912340009123400010B5054CF9
S2144000D0237833B9044B13B10448AFF300800123AF
S2144000E0237010BD8C08002000000000388D4000B2
S2144000F0084B10B51BB108490848AFF300800848C4
S214400100036803B910BD074B002BFBD0BDE8104079
S214400110184700BF0000000090080020388D4000BF
S214400120388D40000000000080B483B000AF786097
S2144001300B46FB707B6893F865305A1CD1B27A68E0
S21440014082F8651019467B68FA785A547B6893F8AB
S2144001506530632B03D97B68002283F8652000BF97
S2144001600C37BD4680BC704780B58AB000AFF8609B
S2144001700B467A60FB72FB7A87F824300023BB611B
S2144001807B68FB6102233B6207F114031946F8685B
S214400190064B98477B681B7803F03F03DAB27B68D0
S2144001A01A7000BF2837BD4680BD00BFED0D400029
S2144001B080B483B000AF78607B68072B25D801A257
S2144001C052F823F0E5014000EB014000F101400009
S2144001D0F7014000FB014000FF01400003024000E1
S2144001E0070240004FF4FA4310E04FF400430DE09E
S2144001F04FF400430AE0084B08E0084B06E0084B83
S21440020004E0074B02E0064B00E0002318460C379C
S214400210BD4680BC704700BF00093D0000127A0012
S214400220001BB70080B500AF0620044B9847024637
S21440023013469B0013449B00184680BDB101400006
S21440024080B500AF024B984703465B08184680BD12
S2144002502502400080B582B000AF78607868034BD6
S214400260984700BF0837BD4680BD00BFAD20400060
S21440027080B58CB000AF78603960314B9847034604
S2144002807B623B681B68BB623B689B68FB623B6863
S2144002901B68FB603B685B683B613B689B687B61B7
S2144002A03B68DB68BB610023FB617B68254A934261
S2144002B008D10820244B984707F12403194678684C
S2144002C0224B98477B68224A934208D109201E4B0E
S2144002D0984707F12403194678681C4B98477B6873
S2144002E01C4A934211D10E20174B9847144B9847FF
S2144002F0024607F10C0319467868174B984778680A
S214400300164B98477868164B98477B68154A934231
S21440031011D10F200C4B9847094B9847024607F1DE
S2144003200C03194678680C4B984778680B4B9847EF
S21440033078680B4B984700BF3037BD4680BD00BF3E
S2144003404102400000060E4055024000150F400096
S21440035000080E400040024029114000AD11400008
S214400360F51140000080024080B582B000AF786052
S2144003700B46FB707B68204A93420AD100BFFB784D
S214400380194678681D4B98470346002BF7D1012342
S2144003902DE07B681A4A93420AD100BFFB78194683
S2144003A07868164B98470346002BF7D101231EE08A
S2144003B07B68144A93420AD100BFFB781946786896
S2144003C0114B98470346002BF7D101230FE07B687B
S2144003D00E4A93420AD100BFFB78194678680A4B0A
S2144003E098470346002BF7D1012300E00023184628
S2144003F00837BD4680BD00BF00060E40A50F400032
S21440040000080E4000400240A91240000080024012
S21440041080B584B000AF786039600023FB607B68AD
S2144004201F4A934207D100BF396878681D4B9847EA
S2144004300346002BF8D17B681B4A934207D100BF86
S21440044039687868174B98470346002BF8D17B6885
S214400450164A93420DD100BF07F10C03194678683F
S214400460134B98470346002BF6D1FB68DAB23B683D
S2144004701A707B680F4A93420DD100BF07F10C03F8
S214400480194678680A4B98470346002BF6D1FB6816
S214400490DAB23B681A7000BF1037BD4680BD00BF59
S2144004A000060E40D50F400000080E4000400240B7
S2144004B0D91240000080024080B582B000AF78601C
S2144004C039600F4A7B6813600E4B0F4A1A600F4B19
S2144004D00F4A1A60396878680E4B98470E4B1B686F
S2144004E09B68002118460D4B98470B4B1B685B6872
S2144004F000211846094B984700BF0837BD4680BDC7
S2144005003C0B0020380B002069034000340B0020D1
S214400510110440007102400040040020253A40008B
S214400520B0B58AB000AF364B07F110041D460FCD6C
S2144005300FC495E8030084E803000E20314B98472B
S214400540314B9847024607F1100319462F48304B67
S21440055098472E482F4B98472C482F4B98472B4868
S2144005602E4B984702462E4B1A602D4B1B68012196
S21440057018462C4B98472C4A2C4B1A602B4BC822BB
S2144005805A60274B1B68294A28491846284B9847E3
S2144005903B4600221A605A609A60DA604FF416535F
S2144005A03B604FF40063BB600820164B98473B46C1
S2144005B019462048204B98471E48204B98471D48D0
S2144005C01F4B98471B481F4B984702461E4B1A60C6
S2144005D01D4B1B6801211846124B98471B4A134B6C
S2144005E01A60124BC8225A60174B1B680F4A0F49B5
S2144005F018460F4B984700BF2837BD46B0BD00BFD2
S2144006004C8B4000550240004102400000400240F2
S21440061029114000C5114000F51140000D1340005F
S214400620300B002055174000A8080020240B00205F
S2144006301117400000060E40B90440008D0F4000E0
S214400640750F4000051040002C0B0020700900205C
S21440065080B500AF284B1B681846284B9847034682
S214400660002B0CD1264A274B1A60264BC8225A60CC
S214400670214B1B68234A00211846234B98471E4BA4
S2144006801B681846214B984703469BB2C3F1C803E4
S2144006909AB21F4B1A801E4B1B88C72B02D91C4B85
S2144006A000221A801B4B1B681846144B984703467B
S2144006B0002B0CD1184A134B1A60124BC8225A60B2
S2144006C0144B1B680F4A002118460F4B9847114B96
S2144006D01B6818460D4B984703469BB2C3F1C803A8
S2144006E09AB20E4B1A800D4B1B88C72B02D90B4B68
S2144006F000221A8000BF80BD300B00208D174000BE
S214400700A8080020240B0020111740007517400051
S2144007103C0A00202C0B0020700900203E0A0020D6
S21440072080B485B000AF0346FB71FB79012B1FD127
S214400730224B1A88224B1B889A4207D91F4B1B888C
S2144007401A461F4B1B88D31AFB6030E01B4B1A8897
S2144007501B4B1B889A4208D2194B1B88C3F1C8030F
S214400760164A12881344FB6021E00023FB601EE01B
S214400770144B1A88144B1B889A4207D9114B1B8876
S2144007801A46114B1B88D31AFB6010E00D4B1A8893
S2144007900D4B1B889A4208D20B4B1B88C3F1C803EB
S2144007A0084A12881344FB6001E00023FB60FB68A4
S2144007B018461437BD4680BC704700BF3C0A002030
S2144007C0380A00203E0A00203A0A002080B485B04D
S2144007D000AF0346FB71FB79012B11D1144B1B88EC
S2144007E05A1C91B2124A11801A46124B9B5CFB73FC
S2144007F00F4B1B88C72B14D90D4B00221A8010E0D4
S2144008000D4B1B885A1C91B20B4A11801A460B4B53
S2144008109B5CFB73084B1B88C72B02D9064B0022F8
S2144008201A80FB7B18461437BD4680BC704700BF15
S214400830380A0020A80800203A0A00207009002044
S21440084080B586B000AFF860B9607A6000237B61FF
S214400850FB68002B12D04FF0FF3313E00B4B1B68A6
S2144008600B4A1268B96810469847BB680133BB60AC
S2144008707B6901337B617B68013B7B607B68002B37
S214400880ECDC7B6918461837BD4680BD340B00202B
S2144008903C0B002080B586B000AFF860B9607A6047
S2144008A000237B61FB68012B1ED0FB68022B1BD00C
S2144008B0FB68032B18D04FF0FF3319E00E4B1A6835
S2144008C00E4B1868BB68591CB9601B781946904790
S2144008D00346002B02DA4FF0FF3309E07B69013311
S2144008E07B617B68013B7B607B68002BE6D17B6944
S2144008F018461837BD4680BD380B00203C0B0020FC
S21440090080B483B000AF0346FB71084997F90730BF
S2144009105B09FA7902F01F02012000FA02F241F860
S214400920232000BF0C37BD4680BC704700E100E086
S21440093080B483B000AF0346FB71094997F907308E
S2144009405B09FA7902F01F02012000FA02F2203316
S21440095041F8232000BF0C37BD4680BC704700BF1F
S21440096000E100E080B483B000AF0346FB71094964
S21440097097F907305B09FA7902F01F02012000FA66
S21440098002F2603341F8232000BF0C37BD4680BCDE
S214400990704700BF00E100E080B483B000AF03467C
S2144009A03960FB7197F90730002B0BDA0D49FB795C
S2144009B003F00F03043B3A68D2B21201D2B20B44A2
S2144009C01A7609E0084997F907303A68D2B2120118
S2144009D0D2B20B4483F8002300BF0C37BD4680BC20
S2144009E0704700BF00ED00E000E100E080B584B055
S2144009F000AF7860396078682C4B9847F860786824
S214400A002B4B98470246FB681340FB60FB68002B65
S214400A103CD00023BB6034E0264ABB681B0113442D
S214400A201A683B689A4226D1224ABB681B01134487
S214400A3004331A68FB681340002B1CD01D4ABB6861
S214400A401B0113440C331B681A49BA6812010A4446
S214400A5010681849BA6812010A44043212681146EE
S214400A609847144ABB681B01134404331B68DB4396
S214400A70FA681340FB60BB680133BB60BB68062B5B
S214400A8003D8FB68002BC7D100E000BF0A4B1B68A9
S214400A90002B07D0094B1B68002B03D0074B1B6865
S214400AA07868984700BF1037BD4680BDA11A400001
S214400AB0B91A4000400A0020400B0020B40A00202B
S214400AC080B586B000AFF860B9607A603B60214B75
S214400AD01B68062B01D9012338E00023FB7511E083
S214400AE0FB7D1B011C4A13443B613B691A68BB688B
S214400AF09A4204D13B695A687B689A4208D0FB7D8B
S214400B000133FB75FA7D134B1B689A42E8D900E027
S214400B1000BF3B69BA681A603B697A685A603B69AD
S214400B203A689A603B693A6ADA60FA7D094B1B6814
S214400B3001339A4204D1074B1B680133054A1360C0
S214400B403A687968F868054B98470023184618377E
S214400B50BD4680BDB00A0020400A0020FD19400076
S214400B6080B500AF0B210248024B984700BF80BDBE
S214400B70000E0E40ED09400080B500AF0C21024843
S214400B80024B984700BF80BD00100E40ED09400064
S214400B9080B586B000AFF8600B467A60FB720023E3
S214400BA07B61F868134B984778614FF0FF31F868DF
S214400BB0114B9847F868114B984797F90B301846F1
S214400BC00F4B984797F90B3018460E4B984797F9B6
S214400BD00B30796818460C4B984797F90B301846F7
S214400BE00A4B98477969F868094B984700BF183709
S214400BF0BD4680BDB91A4000851A4000A11A400083
S214400C00310940006509400099094000010940004B
S214400C10691A400080B483B000AF78607B680822D1
S214400C201A607B6820221A607B6804221A6000BF24
S214400C300C37BD4680BC704780B584B000AF786046
S214400C4039600023FB607B684FF0FF329A627B6816
S214400C501B6A78680E4B984778680E4B98473B68F7
S214400C6059683B681B681A4678680B4B984703469A
S214400C70012B01D10123FB603B685B7A012B02D13B
S214400C807B6840221A60FB6818461037BD4680BD18
S214400C90F90E4000150C40009D0C400080B489B011
S214400CA000AFF860B9607A600023FB61BB68344AE5
S214400CB0934201D901235DE0BB68324A934237D95B
S214400CC07B68314AA2FB03239B0B043B7B61BA68DB
S214400CD02E4B13449B007A68B2FBF3F3043B3B6114
S214400CE005E0FB690133FB617B695B087B617B69DF
S214400CF0FF2B09D9FB69062BF3D905E0FB690133C5
S214400D00FB613B695B083B613B69FF2B02D9FB6992
S214400D10062BF3D97B69DAB23B691B029BB21A43B6
S214400D20FB691B0403F4E0231A43FB681A6120E0C6
S214400D30BB685B007A68B2FBF3F3043BBB6105E03B
S214400D40FB690133FB61BB695B08BB61BB69FF2B79
S214400D5002D9FB69062BF3D9BB69DAB2BB691B0221
S214400D609BB21A43FB691B0403F4E0231A43FB6857
S214400D701A61002318462437BD4680BC704700BF22
S214400D80801A060000DC0500F11976050012FD3FCA
S214400D9080B485B000AF786039603B68002B01D1E5
S214400DA000231DE07B681B78FB603B68012B09DD58
S214400DB0FB681B02FB607B6801331B781A46FB68A6
S214400DC01343FB603B68022B09DDFB681B02FB609C
S214400DD07B6802331B781A46FB681343FB60FB684C
S214400DE018461437BD4680BC704700BF80B588B0F3
S214400DF000AF786039603B68DB68FB613B689B68A6
S214400E00BB610023FB7547F230533B61FB69002B07
S214400E1001D1012369E07B6800225A603B681B7C55
S214400E201B0403F4FE023B685B681B0203F440733A
S214400E30134343F480527B685A607B680022DA6032
S214400E403A683B685B68194610462A4B9847024604
S214400E507B68DA60FB69012B05D17B6803221A6048
S214400E600123FB7534E07B6801221A600023FB7582
S214400E702EE07B681B6AFB60FB6803F48073002BE4
S214400E8001D0052331E03B695A1E3A61002B01D15F
S214400E9009232AE0FB69012B07D1FB7D002B04D1F7
S214400EA07B6802221A600123FB75FB6803F002038D
S214400EB0002B00D10CE0BB695A1CBA617A68126BF1
S214400EC0D2B21A70FB69013BFB6147F230533B617B
S214400ED0FB69002BCDD100BF7B681B6A03F0010382
S214400EE0002BF9D07B681B6A002318462037BD4686
S214400EF080BD00BF910D400080B483B000AF7860E5
S214400F007B6880221A607B681B6B00BF0C37BD462F
S214400F1080BC704780B485B000AF786039600023ED
S214400F20FB607B68AC221A603B681A683B685B686B
S214400F30B2FBF3F31B09FB60FB68002B03D0FB6896
S214400F40B3F5803F01D301230FE07B68FA681A624D
S214400F503B689A687B685A607B6840F20222C3F816
S214400F6020217B6850221A60002318461437BD465D
S214400F7080BC704780B483B000AF78607B688022C6
S214400F801A6000BF0C37BD4680BC704780B483B043
S214400F9000AF78607B6810221A6000BF0C37BD46F1
S214400FA080BC704780B483B000AF78600B46FB705F
S214400FB07B685B6903F00203002B01D1012303E049
S214400FC0FA787B68DA61002318460C37BD4680BC49
S214400FD0704700BF80B483B000AF786039607B68EC
S214400FE05B6903F00103002B01D1012305E07B6818
S214400FF09B69DAB23B681A70002318460C37BD4628
S21440100080BC704780B485B000AF78607B68084A83
S214401010934201D1074BFB607B68074A934201D15C
S214401020064BFB60FB6818461437BD4680BC7047CD
S21440103000060E4000070E4000080E4000090E4015
S21440104080B489B000AFF860B9607A60BB681A01B6
S2144010507B689A4202D81023FB6101E00823FB61BB
S2144010607B68DA00FB69B96801FB03F35B081A4446
S214401070FB69B96801FB03F3B2FBF3F3BB61BB69E1
S214401080DB087B61BB6903F007033B617B69002B90
S21440109003D07B69B3F5803F01D301230FE0FB69A2
S2144010A0082B05D1FB685B6843F40022FB685A6056
S2144010B03B691A047B691A43FB681A620023184688
S2144010C02437BD4680BC704780B582B000AF78609C
S2144010D078680F4B98477B6800225A607B680022EE
S2144010E05A627B6800229A6278680A4B984778680A
S2144010F0094B98477868094B98477868084B984753
S2144011007868084B984700BF0837BD4680BD00BF8B
S21440111055134000DD114000251240005512400096
S2144011208D1240007112400080B584B000AFF86068
S214401130B9607A60F8681A4B98471A4B00221A60D2
S214401140BB68002B09D0BB681B687A681946F868EC
S214401150154B98470346002B01D001231BE0BB6884
S2144011605A68BB689B681A43BB681B691A43BB68CE
S214401170DB681A430B4B1B6813430A4A1360094B40
S2144011801B68084A1360FB685A68064B1B681A437C
S214401190FB685A60002318461037BD4680BD00BF26
S2144011A0C9104000B80A00204110400080B483B007
S2144011B000AF78607B6840221A6000BF0C37BD469F
S2144011C080BC704780B483B000AF78607B68802274
S2144011D01A6000BF0C37BD4680BC704780B483B0F1
S2144011E000AF78607B6888221A6000BF0C37BD4627
S2144011F080BC704780B483B000AF78607B681022B4
S2144012001A6000BF0C37BD4680BC704780B483B0C0
S21440121000AF78607B6820221A6000BF0C37BD465E
S21440122080BC704780B483B000AF78607B6824226F
S2144012301A6000BF0C37BD4680BC704780B483B090
S21440124000AF78607B685B6918460C37BD4680BC4B
S214401250704700BF80B483B000AF78607B684FF4BF
S21440126080721A6000BF0C37BD4680BC704700BF16
S21440127080B483B000AF78607B684FF400321A6069
S21440128000BF0C37BD4680BC704700BF80B483B0FB
S21440129000AF78607B684FF400221A6000BF0C37BE
S2144012A0BD4680BC704700BF80B483B000AF786056
S2144012B039607B685B6903F00203002B01D1012390
S2144012C005E03B68C3F308027B68DA6100231846F2
S2144012D00C37BD4680BC704780B483B000AF7860A2
S2144012E039607B685B6903F00103002B01D1012361
S2144012F006E07B689B69C3F308023B681A600023DC
S21440130018460C37BD4680BC704700BF80B485B0D9
S21440131000AF78600023FB607B680A4A934203D1A3
S214401320094BFB60FB6808E07B68084A934203D1A0
S214401330074BFB60FB6800E0FB6818461437BD4669
S21440134080BC70470040024000410240008002409E
S2144013500081024080B483B000AF78607B68044A66
S214401360C3F8E42000BF0C37BD4680BC704700BFC2
S2144013700041535580B582B000AF78607B68072B3C
S21440138031D801A252F823F0E5134000A9134000DB
S214401390B1134000B9134000C1134000C9134000C8
S2144013A0D1134000DB1340000020114B98471AE051
S2144013B001200F4B984716E000200E4B984712E04E
S2144013C010200C4B98470EE020200A4B98470AE026
S2144013D03E210020084B984705E03E210120064B61
S2144013E0984700E000BF00BF0837BD4680BD00BF3D
S2144013F0E11E40004D1F4000BD1F400080B582B03A
S21440140000AF78607B68072B26D801A252F823F0FD
S2144014103114400035144000351440004714400055
S214401420471440004714400047144000471440000B
S214401430012312E00B4B98470346002B14BF0123B1
S2144014400023DBB209E0084B98470346002B14BF45
S21440145001230023DBB200E0002318460837BD46D0
S21440146080BD00BF191F40003520400080B483B0C7
S21440147000AF78607B68072B25D801A252F823F08E
S214401480A1144000A7144000AD144000B31440001F
S214401490B7144000BB144000BF144000C3144000C3
S2144014A04FF4FA4310E04FF400430DE04FF400438E
S2144014B00AE0084B08E0084B06E0084B04E0074B00
S2144014C002E0064B00E0002318460C37BD4680BCC1
S2144014D0704700BF00093D0000127A00001BB700AD
S2144014E080B582B000AF0346FB7100BFFB7918465B
S2144014F0054B9847034683F00103DBB2002BF5D13A
S21440150000BF0837BD4680BDFD13400080B586B09D
S21440151000AFF8607A603B600B46FB72FB7A184679
S2144015200D4B984702467B68B2FBF3F37B617B69C1
S2144015303A6802FB03F37B613B68013B1A04074BA6
S21440154013407A68D2B2134343F47C52FB681A6065
S21440155000BF1837BD4680BD6D1440000000FF0731
S21440156080B582B000AF786039603B68002B08D108
S214401570094B9847094A7B681B6843F000539362BF
S21440158005E0074B9847054A7B681B68D36200BF57
S2144015900837BD4680BD00BF4D20400000040E40C9
S2144015A07D20400080B582B000AF78607B68002B1D
S2144015B003D1054B9847034602E0044B9847034641
S2144015C018460837BD4680BD65204000952040003F
S2144015D080B582B000AF0346FB71FB79033B042B1A
S2144015E008D8FB791846064B9847FB791846054BB2
S2144015F0984700E000BF00BF0837BD4680BD00BF2B
S21440160075134000E114400080B582B000AF7860AA
S21440161000BF7868044B98470346002BF9D0002358
S21440162018460837BD4680BDA515400080B500AFBA
S2144016300620044B9847024613469B0013449B00E3
S214401640184680BD6D14400080B500AF024B9847E9
S21440165003465B08184680BD2D16400090B583B003
S21440166000AF1148114B98470620114B9847381D3C
S2144016701423012206210F4CA0473B1D002118468B
S2144016800D4B984700200D4B984710200C4B984721
S2144016900C4B98470C4B984703461846034B9847C5
S2144016A000BF0C37BD4690BD000E270735254000CD
S2144016B0D11540000D154000611540000916400048
S2144016C0611E4000992340004916400080B485B012
S2144016D000AFF860B9607A60BB68002B07D0BB6883
S2144016E01A68FB689A60BB685A68FB68DA607B6871
S2144016F0002B07D07B681A68FB689A617B685A683B
S214401700FB68DA6100BF1437BD4680BC704700BF37
S21440171080B485B000AFF860B9607A60BB68002BD3
S21440172007D0BB681A68FB681A60BB685A68FB68D3
S2144017305A607B68002B07D07B681A68FB681A6182
S2144017407B685A68FB685A6100BF1437BD4680BC48
S214401750704700BF80B483B000AF786039603A68A5
S21440176040F2011313407A68136200BF0C37BD463F
S21440177080BC704780B483B000AF78607B685B689D
S21440178018460C37BD4680BC704700BF80B483B057
S21440179000AF78607B685B6918460C37BD4680BCF6
S2144017A0704700BF80B485B000AFF860B9607A601B
S2144017B07B68002B03D0FB68BA685A6602E0FB6879
S2144017C0BA681A6600BF1437BD4680BC704700BF73
S2144017D080B485B000AFF860B9607A60FB68BA68DC
S2144017E0C3F884207B685B004FF40042B2FBF3F3FF
S2144017F0013BC3F30D02FB68C3F88C2000BF1437CF
S214401800BD4680BC704700BF80B487B000AFF8606C
S214401810B9607A60FB687A685A64BB68B3F1C05FA7
S2144018204AD0B3F1C05F08D8B3F1006F16D0B3F119
S214401830805F2CD0002B69D064E0B3F1205F65D088
S214401840B3F1205F03D8B3F1005F4AD05AE0B3F15A
S214401850405F5BD0B3F1605F58D053E0FB681B6FCE
S2144018607B61FB681A6F7B68D9437B690B401A40E3
S214401870FB681A67FB685B6F7B61FB685A6F7B6827
S214401880D9437B690B401A40FB685A673AE0FB68CD
S2144018901B6F7B617A687B691A43FB681A67FB6833
S2144018A05B6F7B61FB685A6F7B68D9437B690B40F3
S2144018B01A40FB685A6725E0FB681B6F7B61FB6834
S2144018C01A6F7B68D9437B690B401A40FB681A67DE
S2144018D0FB685B6F7B617A687B691A43FB685A6773
S2144018E010E0FB681B6F7B617A687B691A43FB6874
S2144018F01A67FB685B6F7B617A687B691A43FB6893
S2144019005A6700BFFB687A685A6000E000BF1C3721
S214401910BD4680BC704700BF80B584B000AFF8605D
S214401920B9607A60B968F868194B98477B6803F0E5
S21440193001031A46B968F868164B98477B6803F067
S2144019400A03002B03D0FB68BA681A6202E0FB6801
S214401950BA685A627B6803F00203002B04D0FB6827
S214401960BA68C3F8802008E07B6803F00803002BC1
S21440197003D0FB68BA68C3F88420FB68BA685A612B
S214401980FB68BA681A6000BF1037BD4680BD00BF0E
S214401990851A4000A517400080B584B000AFF860B7
S2144019A0B9607A603B60B968F868124B9847BA6984
S2144019B0B968F868104B98473B68002B03D0FB6823
S2144019C0BA681A6502E0FB68BA685A657B68002BFD
S2144019D003D0FB68BA681A6302E0FB68BA685A63C9
S2144019E0FB68BA681A61FB68BA681A6000BF1037AD
S2144019F0BD4680BD851A4000A517400080B485B01E
S214401A0000AFF860B9607A607B6803F01003002B83
S214401A1020D0FB68BA68C3F8B0207B6803F0200388
S214401A20002B04D0FB68BA68C3F8D42003E0FB68F8
S214401A30BA68C3F8D0207B6803F04003002B04D07C
S214401A40FB68BA68C3F8C02008E0FB68BA68C3F809
S214401A50C42003E0FB68BA68C3F8B42000BF14375C
S214401A60BD4680BC704700BF80B483B000AF78608E
S214401A7039607B683A681A6400BF0C37BD4680BC44
S214401A80704700BF80B483B000AF786039607B6831
S214401A903A685A6400BF0C37BD4680BC704700BFEA
S214401AA080B483B000AF78607B68DB6C18460C3738
S214401AB0BD4680BC704700BF80B483B000AF78603E
S214401AC07B689B6C18460C37BD4680BC704700BF91
S214401AD080B584B000AF78607868084B9847F86067
S214401AE0FB68DA6B7B6803F01F0322FA03F303F00C
S214401AF0010318461037BD4680BD00BF3D1E40005E
S214401B0080B584B000AF78607868084B9847F86036
S214401B107B6803F01F03012202FA03F31A46FB68B0
S214401B201A6300BF1037BD4680BD00BF3D1E400053
S214401B3080B584B000AF78607868084B9847F86006
S214401B407B6803F01F03012202FA03F31A46FB6880
S214401B505A6300BF1037BD4680BD00BF3D1E4000E3
S214401B6090B587B002AF786039607868634B984725
S214401B70F8603B6803F0F043B3F1005F67D0B3F121
S214401B80005F09D8B3F1805F2BD0B3F1C05F43D07C
S214401B90B3F1006F0AD0A9E0B3F1405F7ED0B3F155
S214401BA0605F7BD0B3F1205F6CD09FE07B6803F032
S214401BB01F03012202FA03F31A464FF00061F86849
S214401BC04F4B98477B6803F01F03012202FA03F34A
S214401BD019463B6803F001031A46F868494B984794
S214401BE086E07B6803F01F03012202FA03F31A46DD
S214401BF04FF08051F868424B98477B6803F01F03CC
S214401C00012202FA03F319463B6803F001031A4621
S214401C10F8683C4B98476BE07B6803F01F03012253
S214401C2002FA03F31A464FF0C051F868344B98470F
S214401C307B6803F01F03012202FA03F319463B6850
S214401C4003F001031A46F8682E4B984750E07B682D
S214401C5003F01F03012202FA03F31A464FF0005125
S214401C60F868274B98477B6803F01F03012202FA67
S214401C7003F319463B6803F001031A46F868214B04
S214401C80984735E07B6803F01F03012202FA03F30E
S214401C903A681946F8681C4B984729E07B6803F079
S214401CA01F03012202FA03F319463B6803F0605310
S214401CB0B3F1605F0CBF01230023DBB21A463B68DA
S214401CC003F00403002B14BF01230023DBB21846A5
S214401CD03B6803F00103002B14BF01230023DBB253
S214401CE000930346F868094CA04701E0002300E053
S214401CF0012318461437BD4690BD00BF3D1E400028
S214401D0009184000A51740001919400099194000CD
S214401D1090B587B002AFF860B9607A607B6803F030
S214401D20F043B3F1005F43D0B3F1005F09D8B3F19D
S214401D30805F1FD0B3F1C05F2BD0B3F1006F0AD0E5
S214401D406DE0B3F1405F48D0B3F1605F45D0B3F18A
S214401D50205F3CD063E0BA684FF00061F868334BD0
S214401D6098477B6803F001031A46B968F868304B19
S214401D70984756E0BA684FF08051F8682B4B984722
S214401D807B6803F001031A46B968F868284B984701
S214401D9047E0BA684FF0C051F868244B98477B68D4
S214401DA003F001031A46B968F868214B984738E0B3
S214401DB0BA684FF00051F8681C4B98477B6803F0B0
S214401DC001031A46B968F868194B984729E07A68BB
S214401DD0B968F868174B984723E07B6803F0605370
S214401DE0B3F1605F0CBF01230023DBB21A467B6869
S214401DF003F00403002B14BF01230023DBB2194673
S214401E007B6803F00103002B14BF01230023DBB2E1
S214401E1000930B46B968F868074CA04701E00023DA
S214401E2000E0012318461437BD4690BD091840000F
S214401E30A5174000191940009919400080B485B094
S214401E4000AF78607B685B0903F5001303F2077305
S214401E505B02FB60FB6818461437BD4680BC704783
S214401E6080B485B000AF78601C491C4B1B6B23F0D8
S214401E7070027B6813430B634FF40063FB6007E01C
S214401E80FB68002B01D1012323E0FB68013BFB608C
S214401E90124B9B6E03F00803002BF1D00F4A0F4BFA
S214401EA01B6B23F0030343F0020313634FF40063FA
S214401EB0FB6007E0FB68002B01D1012309E0FB68CB
S214401EC0013BFB60054B9B6E03F00803002BF1D0F3
S214401ED0002318461437BD4680BC704700040E40A9
S214401EE080B483B000AF78607B68012B07D1084A86
S214401EF0074B9B6843F0254343F480139360044BA1
S214401F00044A1A6000BF0C37BD4680BC704700BF0D
S214401F1010140E40080000A580B400AF094B5B6962
S214401F2003F08003002B07D0074B9B6E03F0800323
S214401F30002B01D0012300E000231846BD4680BC9C
S214401F40704700BF10140E4000040E4080B483B0AB
S214401F5000AF7860184A184B1B6A43F45C1343F092
S214401F600803136200BF144B9B6E03F40033002B30
S214401F70F9D01149104B1B6A23F45C1323F070030D
S214401F807A68134343F45C130B6200BF0A4B9B6EA4
S214401F9003F40033002BF9D0074A074B1B6A23F0A3
S214401FA09B7323F4803343F45C13136200BF0C37F7
S214401FB0BD4680BC704700BF00040E4080B483B06E
S214401FC000AF786039607B68002B08D01649164B06
S214401FD01B6A164A1A40164B13430B621EE0124900
S214401FE0114B1B6A23F45C1323F003033A68120276
S214401FF092B2134343F45C1343F001030B6200BFF9
S214402000094B9B6E03F00103002BF9D0064A064BA2
S2144020101B6A43F09B7343F48033136200BF0C3754
S214402020BD4680BC704700BF00040E40FCFFC8FEA3
S2144020300200370180B400AF034B9B6E03F480333D
S2144020401846BD4680BC704700040E4080B400AFC2
S214402050034B4FF000529A6200BFBD4680BC7047AB
S21440206000040E4080B400AF034B9B6E03F00203A7
S2144020701846BD4680BC704700040E4080B400AF92
S214402080034B0022DA6200BFBD4680BC704700BFEB
S21440209000040E4080B400AF034B9B6E03F0040375
S2144020A01846BD4680BC704700040E4080B483B0DE
S2144020B000AF78607B68222B01D901232FE07B6834
S2144020C01F2B13D8184B9A6901217B6801FA03F33A
S2144020D01A4001217B6801FA03F39A421ED0124A45
S2144020E001217B6801FA03F3136117E07B68203B0C
S2144020F07B600D4BD3F8082101217B6801FA03F37E
S2144021001A4001217B6801FA03F39A4206D0064A38
S21440211001217B6801FA03F3C2F800310023184618
S2144021200C37BD4680BC704700040E4080B483B078
S21440213000AF0346FB71084997F907305B09FA7907
S21440214002F01F02012000FA02F241F8232000BFED
S2144021500C37BD4680BC704700E100E080B582B0D9
S21440216000AF78607868034B984700BF0837BD4695
S21440217080BD00BFAD20400080B500AF0B20034BB4
S21440218098470C20014B984700BF80BD5D2140001A
S21440219090B583B002AF3E4B4FF400425A603D4B81
S2144021A098474FF000624FF4C0613B483B4B98471E
S2144021B04FF000620C213A48384B98474FF0006287
S2144021C060213548354B98474FF000624FF4C001C8
S2144021D03148324B98474FF0006218212E482F4B1B
S2144021E098470B202F4B98470C202E4B98474FF084
S2144021F040510D202C4B98474FF040510E202A4B13
S21440220098474FF040511820274B98474FF0405181
S2144022101020254B984725492020234B9847234993
S2144022202120214B9847214922201F4B98471F4980
S21440223023201D4B98471D4913201B4B98474FF0B2
S21440224020511420184B98470A2200211248184B58
S21440225098470A2200211248154B9847154B009381
S2144022601C234FF480120B210B48134CA0470B2025
S214402270124B984700220B210748114B98474FF4C2
S214402280801105480F4B984700BF0437BD4690BDA8
S21440229050140E4079214000000E0E40111D4000A3
S2144022A000100E40AD204000611B40000C0000288E
S2144022B0D117400089294000C10A40002D21400026
S2144022C0910B4000691A400080B584B000AF274BA0
S2144022D0FB60274BBB60FA68BB689A420DD907E0A3
S2144022E0BB681A1DBA60FA68111DF96012681A6058
S2144022F0BB68204A9342F3D320E0FA68BB689A4210
S2144023001CD21C4A1A4BD31A7B60FA687B6813446B
S214402310043BFB60BA687B681344043BBB600AE03E
S214402320BB681A1FBA60FA68111FF96012681A6013
S2144023307B68043B7B607B68002BF1D100BF0E4B73
S214402340BB6004E0BB681A1DBA6000221A60BB6816
S2144023500A4A9342F6D30A4BFB600A4AFB689360EC
S214402360094B9847094B9847FEE700BF388D400019
S214402370000000208C0800208C0800203C0D002027
S2144023800000400000ED00E039394000E127400001
S21440239080B400AFFEE700BF80B400AF5D4B1B6B60
S2144023A003F00303032B00F2968001A252F823F0B9
S2144023B0C1234000E12340002B2440002B24400052
S2144023C0554B5B6903F08003002B04D0534B4FF40E
S2144023D000421A6080E0514B4FF4FA421A607BE0AC
S2144023E04C4B1B6A03F08073002B03D04B4B4C4A7C
S2144023F01A6071E0494B4B4A1A60464B1B6A03F021
S2144024007003102B08D0202B0AD0002B00D00BE0F6
S214402410424B444A1A6007E0404B434A1A6003E086
S2144024203E4B3F4A1A6000BF56E03A4B1B6A03F0E9
S2144024308073002B03D0394B394A1A6019E0374B6A
S214402440384A1A60334B1B6A03F07003102B08D0CF
S214402450202B0AD0002B00D00BE0304B314A1A60BC
S21440246007E02E4B304A1A6003E02C4B2C4A1A6089
S21440247000BF284B1B6B03F00303022B15D1254BE3
S2144024809A6A2A4B13401B0C0133244A126802FBFB
S21440249003F3224A13601F4B9B6ADBB21F4A126843
S2144024A0B2FBF3F31D4A136016E01A4BDA6A1F4B71
S2144024B013401B0C0133194A126802FB03F3174AF8
S2144024C01360144BDB6ADBB2144A1268B2FBF3F3B8
S2144024D0124A136000E000BF0E4B1B6B03F0700304
S2144024E0702B08D10D4B1B68114AA2FB03235B08D7
S2144024F00A4A13600AE0074B1B6B03F070031B0984
S214402500064A126822FA03F3044A136000BFBD4627
S21440251080BC704700040E4010140E40000000209F
S214402520001BB70000093D0000127A000000FF07BC
S214402530ABAAAAAA80B483B000AF78607B68184A7A
S214402540934204D8174B4FF080621A6023E07B68B2
S214402550154A934203D8134B144A1A601BE07B6813
S214402560134A934203D80F4B124A1A6013E07B6813
S214402570114A934203D80B4B104A1A600BE07B6813
S2144025800F4A934204D8074B4FF004221A6002E0E9
S214402590044B0C4A1A6000BF0C37BD4680BC7047DF
S2144025A0FF2C3101000A0E40FF5962020001000470
S2144025B0FF86930300020004FFB3C4040003000434
S2144025C0FFE0F5050005000480B485B000AF7860F4
S2144025D0104BFB60104B1B68002B02D10E4B0F4A72
S2144025E01A600D4B1B68BB60BA687B681A44FB6870
S2144025F09A4202DD4FF0FF3306E0074B1A687B68CD
S2144026001344054A1360BB6818461437BD4680BC61
S214402610704700BFFC7F0220BC0A0020403D0020DF
S21440262080B483B000AF78604FF0FF3318460C3765
S214402630BD4680BC704700BF80B483B000AF7860B2
S21440264039603B684FF400525A60002318460C37F6
S214402650BD4680BC704700BF80B485B000AFF86010
S214402660B9607A60002318461437BD4680BC704770
S21440267080B483B000AF03463960FB7197F90730EA
S214402680002B0BDA0D49FB7903F00F03043B3A6845
S214402690D2B21201D2B20B441A7609E0084997F931
S2144026A007303A68D2B21201D2B20B4483F8002304
S2144026B000BF0C37BD4680BC704700BF00ED00E051
S2144026C000E100E080B582B000AF78607B68013BF7
S2144026D0B3F1807F01D301230FE00A4A7B68013BB8
S2144026E053600F214FF0FF30074B9847054B0022B1
S2144026F09A60044B07221A60002318460837BD46E6
S21440270080BD00BF10E000E07126400080B483B07A
S21440271000AF78607B68072B25D801A252F823F0DB
S21440272041274000472740004D27400053274000A0
S214402730572740005B2740005F2740006327400044
S2144027404FF4FA4310E04FF400430DE04FF40043DB
S2144027500AE0084B08E0084B06E0084B04E0074B4D
S21440276002E0064B00E0002318460C37BD4680BC0E
S214402770704700BF00093D0000127A00001BB700FA
S21440278080B500AF0620044B9847024613469B0090
S21440279013449B00184680BD0D27400080B500AF0F
S2144027A0024B984703465B08184680BD8127400089
S2144027B080B500AF024B984703465B08184680BD7D
S2144027C08127400080B582B000AF78607868034BC0
S2144027D0984700BF0837BD4680BD00BFAD204000CB
S2144027E080B584B000AF00237B8100237B604FF030
S2144027F000033B604FF00003FB60394B9847394B72
S2144028009847394B98470020384B98471820384B04
S21440281098471FE0374A48213748384B9847354B4A
S2144028201B781B021AB2334B5B781BB213431BB2A6
S2144028307B817A89324B104698470246314B324963
S2144028401046984703461A46304B3149104698473B
S2144028500346FB602F4B3049F86898470346002BE9
S214402860D8D1692200212D482D4B98476922002156
S2144028702C482B4B9847662200212B48284B9847DC
S2144028802A4B00221A70294B00225A70274B0022EE
S2144028909A70274B00221A70254B00225A70244B00
S2144028A000229A70234B9847234B9847234B9847D0
S2144028B00120234B98470346052B02D90120214B84
S2144028C0984702201E4B98470346052B02D9022004
S2144028D01C4B98471C4B98471C4B9847E2E700BF59
S2144028E05D16400091214000C12940009D314000C6
S2144028F0011B40001C0C0020008001406901400084
S214402900FD3440001537400000FC7F46AD354000A2
S2144029100000F041FD3840000000A040B00B002011
S21440292089394000440B0020B40C00202C0D0020B8
S214402930240D002091324000510640004D334000A7
S21440294021074000F52A4000952F40000D324000F8
S21440295080B400AF094B1B680133084A1360084B2C
S2144029601B680133064A1360064B1B680133054A51
S214402970136000BFBD4680BC704700BFE00A002021
S214402980D40A0020D80A002080B582B000AF786014
S21440299039607B680B2B0AD13B68B3F5801F06D1A4
S2144029A00320054B98471820044B9847FEE700BF86
S2144029B00837BD4680BD00BF9D314000311B4000FA
S2144029C080B500AF044B9847044B9847044B984754
S2144029D0044B984700BF80BD712A40002105400047
S2144029E0E9294000392A400080B584B000AF0C4B3E
S2144029F0984703467B600B4BBB6000233B7300232A
S214402A007B731320084B98470848094B98473B1D53
S214402A1019460648074B984700BF1037BD4680BD4D
S214402A20B1274000A0860100C52740000080014035
S214402A30150C4000390C400080B582B000AF094B01
S214402A4098470246084BA3FB02239B091846074BB0
S214402A50984778607B68002B00D0FEE700BF0837B9
S214402A60BD4680BD9D274000D34D6210C526400020
S214402A70B0B586B000AF154B3C461D460FCD0FC4D3
S214402A8095E8030084E803000F20114B9847114B4C
S214402A90984702463B4619460F48104B98470E4803
S214402AA00F4B98470C480F4B98470B480E4B984790
S214402AB002460E4B1A600D4B1B684FF48071184649
S214402AC00B4B984700BF1837BD46B0BD648B4000DF
S214402AD0C5274000B1274000008002402911400031
S214402AE00D124000AD1140000D134000340D002083
S214402AF05517400080B584B000AF0346FB710023F5
S214402B00FB7314E0FB7918460C4B98470346002BA2
S214402B100AD0FB7918460A4B984703461A46FB7973
S214402B2011461846074B9847FB7B0133FB73FB7BEC
S214402B30042BE7D900BF1037BD4680BD21074000B3
S214402B40CD074000492B400080B582B000AF034619
S214402B500A46FB711346BB71FB79012B40F0D480CB
S214402B60A34B1B78052B00F28E8101A252F823F06E
S214402B70892B40009F2B4000CF2B4000F12B40007C
S214402B801B2C40007B2C4000BB79012B40F074810D
S214402B90974B01221A70964B01225A706CE197F9B6
S214402BA00630002B0FDABB7903F00103002B0AD066
S214402BB08F4B02221A708E4B5A78BB791344DAB286
S214402BC08B4B5A705FE18A4B00221A705BE1884A51
S214402BD0BB791371864B03221A70854B5A78BB79A2
S214402BE01344DAB2824B5A70814B0322DA704AE1C0
S214402BF0BB797E2B0DD87F4ABB7913707C4B042261
S214402C001A707B4B5A78BB791344DAB2784B5A70B9
S214402C1039E1774B00221A7035E1754B5B78BA790B
S214402C209A4226D1724B1B7919467348734B984784
S214402C30734B1B78002B11D16D4B1B791846714B8B
S214402C4098470346002B09D0694B1B7919466E48B6
S214402C506A4B98476A4B01221A7003E000216A4883
S214402C60664B9847624B05221A70614B00229A7059
S214402C7009E15F4B00221A7005E15D4B9B780133FA
S214402C80DAB25B4B9A705A4B9A78594BDB789A4239
S214402C9020D1BB7919465848584B9847584B1B7813
S214402CA0002B0CD1BB791846564B98470346002B51
S214402CB005D0BB7919465448504B984703E000214D
S214402CC051484E4B98474A4BDB780533DAB2484B6F
S214402CD0DA70D3E0464B9B78042B03D1454ABB7948
S214402CE05370CBE0424B9B78092B03D1414ABB79CA
S214402CF09370C3E03E4B9B78782B40F0BF803C4BB4
S214402D0000221A7000BFB9E0404B1B78052B00F23A
S214402D10BA8001A252F823F0312D4000472D4000E2
S214402D20772D4000992D4000C32D4000192E4000BD
S214402D30BB79012B40F0A480344B01221A70334BF0
S214402D4001225A709CE097F90630002B0FDABB79C7
S214402D5003F00103002B0AD02C4B02221A702B4B97
S214402D605A78BB791344DAB2284B5A708BE0274B1B
S214402D7000221A7087E0254ABB791371234B032241
S214402D801A70224B5A78BB791344DAB21F4B5A70EA
S214402D901E4B0322DA7076E0BB797E2B0DD81C4A98
S214402DA0BB791370194B04221A70184B5A78BB79AA
S214402DB01344DAB2154B5A7065E0144B00221A7071
S214402DC061E0124B5B78BA799A420CD10F4B1B7973
S214402DD019461048094B98470C4B05221A700B4B66
S214402DE000229A704FE0094B00221A704BE000BF59
S214402DF02C0D0020B00B0020B30B00202901400012
S214402E00C00A0020A12E4000B40C0020240D002053
S214402E10440B0020470B00201D4B9B780133DAB251
S214402E201B4B9A701A4B9A78194BDB789A420BD107
S214402E30BB7919461748184B9847154BDB7805332E
S214402E40DAB2134BDA701DE0114B9B78042B03D19A
S214402E50124ABB79537015E00D4B9B78092B03D172
S214402E600E4ABB7993700DE0094B9B78782B09D1BD
S214402E70074B00221A7005E000BF04E000BF02E0E6
S214402E8000BF00E000BF00BF0837BD4680BD00BFA2
S214402E90240D0020470B002029014000440B002051
S214402EA080B485B000AF0346FB71334B1A78FB798C
S214402EB0D31ADBB2FB73314B1B78002B38D097F913
S214402EC00F30002B30DD2E4B1B780133DAB22C4B03
S214402ED01A702B4B1B78012B43D92A4B01221A70B0
S214402EE0264B00221A70264B00221A70264B1A6870
S214402EF0254B5B681A44244B9B681A44234B1B683B
S214402F0013449B08224A13601F4B5B681E4A13609B
S214402F101D4B9B681C4A53601C4B1B681A4A9360A7
S214402F201A4B00221A601CE0154B00221A7018E05B
S214402F3097F90F3013F1020F10DA114B1B7801335B
S214402F40DAB20F4B1A700E4B1B78012B09D90B4B7C
S214402F5001221A700A4B00221A7002E0084B002227
S214402F601A70054AFB791370064B1B7818461437BF
S214402F70BD4680BC704700BFC10A0020C20A002080
S214402F80EC0A0020C00A0020C40A0020D40A002010
S214402F90D00A002080B584B000AF0023FB814FF0FC
S214402FA00003BB60664B1B78002B00F0C580654B6A
S214402FB01B78042B00F2BD8001A252F823F000BF1C
S214402FC0D52F400019304000DB304000FD30400037
S214402FD01F3140005C4B1A685C4B1B68D31A5C4A36
S214402FE013605B4B1B6842F21072934206D9584BF3
S214402FF000221A60524B00221A709DE0554B002268
S2144030001A60524B1B68524A13604E4B02221A708B
S214403010514B01221A708FE03B1D1A4628214F481B
S2144030204F4B98473B791B021AB27B791BB213432E
S2144030301BB2FB81FA894B4B1046984702464A4BD7
S2144030404A491046984703461A46494B494910464E
S21440305098470346BB60484B1A68484B4FF07C5134
S2144030601046984703461A46454BB9681046984757
S2144030700346002B16D0404B1A68424B4FF07C510B
S2144030801046984703461A463F4BB968104698473D
S2144030900346002B06D000203C4B9847294B032282
S2144030A01A7049E0344B1A68394B1146B86898474D
S2144030B00346002B03D00220344B98473CE02E4B6F
S2144030C01A68344B1146B86898470346002B00D11F
S2144030D032E001202D4B98472EE01E4B1A681C4BC1
S2144030E01B689A4227D31C4B1A78164B1A70194BFA
S2144030F000221A60164B00221A601CE00020234B68
S2144031009847144B00221A60234B1B68104A1360E2
S2144031100C4B02221A70104B04221A700CE001204D
S2144031201A4B9847074B00221A70054B00221A701C
S21440313002E000BF00E000BF00BF1037BD4680BDC4
S214403140C00A0020DC0A0020D00A00201000002020
S214403150E40A0020E00A002004000020008001402D
S21440316069014000FD3440001537400000FC7F46B2
S214403170AD35400000007041080000209933400003
S214403180FD3840009D334000113940009D314000DD
S214403190E9384000253940000C00002080B582B058
S2144031A000AF0346FB71FB79032B27D801A252F8E8
S2144031B023F000BFC5314000D3314000E13140002C
S2144031C0EF3140000D200F4B98470E200D4B98478F
S2144031D014E00D200B4B98470E200B4B98470DE004
S2144031E00D20094B98470E20064B984706E00D20C9
S2144031F0054B98470E20044B984700BF00BF083742
S214403200BD4680BD311B4000011B400080B500AF6D
S2144032101448154B9847034603F01003002B1FD065
S214403220124B1B68B3F57A7F1BD9114B1B681A46A5
S21440323010491148114B98470F4A114B1A600E48D7
S214403240104B984702460E4B5A600F4B1B680022A5
S2144032500B4918460D4B9847044B00221A6000E075
S21440326000BF80BD008002403D124000D80A0020CA
S214403270D00A00207C8B40001C0C0020853B400080
S2144032801C0D0020013C4000340D0020CD164000AF
S21440329080B582B000AF3B461A4648211D481E4BBB
S2144032A098473B781B021AB27B781BB213431BB27B
S2144032B0FB80FA88194B104698470246184B194926
S2144032C01046984703461A46174B184910469847E3
S2144032D003461A46164B1A60154B1A68154B164984
S2144032E0104698470346002B03D01820134B9847A8
S2144032F00CE00F4B1A68124B12491046984703468B
S214403300002B00D102E018200F4B984700BF08372B
S214403310BD4680BD0080014069014000FD3440004C
S2144033201537400000FC7F46AD3540000000F041B8
S214403330E80A00201139400000002041311B4000BF
S214403340E938400000001841011B400080B500AF3E
S21440335020200E4B98470346002B14D021200B4BC1
S21440336098470346002B0ED02220084B984703462A
S214403370002B08D02320054B98470346002B02D04D
S2144033801320024B984700BF80BD00BFD11A4000B3
S21440339080F0004002E000BF81F0004142001FBFC5
S2144033A05FEA410392EA030F7FEA226C7FEA236CCE
S2144033B06AD04FEA1262D2EB1363C1BFD2184140C3
S2144033C048404140B8BF5B42192B88BF704710F059
S2144033D0004F40F4000020F07F4018BF404211F0FC
S2144033E0004F41F4000121F07F4118BF494292EA64
S2144033F0030F3FD0A2F1010241FA03FC10EB0C0090
S214403400C3F1200301FA03F100F0004302D549421C
S21440341060EB4000B0F5000F13D3B0F1807F06D3C9
S21440342040084FEA310102F10102FE2A51D2B1F1C1
S214403430004F40EBC25008BF20F0010040EA0300B6
S2144034407047490040EB000010F4000FA2F1010263
S214403450EDD1B0FA80FCACF1080CB2EB0C0200FAED
S2144034600CF0AABF00EBC25052421843BCBFD0403B
S2144034701843704792F0000F81F4000106BF80F4B5
S21440348000000132013BB5E74FEA41037FEA226C78
S21440349018BF7FEA236C21D092EA030F04D092F043
S2144034A0000F08BF0846704790EA010F1CBF002077
S2144034B0704712F07F4F04D1400028BF40F00040D4
S2144034C0704712F100723CBF00F50000704700F0F4
S2144034D0004343F0FE4040F4000070477FEA22621B
S2144034E016BF08467FEA23630146420206BF5FEAEC
S2144034F0412390EA010F40F4800070474FF00003EC
S21440350004E000BF10F0004348BF40425FEA000CB2
S21440351008BF704743F0964301464FF000001CE05A
S21440352050EA010208BF70474FF000030AE000BFB0
S21440353050EA010208BF704711F0004302D54042EE
S21440354061EB41015FEA010C02BF84460146002060
S21440355043F0B64308BFA3F18053A3F50003BCFA7B
S2144035608CF2083AA3EBC25310DB01FA02FC634428
S21440357000FA02FCC2F12002BCF1004F20FA02F22F
S21440358043EB020008BF20F00100704702F1200222
S21440359001FA02FCC2F1200250EA4C0021FA02F283
S2144035A043EB020008BF20EADC7070474FF0FF0C88
S2144035B01CEAD0521EBF1CEAD15392EA0C0F93EA83
S2144035C00C0F6FD01A4480EA010C400218BF5FEA25
S2144035D041211ED04FF0006343EA501043EA511198
S2144035E0A0FB01310CF00040B1F5000F3EBF490092
S2144035F041EAD3715B0040EA010062F17F02FD2A96
S2144036001DD8B3F1004F40EBC25008BF20F0010078
S214403610704790F0000F0CF0004C08BF49024CEA8F
S214403620502040EA51207F3AC2BFD2F1FF0340EA21
S214403630C250704740F400004FF00003013A5DDC92
S21440364012F1190FDCBF00F000407047C2F10002D3
S214403650410021FA02F1C2F1200200FA02FC5FEAC0
S214403660310040F1000053EA4C0308BF20EADC700A
S214403670704792F0000F00F0004C02BF400010F47C
S214403680000F013AF9D040EA0C0093F0000F01F029
S214403690004C02BF490011F4000F013BF9D041EA4B
S2144036A00C018FE70CEAD15392EA0C0F18BF93EA4D
S2144036B00C0F0AD030F0004C18BF31F0004CD8D177
S2144036C080EA010000F00040704790F0000F17BFFE
S2144036D090F0004F084691F0000F91F0004F14D044
S2144036E092EA0C0F01D142020FD193EA0C0F03D19C
S2144036F04B0218BF084608D180EA010000F000409F
S21440370040F0FE4040F40000704740F0FE4040F479
S214403710400070474FF0FF0C1CEAD0521EBF1CEA18
S214403720D15392EA0C0F93EA0C0F69D0A2EB030236
S21440373080EA010C49024FEA402037D04FF08053D0
S21440374043EA111143EA10130CF000408B4238BF95
S2144037505B0042F17D024FF4000C8B4224BF5B1AA3
S21440376040EA0C00B3EB510F24BFA3EB510340EAF1
S2144037705C00B3EB910F24BFA3EB910340EA9C009F
S214403780B3EBD10F24BFA3EBD10340EADC001B010F
S21440379018BF5FEA1C1CE0D1FD2A3FF650AF8B42B3
S2144037A040EBC25008BF20F0010070470CF0004CC0
S2144037B04CEA50207F32C2BFD2F1FF0340EAC250EB
S2144037C0704740F400004FF00003013A37E792F0AC
S2144037D0000F00F0004C02BF400010F4000F013A0A
S2144037E0F9D040EA0C0093F0000F01F0004C02BF05
S2144037F0490011F4000F013BF9D041EA0C0195E76E
S2144038000CEAD15392EA0C0F08D142027FF47DAF06
S21440381093EA0C0F7FF470AF084676E793EA0C0FF6
S21440382004D14B023FF44CAF08466EE730F0004CF4
S21440383018BF31F0004CCAD130F000427FF45CAF84
S21440384031F000437FF43CAF5FE700BF4FF0FF3CF2
S21440385006E000BF4FF0010C02E000BF4FF0010C45
S2144038604DF804CD4FEA40024FEA41037FEA226C0E
S21440387018BF7FEA236C11D001B052EA530C18BF30
S21440388090EA010F58BFB2EB030088BFC81738BF95
S2144038906FEAE17018BF40F0010070477FEA226C83
S2144038A002D15FEA402C05D17FEA236CE4D15FEA7F
S2144038B0412CE1D05DF8040B704700BF84460846B3
S2144038C06146FFE70FB5FFF7C9FF002848BF10F174
S2144038D0000F0FBD4DF808EDFFF7F4FF0CBF0120B9
S2144038E000205DF808FB00BF4DF808EDFFF7EAFF43
S2144038F034BF012000205DF808FB00BF4DF808EDFE
S214403900FFF7E0FF94BF012000205DF808FB00BFF2
S2144039104DF808EDFFF7D2FF94BF012000205DF878
S21440392008FB00BF4DF808EDFFF7C8FF34BF012085
S21440393000205DF808FB00BF70B50F4E0F4D761B9C
S214403940B61018BF002405D0013455F8043B9847FC
S214403950A642F9D10A4E0B4D761B05F0D7F9B610A4
S21440396018BF002406D0013455F8043B9847A642B9
S214403970F9D170BD70BD00BF188D4000188D400055
S214403980208D4000188D400070B4840746D0541EE9
S214403990002A41D0CDB2034602E0621EE4B314468C
S2144039A003F8015B9A07F8D1032C2ED9CDB245EA2D
S2144039B005250F2C45EA054519D903F11002264680
S2144039C0103E0F2E42F8105C42F80C5C42F8085C41
S2144039D042F8045C02F11002F2D8A4F1100222F080
S2144039E00F0204F00F041032032C13440DD91E4668
S2144039F02246043A032A46F8045BFAD8221F22F0ED
S214403A0003020432134404F003042CB1C9B21C442C
S214403A1003F8011BA342FBD170BC70471446034613
S214403A20C2E700BF00290CBF022200224FF4806389
S214403A3000F000B82DE9F043514C256883B00446A9
S214403A400F4690461E4615B1AB6B002B79D0B8F1A9
S214403A50020F04D0B8F1010F7FD8002E7DDB21463F
S214403A60284602F0FDFC216B41B104F14003994227
S214403A7002D0284602F0F4FD00232363B4F90C304C
S214403A800022A26162601A0654D423F44A6323F0EB
S214403A900303B8F1020FA38139D001AB6A46214631
S214403AA0284602F0F3FEA3891843A08126B327B325
S214403AB0AB6B002B4DD0009BB4F90C0027609E42A8
S214403AC01CBF40F40060A081B8F1010F08BF40F071
S214403AD0010083B208BFA08103F0080080B22761CE
S214403AE0666118B313F001002FD000207642A6611D
S214403AF0A06003B0BDE8F083009E304602F0F6FEBC
S214403B00074668B3A38943F08003A381D0E700202B
S214403B1004F1430243F0020300250121A381A5607E
S214403B2022602261616103B0BDE8F083A06003B00B
S214403B30BDE8F0832169284602F092FDB4F90C30C6
S214403B40A3E7284602F020FD81E7A66003B0BDE863
S214403B50F083284602F018FDADE74FF0FF30E2E76D
S214403B60DDF80090B14506D0484602F0BFFE074655
S214403B7008B14E46C6E7B4F90C304FF0FF30C7E701
S214403B80400400200EB4F0B59CB021AB0F4953F86A
S214403B90042B019305466FF00044086802954FF4E5
S214403BA002774FF6FF7602A90695ADF81470049496
S214403BB00794ADF8166000F091F8029B00221A7048
S214403BC01CB0BDE8F04003B0704700BF4004002082
S214403BD000000000000000000000000000000000A0
S214403BE00000000000000000000000000000000090
S214403BF00000000000000000000000000000000080
S214403C0090F800F06DE9024520F007016FF0000CD7
S214403C1010F0070491F820F040F049804FF000047F
S214403C206FF00700D1E9002391F840F000F108005A
S214403C3082FA4CF2A4FA8CF283FA4CF3A2FA8CF392
S214403C404BBBD1E9022382FA4CF200F10800A4FAF9
S214403C508CF283FA4CF3A2FA8CF3E3B9D1E904234D
S214403C6082FA4CF200F10800A4FA8CF283FA4CF384
S214403C70A2FA8CF37BB9D1E9062301F1200182FA3E
S214403C804CF200F10800A4FA8CF283FA4CF3A2FA44
S214403C908CF3002BC6D0002A04BF04301A4612BA52
S214403CA0B2FA82F2FDE8024500EBD2007047D1E955
S214403CB0002304F00305C4F100004FEAC50514F0E4
S214403CC0040F91F840F00CFA05F562EA05021CBFB5
S214403CD063EA050362464FF00004A9E72DE9F04F7A
S214403CE0C1B00C46099115460E930A9002F0CAFDE3
S214403CF0036817931846FFF783FFA38916901E069E
S214403D0003D52369002B01F0198100231A4612932C
S214403D102593249319930B93DFF864A4149230AB45
S214403D20239399461592A84698F800304446EBB13E
S214403D30252B02D11AE0252B03D014F8013F002B87
S214403D40F9D1C8EB04058DB1249B259AC9F80080AB
S214403D5001332A44072BC9F804502592249300F3D4
S214403D60A68009F108090B9B2B440B932378002B64
S214403D7000F0A68000231A468DF86F3019460C9343
S214403D8007934FF0FF3B637804F101085D4608F166
S214403D900108A3F12000582800F22584DFE810F03F
S214403DA088032304230490032304230423042304C6
S214403DB0230423049703A50323045D00E2002304A1
S214403DC0FE00050105010501050105010501050186
S214403DD005010501230423042304230423042304A8
S214403DE023042304230423041501810223048102AF
S214403DF02304230423042304C60223042304CD02FD
S214403E0023042304230423042304F7022304230463
S214403E102503230423042304230423042304230424
S214403E20230423042304660379038102810281026A
S214403E308103790323042304D1032304DB03A30073
S214403E406400EE032304F5032304AA032304230497
S214403E50BC030C980E9340420C90079B43F004031F
S214403E60079398F8003092E70E98AB460021046816
S214403E708DF86F10071D0798302378228B458DF8F4
S214403E8070304FF000058DF8712040F00203C0F20C
S214403E90C78320F0800343F00203079354EA0503E8
S214403EA00E9700F093830F461192B348CEE223AAB2
S214403EB009990A9803F02EFC48B90DF1C00952E75B
S214403EC0259B23B10A98099923AA03F023FC099B52
S214403ED09B8913F0400F0B9B18BF4FF0FF331846DB
S214403EE041B0BDE8F08F1193AB46002A41F02382E3
S214403EF0079A12F0200300F02E820E9F073727F015
S214403F000703002703F10801BB450E91D3E900459E
S214403F108DF86F70C0F2528722F08003079354EA00
S214403F20050300F0758330AEE20842EA4572E908C0
S214403F3004F007030D461446303354EA050206F8EB
S214403F40013DF1D1079AD10740F18480302B00F033
S214403F5081803022731E06F8012C30AAD21A0D92A8
S214403F601E467AE098F800302A2B08F1010401F04A
S214403F70B181A3F13000092898BF002501F2648181
S214403F8014F8013B05EB850500EB4505A3F1300031
S214403F900928F5D945EAE575A046FAE6079B43F0B9
S214403FA08003079398F80030F1E6A3F13000002331
S214403FB01C4618F8013B04EB840400EB4404A3F1D0
S214403FC030000928F5D90C94E3E61193AB46002A55
S214403FD041F0C981079B43F010030793079B98065F
S214403FE040F130850E9F073727F00707D7E90023B3
S214403FF007F108010E9114461D46002A73F100038E
S214404000C0F25B85BBF1000F9DF86F70C0F238853B
S214404010079B23F08003079354EA050300F0DB81F7
S214404020002D08BF0A2CC0F0DB8130AE2046294662
S2144040300A22002304F0FEFB303206F8012D20460B
S214404040294600230A2204F0F5FB04460D4654EAAE
S2144040500503EBD130AB9B1B0D930D9B5B45B8BF67
S2144040605B4608930023139317B1089B01330893CC
S214404070079B13F002030F9302D0089B023308936A
S214404080079B13F08403109340F0D7820C9B089A4A
S2144040909D1A002D40F3D182102D2599249A374F32
S2144040A027DD189648461024B946099E2F460A9D95
S2144040B004E0103F102F00F1080016DD01322F4BB0
S2144040C024921031072A259180E81800F1DD23AAB2
S2144040D03146284603F01EFB00287FF4F8AE103F1A
S2144040E0102F2599249A30A8E8DC189E3D464F4666
S2144040F0814601326C18072A25942492C9F800702C
S214404100C9F8045000F328849DF86F7009F1080937
S21440411077B1249B013301340DF16F010122072B47
S2144041202594249389E8060000F3A08309F1080942
S2144041300F9B6BB1249B013302341CA90222072B30
S2144041402594249389E8060000F39C8309F1080926
S214404150109B802B00F0D5820D9BC3EB0B07002FE6
S21440416039DD074A249B0F92102F28DD22464FF058
S214404170100B0A9D099C0AE0C48B4000E48B40006B
S214404180908B4000103F102F09F1080916DD0133CF
S2144041901032072B2592249389E8000CF2DD23AADF
S2144041A02146284603F0B6FA00287FF490AE103F2A
S2144041B0102F259A249B0DF1C009E8DC14460133E4
S2144041C00F9A24933C44072B259489E8840000F3F7
S2144041D0418309F10809079BDA0500F13082249BE8
S2144041E00D99C9F8006001330C44072B2594C9F893
S2144041F00410249300F3188309F10809079B590714
S2144042003FD50C9B089A9D1A002D3ADD102D249B15
S214404210BC4F23DD22461026DDF828B0099C04E07A
S214404220103D102D09F1080917DD0133B5492493D7
S2144042301032072B259289E84200F1DD23AA214659
S214404240584603F067FA00287FF441AE103D102D23
S214404250259A249B0DF1C009E7DC144601332C4413
S214404260072B25942493C9F80070C9F8045008DD3C
S21440427023AA09990A9803F04DFA00287FF427AE3E
S214404280259C0B9B0C9A08998A42ACBF9B185B18DE
S2144042900B93002C40F0D482002324930DF1C009E8
S2144042A042E51193AB46002A41F059800E9F0737EE
S2144042B027F0070303F108020E921A6814925B680F
S2144042C01593159B149D23F00044284621464FF035
S2144042D0FF328D4B04F070FA002840F0C184284627
S2144042E021464FF0FF32884B04F048FA002840F051
S2144042F0B784149815990022002304F035FA002854
S21440430040F04B879DF86F70804E814B079921F0A7
S21440431080010791119903224FF0000B089247291C
S214404320D8BF1E460D92CDF84CB09DE6079B43F095
S2144043300803079398F8003029E51193AB46002A06
S21440434041F00980079B43F010030793079A12F049
S21440435020037FF4D2AD079911F0100200F00785D4
S2144043600E988DF86F30BBF1000F046800F104071B
S2144043704FF00005C0F221850A4622F080020792DF
S21440438054EA05020E9700F043811F46CBE5119391
S214404390AB46002A40F0D787079B43F010030793AD
S2144043A0079A12F0200300F032830E9F073727F05B
S2144043B00703002703F10801BB450E91D3E90045EA
S2144043C08DF86F70C0F25C8322F08003079354EA46
S2144043D005037FF425AEBBF1000F00F0FE800024FD
S2144043E040AE303406F8414D34E61193AB46002AD1
S2144043F040F0A587079B47489D0640F197800E9F53
S214404400073727F00703D3E9004503F108020E9269
S214404410079A12F0010700F0418254EA050300F0C3
S214404420F5849DF844208DF871200027079A8DF872
S2144044306F703023BB458DF8703042F00203C0F2F7
S214404440A98622F0800343F00203079330AE230987
S21440445004F00F0143EA05732A091C461546435CDF
S21440446006F8013D54EA0503F1D1F3E50E991193A0
S2144044700A688DF8982000230A461F468DF86F304C
S214404480043201230893BB4613970E920D9326AE33
S214404490EEE51193AB46002A3FF4A0AD8DF86F10C1
S2144044A09CE5079B43F04003079398F800306EE482
S2144044B098F8003000297FF46AAC0122202166E497
S2144044C0079B43F00103079398F800305FE40E9C87
S2144044D023680C9318460028234603F10403FFF68E
S2144044E0B8AC0E9398F8003051E498F800300122AA
S2144044F02B214CE41193AB46002A3FF451AF8DF884
S2144045006F104DE7E48B4000FFFFEF7FA48B400029
S214404510A08B4000B08B40001193AB46002A40F081
S2144045200387079B99489D063FF569AF079BDC06C6
S21440453040F15E840E9A1346043314680E930025A9
S21440454066E798F800306C2B00F0E184079840F05E
S214404550100007901BE4002A40F0DB86079B9B0672
S21440456040F12F840E9A0B991368CD1708460432F3
S21440457029460E92C3E90001FFF7D6BB079B43F0DE
S2144045802003079398F8003001E40E9A11931668BA
S21440459000248DF86F40171D002E00F0BD85002DBD
S2144045A0C0F20F852A462146304602F061FC0028BC
S2144045B000F00486831B0D93A34623EAE3730E970D
S2144045C00893CDF84CB09DF86F704DE56F4811924A
S2144045D0BBF1000F40F073815F464FF0000BCDF803
S2144045E034B030AE39E51193002A40F0B086119AC7
S2144045F0002A3FF465AC002301211F4608918DF840
S21440460098208DF86F309B4613930D9126AE2FE57C
S214404610BBF1000F00F0DD8500270024002582E472
S2144046205A480793119254EA05030E974FF0000735
S2144046307FF40CAF0024002508E7259C68E5119B15
S214404640652B40F3A980149815990022002304F0A6
S21440465081F8002800F03581249B4D4AC9F8002097
S214404660013301340122072B25942493C9F80420F2
S21440467000F3E68309F108091D9B129A934203DB77
S214404680079BDB077FF5BAAD249B1699179AC9F8A6
S214404690002001330C44072B2594C9F804102493BA
S2144046A000F33F8409F10809129B5D1E002D7FF739
S2144046B0A5AD384A249B0F92102D40F3E681102674
S2144046C00A9FDDF824B005E009F10809103D102DD9
S2144046D040F3DB8101331034072B25942493C9F82B
S2144046E000A0C9F80460EFDD23AA5946384603F017
S2144046F011F800287FF4EBAB259C249B0DF1C009F4
S214404700E4E70C9B089A9F1A002F7FF725AD214AB5
S214404710249B0F92102F2BDD4A462146B946102582
S21440472037460A9C099E06E0A9F11009B9F1100F18
S21440473002F1080218DD01331031072B259124932E
S214404740C2F800A05560EFDD23AA3146204602F0AD
S214404750E1FF00287FF4BBABA9F11009B9F1100FB7
S2144047602599249B30AAE6DC3E460C464F469146A9
S21440477001330F9A24933C44072B259489E8840000
S21440478000F3458209F10809E6E400BFC48B400007
S214404790E08B4000908B4000129B249D012B40F301
S2144047A00882013501340123072D25942495C9F844
S2144047B00060C9F8043000F30D8209F10809169A22
S2144047C0179BC9F8003001351444072D25942495CD
S2144047D0C9F8042000F30E8209F108090023149852
S2144047E01599002203F0B6FF129B002840F0C380C4
S2144047F0013B013501361C44072D24952594C9F804
S2144048000060C9F8043000F3F58009F10809199AE8
S214404810C9F80420013514441FAB072D2594249570
S214404820C9F800307FF7E8AC23AA09990A9802F045
S21440483071FF00287FF44BAB259C0DF1C009DDE4E9
S21440484023AA09990A9802F065FF00283FF424AD90
S214404850FFF73DBB23AA09990A9802F05BFF0028A0
S2144048607FF435AB259C0DF1C009B4E423AA099921
S2144048700A9802F04FFF00287FF429AB259C0DF1E3
S214404880C00955E423AA09990A9802F043FF002874
S2144048907FF41DAB259C0DF1C00959E4BBF1000F18
S2144048A08DF86F70C0F2D88222F08003079354EAE6
S2144048B005037FF4CBADBBF1000F3FF48DAE002770
S2144048C0B8E61D9D002D40F3CA82139B129A934270
S2144048D0A8BF1346002B1D460DDD249BC9F800607B
S2144048E001332C44072B2594C9F80450249300F335
S2144048F09C8309F10809139B002DA8BF5B1B002B66
S2144049001D4640F3F680BA4A249B0F92102D40F382
S2144049108A8222461027DDF828B0099C05E009F176
S2144049200809103D102D40F37D8201331032072BCD
S21440493025922493C9F800A0C9F80470EFDD23AA95
S2144049402146584602F0E6FE00287FF4C0AA259A83
S214404950249B0DF1C009E4E723AA09990A9802F0BE
S214404960D9FE00287FF4B3AA9DF86F70259C0DF100
S214404970C009FFF7CDBB5E1E002E7FF748AF9C4BAD
S2144049800F93102E2CDDCDF834801027B046DDF87E
S21440499028B0099E06E0A8F11008B8F1100F09F1FA
S2144049A008091ADD01351034072D25942495C9F8D9
S2144049B000A0C9F80470EEDD23AA3146584602F03E
S2144049C0A9FE00287FF483AAA8F11008B8F1100FBA
S2144049D0259C249D0DF1C009E4DC4646DDF8348074
S2144049E00F9B01353444072D2594249589E84800CB
S2144049F07FF70BAF23AA09990A9802F08BFE00288E
S214404A007FF465AA259C249D0DF1C009FFE6079911
S214404A1011F0100200F008810E988DF86F30BBF14F
S214404A20000F046800F104074FF0000526DB0A4635
S214404A3022F08002079254EA05020E971F467FF442
S214404A40EFAAC8E4079BD9062AD4079B5A0627D55F
S214404A500E99B1F900400431E51722462B460E91D7
S214404A60FFF7CBBA0E998DF86F30BBF1000F0C688C
S214404A7001F104074FF0000580F247820E971F466B
S214404A8054EA05037FF4CCAAAAE401330F9A249390
S214404A902C44072B259489E824007FF7ADABC3E66A
S214404AA00E9A146813460433E51722460E93002ADE
S214404AB02B4673F10003BFF6A5AA64424FF02D07BC
S214404AC065EB4505BBF1000F8DF86F70FFF6A8AAA1
S214404AD0079B23F080030793FFF7A2BA23AA0999FE
S214404AE00A9802F017FE00287FF4F1A9259C0DF1E4
S214404AF0C009139A1D9B32441746129A934247DBCD
S214404B00079AD50744D412990E44F51BCB1A9D42FA
S214404B10A8BF1D46002D2E460DDD249AC9F800700C
S214404B2001322C44072A2594C9F80450249200F3F5
S214404B300B8309F10809002EACBF9D1B1D46002DB6
S214404B407FF75CAB2A4A249B0F92102D9DDD1026E2
S214404B500A9FDDF824B004E009F10809103D102D45
S214404B6093DD01331034072B25942493C9F800A015
S214404B70C9F80460F0DD23AA5946384602F0CAFD5B
S214404B8000287FF4A4A9259C249B0DF1C009E5E7E5
S214404B90249A16981799C9F8001001320444072A37
S214404BA02594C9F80400249200F3A98209F1080963
S214404BB0A9E7079BD8073FF5F4AD0135013401233B
S214404BC0072D25942495C9F80060C9F804307FF76E
S214404BD01CAE0FE723AA09990A9802F09BFD00280D
S214404BE07FF475A9259C249D0DF1C009E7E500BF1B
S214404BF0908B400023AA09990A9802F08BFD002862
S214404C007FF465A9259C249D0DF1C009E6E523AAFD
S214404C1009990A9802F07EFD00287FF458A9259C41
S214404C200DF1C009FFF798BA079911F040033FF419
S214404C3019AF0E988DF86F20BBF1000F048800F175
S214404C4004074FF00005C0F2B98121F080030793B6
S214404C5054EA05030E9717467FF4E2A9FFF7BBBB5D
S214404C60149C22462046159C2346214603F0A4FD6C
S214404C70002840F01783119BBBF1FF3F23F0200331
S214404C800D9300F07082472B00F09281079B43F40F
S214404C9080731093159B1F1E149B0893BBBF3B4607
S214404CA003F1004700232D230F93119B662B00F042
S214404CB05D82462B00F051810D9B089A452B21A81A
S214404CC01EA90CBF0BF101055D46049003911DA87B
S214404CD002213B460290019500910A9800F0F0FBB5
S214404CE0119B672B064640F09082079BDA0740F1FF
S214404CF0AF827419089839460022002303F02AFD33
S214404D00002840F09081219B9C4206D930215A1CB5
S214404D1021921970219B9C42F9D89B1B12930D9BA4
S214404D20472B00F07981119B652B40F37D82119BC8
S214404D30662B1D9B139300F05B82139A12998A424E
S214404D40C0F23082079BD90700F1848222EAE273E0
S214404D500D92672211920F9A002A40F053810893D1
S214404D60109B079393469DF86F70FFF77DB90799A0
S214404D7011F0400315D00E988DF86F20BBF1000F50
S214404D80048800F104074FF0000516DB21F080038D
S214404D90079354EA05030E973FF43AAC1746FFF7DD
S214404DA0C2B80E998DF86F30BBF1000F0C6801F158
S214404DB004074FF0000580F2A5800E970027FFF706
S214404DC0B2B8079BDF060BD4079B5E0608D50E9A43
S214404DD0136804320E92BDF82C201A80FEF7A4BF4A
S214404DE00E9A136804320E920B9A1A60FEF79CBF16
S214404DF00E9A079B13F0400F134603F104030CBFB3
S214404E00146814880E930025FFF702BB0027BB45A5
S214404E108DF86F70FFF60EAC079B23F08003079368
S214404E20FFF7D6BB144601330F9A24932C44072B26
S214404E30259489E824003FF751AE09F1080958E661
S214404E4023AA09990A9802F065FC00287FF43FA837
S214404E50259C0DF1C0090FE40E9FFFF7E4BB249B91
S214404E60B54AC9F80020013301340122072B2594A6
S214404E702493C9F8042000F38E8009F108092DB95F
S214404E80129B1BB9079BDF077FF5B8A9249B169991
S214404E90179AC9F8002001330C44072B2594C9F80B
S214404EA00410249300F3C28109F108096D42002DD5
S214404EB040F39B80A14A0F92102D40F3C3802246B8
S214404EC01027DDF828B0099C05E009F10809103DD7
S214404ED0102D40F3B68001331032072B25922493D1
S214404EE0C9F800A0C9F80470EFDD23AA2146584649
S214404EF002F010FC00287EF4EAAF259A249B0DF1C0
S214404F00C009E4E7079AFFF738BA079A90E5079B87
S214404F1043F02003079308F1010898F80030FEF7A5
S214404F2036BF23AA09990A9802F0F4FB00287EF4BB
S214404F30CEAF259C0DF1C009FFF7B6BB40210A98BD
S214404F4001F0DCFC099A10601061002800F0E58151
S214404F50099A40235361FEF7D8BE21A81EA90490A3
S214404F6003911DA803210290089ACDF804B03B4651
S214404F7000910A9800F0A4FA5D460646119B462B1F
S214404F8006EB05047FF4B6AE3378302B00F07C8118
S214404F901D9D2C44AEE623AA09990A9802F0BAFB56
S214404FA000287EF494AF1D9D259C0DF1C00966E750
S214404FB0BBF1000F08BF4FF0010B67E60E97174690
S214404FC05EE53046FEF71CFEA34603460D90FFF70F
S214404FD0F4BA23AA09990A9802F09CFB00287EF4AA
S214404FE076AF259C249B0DF1C0091299C9F8006044
S214404FF001330C44072B25942493C9F804107FF7FB
S214405000FBA811E42D270893109B07938DF86F702B
S2144050104FF0000BFFF729B81D9BDD1C1EDB9B45A0
S2144050201CDB139389E6234677E623AA09990A9858
S21440503002F070FB00287EF44AAF259C0DF1C009B3
S21440504059E4144601330F9A24932C44072B259495
S21440505089E82400BDDC09F10809C6E7119A023A3E
S2144050601192013B002B9DF844201D93B8BF5B4234
S2144050708DF87C20B4BF2D222B22092B8DF87D2065
S21440508040F3F1800DF18B0004462D4A82FB03214C
S214405090DA17C2EBA10202EB8201A3EB410303F154
S2144050A03001092A134604F8011DEEDC2146303350
S2144050B0DAB201F8012D884240F23A810DF17E01C4
S2144050C0234601E013F8012B01F8012B9842F9D151
S2144050D0431C1B1B0DF17E0213441FAA9B1A129AF7
S2144050E01993012A13440D9340F3EA800D9B169AB8
S2144050F0134400220D93139223EAE3732BE623AA6C
S21440510009990A9802F006FB00287EF4E0AE1D9B43
S214405110259C0DF1C009F6E4062D2B4628BF062334
S2144051200D9323EAE373B3460E97139637460893D8
S214405130044EFEF799BF00BFE08B4000908B4000C6
S21440514067666666D88B400023AA09990A9802F0DB
S214405150E1FA00287EF4BBAE1D9B129A259CD31A1A
S2144051600DF1C009E7E44FF0060B8FE521A81EA914
S214405170049003911DA803210290089ACDF804B02C
S2144051803B4600910A9800F09BF95D46064600EBC8
S2144051900B04F9E60793FFF759B92D278DF86F7082
S2144051A0FFF7B2B8169A129B1344139A0D93002A2F
S2144051B07EDD672223EAE3731192CCE525EAE573A8
S2144051C00E9708930D95834613909DF86F70FEF7E3
S2144051D04BBF079BDB075F4605D540AE302306F83E
S2144051E0413DFEF737BFCDF834B030AEFEF735BFA1
S2144051F0002B7DDDBBF1000F3DD1079AD4073AD492
S2144052001A460D9223EAE373A5E5119B472B7FF4DC
S21440521070AD079BDB073FF5B1AE219B9B1B1293FE
S2144052200D9B472B3FF4F8AE1D9B1AE723AA09991E
S2144052300A9802F06FFA00287EF449AE1D9D259C20
S214405240249B0DF1C00931E6A0460025FEF7A1BD1E
S214405250219B62E5169A139B134467220D93119285
S21440526023EAE37377E5303330228DF87F308DF8CC
S2144052707E2020AB31E7139B169A9D1805EB0B0357
S2144052800D9323EAE37366E5089839460022002327
S21440529003F060FA00287FF47BAEC5F101051D954A
S2144052A02C4427E5324E334B9DF86F70FFF72EB8EF
S2144052B0139B0D9AC3F101031A4413460D9278E7E7
S2144052C0079B13F001037FF411AF13930D9B23EA62
S2144052D0E37340E50E9898F8013005680430002DD9
S2144052E00E90A046BEF653AD4FF0FF35FEF74FBDCD
S2144052F0BBF1000F02D1079BD80707D5169B5D1C54
S21440530005EB0B030D9323EAE37324E501230D938A
S21440531021E58DF86F10FFF721B90A9A0C23136028
S2144053204FF0FF30FEF7DCBD8DF86F10FFF7F9B891
S2144053300DF17E03D1E68DF86F10FEF7D9BD8DF8DE
S2144053406F10FFF757B88DF86F10FFF725B88DF838
S2144053506F10FFF74CB98DF86F10FEF7F3BF8DF85E
S2144053606F10FEF7A3BF8DF86F10FEF733BE00BF79
S214405370AC8B4000A88B4000024B13B1024800F0B3
S21440538005B87047000000009D65400000230146B8
S2144053901A46184602F054BA02690B69934200F363
S2144053A08D802DE9F04F03F1FF3801F1140700F12D
S2144053B0140B57F828205BF828304FEA880483B04F
S2144053C00132B3FBF2F90BEB0403009407EB040A3B
S2144053D00193B9F1000F39D00025BC46DE462B4676
S2144053E05CF8046BDEF80020B4B209FB0455360CBA
S2144053F02C0C09FB0644ADB25B1BA6B213FA82F333
S214405400C6EB124606EB23469BB243EA0643E2450A
S2144054104EF8043B4FEA14454FEA2643E0D2009B41
S2144054205BF8033093B9019C231F9B450CD254F87C
S214405430043C4BB9A4F1080302E01A68043B1AB9CD
S2144054409B4508F1FF38F8D3C0F81080044602F0B8
S21440545005F800282EDB09F101095D46002357F8C0
S214405460041B28688AB29A1A090C12FA80F2C1EB19
S214405470104303EB224391B241EA0341BA4545F853
S214405480041B4FEA2343EAD25BF828200BEB880341
S21440549082B91A1F93450BD253F8042C42B9083BE5
S2144054A002E01A68043B1AB99B4508F1FF38F8D366
S2144054B0C4F81080484603B0BDE8F08F002070471F
S2144054C02DE9F04F016C97B08146239C92469B464F
S2144054D049B1426C4A60012393408B6001F0DCFD89
S2144054E00023C9F84030BBF1000FD84633DB002319
S2144054F02360A54B1A4608EA0303934214D050464D
S21440550059460022002303F025F9054648B3229A5F
S21440551001231360249B002B00F0C5809B48186035
S214405520013817B0BDE8F08F229A42F20F7313602D
S214405530BAF1000F00F0A2809548249B002BF0D0D3
S214405540C378002B00F0B18000F10803249A136062
S21440555017B0BDE8F08F01232BF000482360C34608
S214405560C7E714AA15AB0192009352465B464846DD
S21440557002F01EF85FEA1854089040F08880149DA8
S214405580159C2C4404F23243202B40F39182C3F105
S214405590400304F2124008FA03F82AFA00F040EA00
S2144055A0080002F0F9FD0123013CA1F1F8711093C7
S2144055B00022784B02F0B2FC6DA3D3E9002302F040
S2144055C061FE6DA3D3E9002302F0AAFC06462046FE
S2144055D00F4602F0F1FD6AA3D3E9002302F052FE23
S2144055E002460B463046394602F09AFC06460F46BF
S2144055F003F0F8F80022049000233046394603F0C2
S214405600B3F8002840F03082049E162E00F229821D
S214405610614B03EBC603D3E9000152465B4603F0F9
S214405620C1F8002800F04982731E049300230C93AF
S2144056302C1B631E029300F1328200230593049BC9
S214405640002BC0F22382029A0B9311461944002382
S21440565002910A93209B092B29D8052B40F35886A4
S214405660043B20930025209B023B032B00F235860B
S214405670DFE813F02C03280237035904444B474A0B
S214405680C8F31300002814BF1846104655E7CBF35E
S214405690130343F07F5110955046A4F2FF3441F473
S2144056A04011149D84E73E483BE7C31C4EE700216B
S2144056B0C9F844104846209101F0C8FC4FF0FF332B
S2144056C00693209A0D93012307902192C9F8400033
S2144056D00993159B002BC0F2D180049A0E2A00F342
S2144056E0CD802D4B03EBC203D3E90034CDE9023421
S2144056F0219B002BC0F2008356465F4650465946D3
S214405700DDE902AB52465B4602F0E6FE03F06AF87D
S214405710044602F051FD52465B4602F0B3FD0B468E
S21440572002463946304602F0F9FB079D04F1300345
S2144057302B70069B012B06460F4605F1010562D0ED
S2144057400022184B02F09EFD0022002306460F461C
S21440575003F000F800287ED1CDF81490DDF818A0AC
S214405760DDF81CB0DDE9028929E000BFAFF3008018
S21440577061436F63A787D23FB3C8608B288AC63F12
S214405780FB799F501344D33F0000F07FE18B4000ED
S214405790008C40000000F83F108C4000F48B400026
S2144057A0E08B40000000244002F06CFD0022002305
S2144057B006460F4602F0CEFF002840F0B78342462A
S2144057C04B463046394602F087FE03F00BF8044657
S2144057D002F0F2FC42464B4602F054FD02460B46AF
S2144057E03046394602F09AFB04F1300E05F801EBDC
S2144057F0CBEB050ED64506460F464FF00002B04BA3
S214405800D2D1DDF8149032463B463046394602F057
S21440581087FB06460F4602460B46DDE9020102F0CC
S214405820A3FF40B932463B46DDE9020102F092FF53
S21440583088B1E3070FD515F8014C079A6B1E04E0B4
S2144058409A4200F02C8413F8014D392C03F10105DF
S214405850F6D001341C700899484601F01DFC002221
S214405860049B2A70229A01331360249B002B00F07D
S214405870A78307981D6017B0BDE8F08F099A002AE5
S21440588000F01281209A012A40F35882069B0A9A19
S2144058905F1EBA42C0F29783D71B069B002BC0F20E
S2144058A08A84059D069B059A1A440592029A012110
S2144058B01A444846029201F087FC064665B10299B2
S2144058C000290B4608DDA942059AA8BF2B46D21AE6
